:100000000C9404090C9435090C9435090C943509A9
:100010000C9435090C9435090C9435090C94350968
:100020000C9435090C9435090C9435090C94350958
:100030000C9435090C9435090C9435090C94350948
:100040000C9435090C9435090C9435090C94350938
:100050000C9435090C9435090C9435090C948733AC
:100060000C9435090C9432350C9468350C94350990
:100070000C9435090C9435090C9435090C94350908
:100080000C9435090C9435090C9435090C943509F8
:100090000C9487340C94BD340C9435090C943509B8
:1000A0000C9435090C9435090C9435090C943509D8
:1000B0000C9435090C9435090C9435090C943509C8
:1000C0000C9435090C9435090C9435090C94F437CB
:1000D0000C942A380C9435090C9449370C947F37CA
:1000E0000C943509040D2A0D5B0D810DA70DCD0D66
:1000F000F30D190E912E0D30EA2E0D30412F0D30DB
:10010000AE2F0D30ED2F0D30522E0D305A2E0D30FA
:100110006A2E0D30812E000000000000000000005B
:1001200000000000000000000000000000000000CF
:1001300000000000000000000000000000000000BF
:1001400000000000000000000000000000000000AF
:10015000000000000000000000000000000000009F
:10016000000000000000000000000000000000008F
:10017000000000000000000000000000000000007F
:10018000000000000000000000000000000000006F
:10019000000000000000000000000000000000005F
:1001A000000000000000000000000000000000004F
:1001B000000000000000000000000000000000003F
:1001C000000000000000000000000000000000002F
:1001D000000000000000000000000000000000001F
:1001E000000000000000000000000000000000000F
:1001F00000000000000000000000000000000000FF
:10020000D70001070F001E002F0033009C00A20042
:10021000BF0000010001776B656D707479617070CB
:10022000000101040000000119FF000000010100AD
:100230000000040201000203080018005D00000035
:100240000000010200000500219D016C9B000100DF
:100250000100010502003A00590104A00121469D58
:1002600001AF1500019C0178019E02107B9C017D6D
:10027000009C0116009C0111019E020B9E00029E33
:10028000020C9E020D3122840008229C0200009480
:10029000FFF300000000000001020001009B0003CA
:1002A000000000000006020007000F0006004F4299
:1002B0004A4543540C004D79206E6F646520696493
:1002C0003A20050205000A006261736500776B70D1
:1002D000665F7669727475616C000200020000024C
:1002E0000003000002000400000000000000000005
:1002F00000000000000000000000000000000000FE
:1003000000000000000000000000000000000000ED
:1003100000000000000000000000000000000000DD
:1003200000000000000000000000000000000000CD
:10120000EF349A35B1375C3811241FBECFEFD1E2ED
:10121000DEBFCDBF00E00CBF1AE0A0E0B2E0ECE022
:10122000FBE700E00BBF02C007900D92A837B107A3
:10123000D9F727E1A8E7BAE001C01D92A333B207AE
:10124000E1F712E1C8E0D2E100E006C0229701090F
:10125000FE010BBF0E94DB39C030D10780E00807D8
:10126000A9F70E94A0380C94843D0C94000080E003
:1012700092E09093D9158093D81560E072EC81E0EC
:1012800090E02ED040E058E060E070E085ED9DE019
:1012900041D081E08093D715089580E092E00C94CE
:1012A0007D25CF93DF931F921F92CDB7DEB71A82B1
:1012B000198260E070E08091FA0A9091FB0A79D37C
:1012C0008091D715813031F40E94AB20CE01019678
:1012D0000E9494280F900F90DF91CF910895089568
:1012E00008959B01AC0160E870E088E79AE00E94F5
:1012F000813A88E79AE00C94EE32CF93DF93CDB732
:10130000DEB7FE01369681919191BF01EADFDF9150
:10131000CF910895CF93DF9300D000D0CDB7DEB743
:101320004B835C836D837E8389839A8334D04B8126
:101330005C81BA0189819A8140D026960FB6F894D3
:10134000DEBF0FBECDBFDF91CF910C94112C20E0FA
:10135000AC0160E070E06BBFFA0147915691411516
:10136000510529F0840F951F03962F5FF1CF822F2F
:101370000895262F222369F0AC0160E070E06BBF76
:10138000FA01479156914D5F5F4F840F951F215091
:10139000F1CF03960895A3CFCF93DF930E94EC3251
:1013A000DC01CB019C01AD0160E070E080E090E0E9
:1013B000DF91CF9108950C94ED329093130B8093AD
:1013C000120B7093110B6093100B1092090B10927B
:1013D000080B10920B0B10920A0B10920D0B10922F
:1013E0000C0B10920F0B10920E0B9093070B809327
:1013F000060B860F971F9093050B8093040B08959F
:10140000FC0136972081269526953181432F429500
:10141000440F440F407C842F822B932F96959695F2
:101420008E0F9F1F2091060B3091070B281739074D
:1014300029F4F093070BE093060B089514820895A6
:101440008091100B9091110B08958091040B909155
:10145000050B2091060B3091070B821B930B08950F
:10146000E8E0FBE020E030E041915191452B41F470
:10147000F901EE0FFF1FE85FF44F91838083089519
:101480002F5F3F4F2430310579F76AE070E080E04C
:1014900090E0A4C2E8E0FBE080E090E0219131918F
:1014A000232B09F001962BE0E031F207B9F70895FC
:1014B000E8E0FBE0208131812817390711F411821F
:1014C000108232962BE0E031F207A1F708950F93D6
:1014D0001F93CF93DF93E091120BF091130BA09128
:1014E000060BB091070BAC01460F571F11E0EA172E
:1014F000FB0700F5248130E08217930720F42417BE
:10150000350708F414834217530718F42481261B67
:101510002483C081C695C695D1810D2F0295000FF9
:10152000000F007C202F2C2B3D2F36953695E20F97
:10153000F31FDDCFDF91CF911F910F91089580911F
:10154000120B9091130B0895FC014081469546952E
:101550005181652F6295660F660F607C262F242BC4
:10156000352F36953695280F391F8091060B9091AF
:10157000070B2817390718F080E090E00895C9019B
:101580000895CF92DF92EF92FF920F931F93CF9324
:10159000DF93E091120BF091130B2091060B309129
:1015A000070BC12CD12C7601E217F30738F58481A3
:1015B00050814181811111C0742F7295770F770F7F
:1015C000707C652F66956695872F862B942F969550
:1015D0009695C80ED91EE11CF11CD382C282569585
:1015E0005695642F6295660F660F607C862F852B5B
:1015F000942F96959695E80FF91FD6CFE8E0FBE07B
:10160000A191B191109781F08D919C9111970097C4
:1016100039F0EC0126972A813B81821B930B02C093
:1016200080E090E08D939C932BE0E031F20741F74E
:1016300060E070E08091FE0A9091FF0ABAD1C091FB
:10164000120BD091130B8091060B9091070BC817CA
:10165000D907F0F48881869586959981292F22955E
:10166000220F220F207C022F082B192F169516957A
:101670008C81882351F08A819B81A801BE019E0143
:10168000281B390BC9010E942D3AC00FD11FDBCF97
:101690008C199D099093070B8093060BDF91CF91D6
:1016A0001F910F91FF90EF90DF90CF9008950F93CF
:1016B0001F93CF93DF93E091120BF091130B2091C6
:1016C000060B3091070BE217F307D0F484818630C4
:1016D00010F482E001C080E040814C7F482B4083C1
:1016E000469546955181652F6295660F660F607C21
:1016F000862F842B952F96959695E80FF91FE3CFAB
:1017000060E070E08091020B9091030B52D1E8E011
:10171000FBE0A191B191109769F00D90BC91A02DC3
:10172000109741F016978C91982F937019F48C7F35
:1017300081608C938BE0E031F80759F7C091120B70
:10174000D091130B00E010E02091060B3091070BB5
:10175000C217D307E8F488818370813041F4BE0159
:101760008091000B9091010B24D10F5F1F4F2881B6
:10177000269526953981432F4295440F440F407C8E
:10178000842F822B932F96959695C80FD91FDCCF67
:10179000012BA1F6E091120BF091130BE217F30766
:1017A000B0F44081842F837009F41482542F56952D
:1017B00056954181642F6295660F660F607C862F77
:1017C000852B942F96959695E80FF91FE7CFD9DED4
:1017D00060E070E08091FC0A9091FD0ADF91CF916A
:1017E0001F910F91E6C00F931F93CF93DF931F922A
:1017F000CDB7DEB780FD01968C010A5F1F4F809147
:10180000040B9091050B2091060B3091070B821B66
:10181000930B8017910718F4698349DF6981E09180
:10182000060BF091070B8091040B9091050B8E1B1A
:101830009F0B80179107D8F0902F990F990F8081F7
:101840008370892B8083912F990F990F802F829518
:10185000869586958370892B818364830E0F1F1F65
:101860001093070B0093060BCF01069602C080E091
:1018700090E00F90DF91CF911F910F910895BF924B
:10188000CF92DF92EF92FF920F931F93CF93DF934C
:1018900000D01F921F92CDB7DEB70091120B1091AE
:1018A000130B38EDE32E34E0F32E45E0B42ECE01D9
:1018B00001966C018091060B9091070B0817190790
:1018C00038F5F8018481893078F01F928F93FF9268
:1018D000EF921F92BF92DF92CF920E94453A0FB6CD
:1018E000F894DEBF0FBECDBFF80120812695269566
:1018F0003181432F4295440F440F407C842F822B2B
:10190000932F96959695009719F0080F191FD2CF2F
:101910000F900F900F900F900F90DF91CF911F912C
:101920000F91FF90EF90DF90CF90BF900895CF93ED
:10193000DF93DC019C9111968C911197E92FF82F80
:10194000309779F1E617F70741F51092D615109206
:10195000D515CEEDD4E02091D5153091D6158091D6
:10196000D30D9091D40D281739077CF4DF93CF93D2
:10197000C4DC8091D5159091D61501969093D6151B
:101980008093D5150F900F90E6CF82EE94E09F9351
:101990008F93B3DC0F900F9009C00280F381E02D8C
:1019A000CFCFFB01928383836D937C93DF91CF91A3
:1019B00008950F931F93CF93DF93EC018B01209732
:1019C00041F0E881F981C80119950A80DB81C02DB9
:1019D000F6CFDF91CF911F910F910895CF93DF93B1
:1019E00000D01F92CDB7DEB7FB013397E830F10589
:1019F00008F045C1EE58FF4F1092D6151092D5153C
:101A00000EED14E00C94D5394091D5155091D615B2
:101A10002091D30D3091D40D42175307C4F41F9376
:101A20000F9369837A838B839C8367DC2091D51520
:101A30003091D6152F5F3F4F3093D6152093D51593
:101A40000F900F909C818B817A816981DDCF25E099
:101A500035E025C04091D5155091D6152091D30D74
:101A60003091D40D42175307C4F41F930F93698329
:101A70007A838B839C8341DC2091D5153091D615D8
:101A80002F5F3F4F3093D6152093D5150F900F90B1
:101A90009C818B817A816981DDCF2CE135E03F9398
:101AA0002F9369837A838B839C8327DC0F900F901D
:101AB00069817A8122C14091D5155091D615209126
:101AC000D30D3091D40D42175307C4F41F930F93D5
:101AD00069837A838B839C8310DC2091D5153091A8
:101AE000D6152F5F3F4F3093D6152093D5150F9005
:101AF0000F909C818B817A816981DDCF2CE335E069
:101B0000CECF4091D5155091D6152091D30D30915F
:101B1000D40D42175307C4F41F930F9369837A833C
:101B20008B839C83EADB2091D5153091D6152F5FEE
:101B30003F4F3093D6152093D5150F900F909C8171
:101B40008B817A816981DDCF2BE535E0A8CF40918B
:101B5000D5155091D6152091D30D3091D40D421743
:101B60005307C4F41F930F9369837A838B839C83F9
:101B7000C4DB2091D5153091D6152F5F3F4F3093A0
:101B8000D6152093D5150F900F909C818B817A816B
:101B90006981DDCF27E735E082CF4091D51550919F
:101BA000D6152091D30D3091D40D42175307C4F4AC
:101BB0001F930F9369837A838B839C839EDB209191
:101BC000D5153091D6152F5F3F4F3093D615209302
:101BD000D5150F900F909C818B817A816981DDCF23
:101BE00021E935E05CCF4091D5155091D615209173
:101BF000D30D3091D40D42175307C4F41F930F93A4
:101C000069837A838B839C8378DB2091D51530910F
:101C1000D6152F5F3F4F3093D6152093D5150F90D3
:101C20000F909C818B817A816981DDCF2DEA35E02F
:101C300036CF4091D5155091D6152091D30D3091C6
:101C4000D40D42175307C4F41F930F9369837A830B
:101C50008B839C8352DB2091D5153091D6152F5F55
:101C60003F4F3093D6152093D5150F900F909C8140
:101C70008B817A816981DDCF27EC35E010CF10921E
:101C8000D6151092D5150EED14E04091D515509152
:101C9000D6152091D30D3091D40D42175307C4F4BB
:101CA0001F930F9369837A838B839C8326DB209118
:101CB000D5153091D6152F5F3F4F3093D615209311
:101CC000D5150F900F909C818B817A816981DDCF32
:101CD0009F938F937F936F9326EE35E03F932F93DF
:101CE00069837A838B839C8308DB0F900F900F901E
:101CF0000F900F900F907A8169812091D715233032
:101D000050F46093D71560E070E08091FA0A9091EA
:101D1000FB0A4FDEF8CFCB010E94843D80912B0B54
:101D200008952F923F924F925F926F927F928F927F
:101D30009F92AF92BF92CF92DF92EF92FF920F935A
:101D40001F93CF93DF93CDB7DEB72B970FB6F894E1
:101D5000DEBF0FBECDBF60E070E082E00E94723354
:101D60008823C9F3FF24F39485E0E82E1E0188E060
:101D7000280E311C0EED14E096E1492E97E0592E05
:101D80002FE6A22E26E0B22E38E3832E36E0932EE5
:101D900045E0642E46E0742E60E070E082E00E9430
:101DA0007233882309F4B6C182E00E945D339091BA
:101DB00008029111A3C0863039F4F0920802F09223
:101DC0000102F092280BE8CF853161F58091010284
:101DD000803819F0880F809301021092D615109266
:101DE000D5152091D5153091D6158091D30D9091B0
:101DF000D40D281739077CF41F930F937EDA809156
:101E0000D5159091D61501969093D6158093D5153A
:101E10000F900F90E6CF809101021F928F937F92D7
:101E20006F922DC08831D9F580910102803819F068
:101E3000880F809301021092D6151092D51520912B
:101E4000D5153091D6158091D30D9091D40D2817CA
:101E500039077CF41F930F9350DA8091D515909138
:101E6000D61501969093D6158093D5150F900F90A7
:101E7000E6CF809101021F928F939F928F923DDA5D
:101E80006091010270E080E090E095DAF092080243
:101E90001092280B0F900F900F900F907DCF8130F4
:101EA00031F482E0809308021092101675CF1092E0
:101EB000D6151092D5154091D5155091D615209173
:101EC000D30D3091D40D4217530794F41F930F9301
:101ED0008B8713DA2091D5153091D6152F5F3F4FA0
:101EE0003093D6152093D5150F900F908B85E3CFA7
:101EF0001F928F93BF92AF9200DACCCF913009F04E
:101F000055C0813071F2883131F51092D61510929A
:101F1000D5152091D5153091D6158091D30D90917E
:101F2000D40D281739077CF41F930F93E6D98091BD
:101F3000D5159091D61501969093D6158093D51509
:101F40000F900F90E6CFA9E9B6E0BF93AF93D5D934
:101F50001092080228C0863009F01ECF1092D615C4
:101F60001092D5152091D5153091D6158091D30DAD
:101F70009091D40D281739077CF41F930F93BDD986
:101F80008091D5159091D61501969093D615809392
:101F9000D5150F900F90E6CFABEDB6E0BF93AF93A2
:101FA000ACD9F092280B0F900F90F6CE923029F416
:101FB00083508093101683E024C0933021F48093E3
:101FC0000A1684E01EC0943041F48093111686E016
:101FD000809308021092DA15DFCE9630A9F4E091D2
:101FE000DA1591E09E0F9093DA15F0E0E552FA4E83
:101FF0008083809110168150809310168111CCCE71
:1020000087E080930802C8CE973009F0C5CE66E01D
:1020100082E00E94F232F092080280910A16811149
:1020200017C080911116833141F48091DC1590E046
:102030009093270B8093260B0BC0843049F440917A
:10204000DA1544506FED75E18091DC150E94901B0C
:1020500080911116803271F580912A0B811107C091
:102060008091DF1580932B0BF0922A0B23C01092E6
:10207000D6151092D5152091D5153091D615809191
:10208000D30D9091D40D281739077CF41F930F932B
:1020900034D98091D5159091D61501969093D61587
:1020A0008093D5150F900F90E6CF5F924F9225D970
:1020B0000F900F9090911116903509F06DCE809190
:1020C000DC15813019F48093250B66CE863009F03B
:1020D00063CEF982EA821B829C831D8280910F1657
:1020E0008E839AEA98279F838F5F80930F16CE0185
:1020F00001966C01D6016D916D0182E00E94F23271
:10210000C214D304B9F71092210B1092250B109230
:10211000240B42CE2B960FB6F894DEBF0FBECDBF78
:10212000DF91CF911F910F91FF90EF90DF90CF90B3
:10213000BF90AF909F908F907F906F905F904F90E7
:102140003F902F900895EF92FF920F931F93CF939C
:10215000DF93CDB7DEB72A970FB6F894DEBF0FBE78
:10216000CDBF81E0898384E08A831B8282E48C83F3
:1021700080910F168D8399EB98279E838F5F8093B4
:102180000F168E010F5F1F4F7E0188E0E80EF11CD5
:10219000F80161918F0182E00E94F2320E151F0555
:1021A000B9F71092240B2A960FB6F894DEBF0FBE33
:1021B000CDBFDF91CF911F910F91FF90EF900895C8
:1021C000BF92CF92DF92EF92FF920F931F93CF9324
:1021D000DF93CDB7DEB72A970FB6F894DEBF0FBEF8
:1021E000CDBFD82EC62EB42E81E0898388E08A83A5
:1021F0001B8283E08C83DD826E834F8318868091FF
:102200000F16898794EF9827942796279D259A87FC
:102210008F5F80930F168E010F5F1F4F7E018BE043
:10222000E80EF11CF80161918F0182E00E94F23208
:102230000E151F05B9F71092240B1092D6151092A7
:10224000D5150EED14E0E091D515F091D61520913D
:10225000D30D3091D40DE217F30784F41F930F933D
:102260004CD82091D5153091D6152F5F3F4F309324
:10227000D6152093D5150F900F90E5CF1F92BF92E2
:102280001F92CF921F92DF9284E497E09F938F93E7
:1022900034D80FB6F894DEBF0FBECDBF2A960FB666
:1022A000F894DEBF0FBECDBFDF91CF911F910F918C
:1022B000FF90EF90DF90CF90BF9008952F923F92C4
:1022C0004F925F926F927F928F929F92AF92BF9246
:1022D000CF92DF92EF92FF920F931F93CF93DF93F2
:1022E000CDB7DEB72A970FB6F894DEBF0FBECDBFCD
:1022F0008091210B882329F14FD8C0900B16D090E4
:102300000C16E0900D16F0900E16160127015601DE
:102310006201E12CF12C00E010E00E94063A203D21
:10232000374041055105610571058105910509F0A9
:1023300008F47EC01092D6151092D5150EED14E05B
:102340002DC02AD820930B1630930C1640930D16EF
:1023500050930E1681E08093210B898395E09A8338
:102360001B8290E59C838D8380910F168E839BEA60
:1023700098279F838F5F80930F168E010F5F1F4FEB
:102380004E01F8E08F0E911CF80161918F0182E0FF
:102390000E94F23208151905B9F7AECF2091D51574
:1023A0003091D6158091D30D9091D40D281739070F
:1023B00084F41F930F930E947D098091D51590910D
:1023C000D61501969093D6158093D5150F900F9042
:1023D000E5CF85E697E09F938F930E947D0981E08A
:1023E000898385E08A831B8280E58C831D828091AE
:1023F0000F168E839AEA98279F838F5F80930F161C
:102400008E010F5F1F4F4E01F8E08F0E911C0F9051
:102410000F90F80161918F0182E00E94F23208155D
:102420001905B9F71092210B1092250B1092240B6D
:102430002A960FB6F894DEBF0FBECDBFDF91CF91C5
:102440001F910F91FF90EF90DF90CF90BF90AF90D2
:102450009F908F907F906F905F904F903F902F90C4
:1024600008958091240B882321F08091210B8823EB
:1024700091F1C5D78091220B882369F18091150BCA
:102480009091160BA091170BB091180B4091190B5E
:1024900050911A0B60911B0B70911C0B841B950BB8
:1024A000A60BB70B88389341A105B10578F480914C
:1024B000210B882349F010920B1610920C161092E3
:1024C0000D1610920E1605C081E001C082E08093C7
:1024D000240B1092220B8091240B813011F4EEDE3C
:1024E00005C0823019F42FDE1092240B8091210B4D
:1024F0008111E4DE60E070E082E00E9472338823A4
:1025000019F081E090E00DCC08952F923F924F9208
:102510005F926F927F928F929F92AF92BF92CF9273
:10252000DF92EF92FF920F931F93CF93DF931F924F
:10253000CDB7DEB78C016B01E5E0EE2EF12CFFE6A6
:102540002F2EF7E03F2E44244394460E842D809591
:1025500089834B019FEF891A990AA7EE6A2EA7E09B
:102560007A2E60E070E082E00E947233882319F0D6
:1025700080E090E0D6DB80910802813009F45CC0F5
:102580001092D6151092D5152091D5153091D615EB
:102590008091D30D9091D40D2817390794F4AEEDA6
:1025A000B4E0BF93AF930E947D098091D5159091BF
:1025B000D61501969093D6158093D5150F900F9050
:1025C000E3CF809108021F928F933F922F920E9437
:1025D0007D091092D6151092D5150F900F900F907F
:1025E0000F902091D5153091D6158091D30D9091F3
:1025F000D40D2817390794F4AEEDB4E0BF93AF9330
:102600000E947D098091D5159091D61501969093E1
:10261000D6158093D5150F900F90E3CFA4EAB7E0BD
:10262000BF93AF930E947D0964E670E080E090E084
:102630000E94DB090F900F9061E082E00E94F2326D
:10264000642D82E00E94F23259805801C501801B3E
:10265000910B8C159D0544F4D5016D915D015626B5
:1026600082E00E94F232F2CF652D82E00E94F232C7
:102670001092D6151092D5152091D5153091D615FA
:102680008091D30D9091D40D2817390794F4AEEDB5
:10269000B4E0BF93AF930E947D098091D5159091CE
:1026A000D61501969093D6158093D5150F900F905F
:1026B000E3CF9F928F92AAEDB7E0BF93AF930E94B2
:1026C0007D090F900F900F900F905801C501801B4E
:1026D000910B1092D6151092D5158C159D056CF5A1
:1026E0002091D5153091D6158091D30D9091D40DB0
:1026F0002817390794F4AEEDB4E0BF93AF930E946E
:102700007D098091D5159091D61501969093D61597
:102710008093D5150F900F90E3CFD5018D915D017A
:102720001F928F93A3EEB7E0BF93AF930E947D09F2
:102730000F900F900F900F90C9CF2091D515309129
:10274000D6158091D30D9091D40D2817390794F4A4
:10275000AEEDB4E0BF93AF930E947D098091D51593
:102760009091D61501969093D6158093D5150F901C
:102770000F90E3CF1F925F927F926F920E947D092C
:10278000109208021092280B68EE73E082E00E941B
:1027900072330F900F900F900F908823D9F161DE64
:1027A0008091280B813009F44FC11092D6151092F8
:1027B000D5152091D5153091D6158091D30D9091D6
:1027C000D40D2817390794F4AEEDB4E0BF93AF935E
:1027D0000E947D098091D5159091D6150196909310
:1027E000D6158093D5150F900F90E3CF8091280BCD
:1027F0001F928F93809108021F928F93AFEEB7E0E4
:10280000BF93AF930E947D090F900F900F900F9090
:102810000F900F908091080281112CC081E080936D
:1028200008021092D6151092D5152091D515309129
:10283000D6158091D30D9091D40D2817390794F4B3
:10284000AEEDB4E0BF93AF930E947D098091D515A2
:102850009091D61501969093D6158093D5150F902B
:102860000F90E3CF82E198E09F938F930E947D09C0
:102870000F900F90F1E0EF1AF1081092D615109218
:10288000D5158FEFE816F80609F0B4C07EEDE72EF7
:1028900074E0F72E2091D5153091D6158091D30D87
:1028A0009091D40D2817390784F4FF92EF920E947B
:1028B0007D098091D5159091D61501969093D615E6
:1028C0008093D5150F900F90E5CF8BE298E09F9302
:1028D0008F930E947D090F900F9048015EEDE52EC9
:1028E00054E0F52E63EEA62E67E0B62EC401801BE1
:1028F000910B1092D6151092D5158C159D054CF59F
:102900002091D5153091D6158091D30D9091D40D8D
:102910002817390784F4FF92EF920E947D09809175
:10292000D5159091D61501969093D6158093D5150F
:102930000F900F90E5CFD4018D914D011F928F9391
:10294000BF92AF920E947D090F900F900F900F9051
:10295000CDCF0EED14E02091D5153091D615809194
:10296000D30D9091D40D2817390784F41F930F933A
:102970000E947D098091D5159091D615019690936E
:10298000D6158093D5150F900F90E5CF87E498E08A
:102990009F938F930E947D091092D6151092D515A2
:1029A0000F900F900EED14E02091D5153091D615B3
:1029B0008091D30D9091D40D2817390784F41F937B
:1029C0000F930E947D098091D5159091D61501969F
:1029D0009093D6158093D5150F900F90E5CF8FE388
:1029E00098E09F938F930E947D090F900F908FEF37
:1029F0009FEF2CC02091D5153091D6158091D30D25
:102A00009091D40D2817390794F4AEEDB4E0BF933C
:102A1000AF930E947D098091D5159091D6150196AE
:102A20009093D6158093D5150F900F90E3CFFF921A
:102A3000EF9289E498E09F938F930E947D090F9015
:102A40000F900F900F908DCD80E090E00F90DF9170
:102A5000CF911F910F91FF90EF90DF90CF90BF909B
:102A6000AF909F908F907F906F905F904F903F902E
:102A70002F900895FF920F931F93CF93DF9300D071
:102A80001F92CDB7DEB740E052EC61E070E082E02B
:102A90000E94133394D41092D6151092D5150EEDD2
:102AA00014E02091D5153091D6158091D30D9091D9
:102AB000D40D2817390784F41F930F930E947D09C2
:102AC0008091D5159091D61501969093D615809347
:102AD000D5150F900F90E5CF8DE698E09F938F93DB
:102AE0000E947D0965E182E00E94F2321092D615C3
:102AF0001092D5150F900F900EED14E02091D51582
:102B00003091D6158091D30D9091D40D28173907A7
:102B100084F41F930F930E947D098091D5159091A5
:102B2000D61501969093D6158093D5150F900F90DA
:102B3000E5CF8AE798E09F938F930E947D090F90DD
:102B40000F9066E970E082E00E947233882321F0E2
:102B500082E00E945D33F5CF8AE280930F1681E018
:102B6000809308021B8280E28C837BDC1092D61556
:102B70001092D5150EED14E02091D5153091D61593
:102B80008091D30D9091D40D2817390784F41F93A9
:102B90000F930E947D098091D5159091D6150196CD
:102BA0009093D6158093D5150F900F90E5CF8EE8B2
:102BB00098E09F938F930E947D090F900F9000E003
:102BC0001AE0B8E0FB2E80912A0B81111DC0809184
:102BD0002A0B811112C0112309F45AC062E070E07F
:102BE000CE01039692DC66E970E082E00E947233C7
:102BF000811137DC1150EBCF1AE080912B0B801341
:102C000010922A0B082FDFCF1092D6151092D515EF
:102C10000EED14E02091D5153091D6158091D30D8D
:102C20009091D40D2817390784F41F930F930E94B5
:102C30007D098091D5159091D61501969093D61562
:102C40008093D5150F900F90E5CF80912B0B1F929D
:102C50008F9388EA98E09F938F930E947D096091FB
:102C6000000270E080E090E00E94DB0940E06FEF3E
:102C700080E0A6DA0F900F900F900F900F900F90BA
:102C80000F900F90DF91CF911F910F91FF900895BA
:102C90001982FA8262E070E0CE01019636DC66E9C4
:102CA00070E082E00E947233882309F4A5CF82E0AD
:102CB0000E945D33F4CFEF92FF920F931F93CF9357
:102CC000DF93CDB7DEB7E2970FB6F894DEBF0FBE45
:102CD000CDBFEFEFFFEFF093270BE093260B1982A8
:102CE00093E19A838B8381E0840F8C8388E88D83C2
:102CF000FE013696DB011E2F3F2F50E0CD01861BD3
:102D0000970B841795071CF48D918193F7CFE12FD2
:102D1000F32FE40FF51F208380910F1691E0980F99
:102D200090930F16FE01E40FF51F8783BA01695FC8
:102D30007F4FCE010196E9DB8C01009709F04DC071
:102D400089EEE82E83E0F82E8091260B9091270BD8
:102D50008F3F2FEF920771F481E0E81AF108E11438
:102D6000F10451F07EDB61E070E080E090E00E94D1
:102D7000DB09EACF892B99F11092D6151092D5155F
:102D80000EED14E02091D5153091D6158091D30D1C
:102D90009091D40D2817390784F41F930F930E9444
:102DA0007D098091D5159091D61501969093D615F1
:102DB0008093D5150F900F90E5CF8091270B8F93BF
:102DC0008091260B8F938EEB98E09F938F930E94B8
:102DD0007D090F900F900F900F900FEF1FEFC8011C
:102DE000E2960FB6F894DEBF0FBECDBFDF91CF9154
:102DF0001F910F91FF90EF9008958F929F92AF9245
:102E0000BF92CF92DF92EF92FF920F931F93CF93D7
:102E1000DF93882EEB01942E1092D6151092D515C3
:102E20000EED14E02091D5153091D6158091D30D7B
:102E30009091D40D2817390784F41F930F930E94A3
:102E40007D098091D5159091D61501969093D61550
:102E50008093D5150F900F90E5CFE92CF12C1F92A0
:102E60008F921F929F928FEF98E09F938F930E9473
:102E70007D090F900F900F900F900F900F908E0183
:102E80003EEDC32E34E0D32E41E6A42E47E0B42E0F
:102E9000C8018C1B9D0B1092D6151092D5158E155E
:102EA0009F054CF52091D5153091D6158091D30D05
:102EB0009091D40D2817390784F4DF92CF920E94A5
:102EC0007D098091D5159091D61501969093D615D0
:102ED0008093D5150F900F90E5CFF80181918F0168
:102EE0001F928F93BF92AF920E947D090F900F9017
:102EF0000F900F90CDCF0EED14E02091D5153091AD
:102F0000D6158091D30D9091D40D2817390784F4EC
:102F10001F930F930E947D098091D5159091D6152E
:102F200001969093D6158093D5150F900F90E5CF0D
:102F300087E498E09F938F930E947D091092D615A5
:102F40001092D5150F900F900EED14E02091D5152D
:102F50003091D6158091D30D9091D40D2817390753
:102F600084F41F930F930E947D098091D515909151
:102F7000D61501969093D6158093D5150F900F9086
:102F8000E5CF1F928F921F929F9288E199E09F93C5
:102F90008F930E947D090F900F900F900F900F90CC
:102FA0000F908E019EEDC92E94E0D92E2DE2A22E17
:102FB00029E0B22EC8018C1B9D0B8E159F056CF568
:102FC0001092D6151092D5152091D5153091D615A1
:102FD0008091D30D9091D40D2817390784F4DF9296
:102FE000CF920E947D098091D5159091D6150196BA
:102FF0009093D6158093D5150F900F90E5CFF801DB
:1030000081918F011F928F93BF92AF920E947D0991
:103010000F900F900F900F90CDCF25E0492DBE015E
:10302000882D49DEDF91CF911F910F91FF90EF9096
:10303000DF90CF90BF90AF909F908F900895EF92C8
:10304000FF920F931F93CF93DF93CDB7DEB7E29735
:103050000FB6F894DEBF0FBECDBFEFEFFFEFF093DA
:10306000270BE093260B198293E19A838B834C8381
:10307000FE013596DB011E2F3F2F50E0CD01861B50
:10308000970B841795071CF48D918193F7CFE12F4F
:10309000F32FE40FF51F208380910F1691E0980F16
:1030A00090930F16FE01E40FF51F8683BA016A5F45
:1030B0007F4FCE01019629DA8C01009709F04DC0AF
:1030C00059EEE52E53E0F52E8091260B9091270BBB
:1030D0008F3F2FEF920771F481E0E81AF108E114B5
:1030E000F10451F0BED961E070E080E090E00E9410
:1030F000DB09EACF892B99F11092D6151092D515DC
:103100000EED14E02091D5153091D6158091D30D98
:103110009091D40D2817390784F41F930F930E94C0
:103120007D098091D5159091D61501969093D6156D
:103130008093D5150F900F90E5CF8091270B8F933B
:103140008091260B8F938EEB98E09F938F930E9434
:103150007D090F900F900F900F900FEF1FEFC80198
:10316000E2960FB6F894DEBF0FBECDBFDF91CF91D0
:103170001F910F91FF90EF9008958F929F92AF92C1
:10318000BF92CF92DF92EF92FF920F931F93CF9354
:10319000DF93882EEB01942E1092D6151092D51540
:1031A0000EED14E02091D5153091D6158091D30DF8
:1031B0009091D40D2817390784F41F930F930E9420
:1031C0007D098091D5159091D61501969093D615CD
:1031D0008093D5150F900F90E5CFE92CF12C1F921D
:1031E0008F921F929F928FEF98E09F938F930E94F0
:1031F0007D090F900F900F900F900F900F908E0100
:10320000EEEDCE2EE4E0DE2EF1E6AF2EF7E0BF2E9F
:10321000C8018C1B9D0B1092D6151092D5158E15DA
:103220009F054CF52091D5153091D6158091D30D81
:103230009091D40D2817390784F4DF92CF920E9421
:103240007D098091D5159091D61501969093D6154C
:103250008093D5150F900F90E5CFF80181918F01E4
:103260001F928F93BF92AF920E947D090F900F9093
:103270000F900F90CDCF0EED14E02091D515309129
:10328000D6158091D30D9091D40D2817390784F469
:103290001F930F930E947D098091D5159091D615AB
:1032A00001969093D6158093D5150F900F90E5CF8A
:1032B00087E498E09F938F930E947D091092D61522
:1032C0001092D5150F900F900EED14E02091D515AA
:1032D0003091D6158091D30D9091D40D28173907D0
:1032E00084F41F930F930E947D098091D5159091CE
:1032F000D61501969093D6158093D5150F900F9003
:10330000E5CF1F928F921F929F9288E199E09F9341
:103310008F930E947D090F900F900F900F900F9048
:103320000F908E016EEDC62E64E0D62E7DE2A72EA4
:1033300079E0B72EC8018C1B9D0B8E159F056CF58F
:103340001092D6151092D5152091D5153091D6151D
:103350008091D30D9091D40D2817390784F4DF9212
:10336000CF920E947D098091D5159091D615019636
:103370009093D6158093D5150F900F90E5CFF80157
:1033800081918F011F928F93BF92AF920E947D090E
:103390000F900F900F900F90CDCF25E0492DBE01DB
:1033A000882D4DDEDF91CF911F910F91FF90EF900F
:1033B000DF90CF90BF90AF909F908F900895CF9364
:1033C000DF936C98749A9D98A59AC8E0D1E08FE03D
:1033D0008883E7E0F1E080818068808388818F774F
:1033E000888364E670E080E090E00E94DB098881D9
:1033F000806888830998119ADF91CF9108952F9260
:103400003F924F925F926F927F928F929F92AF9274
:10341000BF92CF92DF92EF92FF920F931F93CF93C1
:10342000DF934091340B5091350B6091360B7091C6
:10343000370B8091300B9091310BA091320BB091F2
:10344000330B452B462B472B09F06BC00097A1058A
:10345000B10509F066C095991CC00E94CC09209363
:10346000340B3093350B4093360B5093370B0E943F
:10347000CC092093190B30931A0B40931B0B5093DC
:103480001C0B81E08093230B809108018E7F809339
:1034900008016499FEC00E94CC092093300B309340
:1034A000310B4093320B5093330B0E94CC09209385
:1034B000190B30931A0B40931B0B50931C0B81E09C
:1034C0008093230B809108018E7F809308011092D6
:1034D000D6151092D515CEEDD4E02091D5153091AA
:1034E000D6158091D30D9091D40D2817390784F407
:1034F000DF93CF930E947D098091D5159091D615C9
:1035000001969093D6158093D5150F900F90E5CF27
:1035100083E399E09F938F930E947D090F900F9012
:10352000B8C0892B8A2B8B2B09F470C0649BB1C067
:103530000E94CC09C090300BD090310BE090320B40
:10354000F090330BE4E6CE0ED11CE11CF11C160109
:10355000270156016201E12CF12C00E010E00E94ED
:103560000F3A09F008F447C0C1E0C093220B0E9453
:10357000CC092093150B3093160B4093170B5093E7
:10358000180B1092230BC093220B20932C0B30931B
:103590002D0B40932E0B50932F0B809108018E7FA3
:1035A000809308011092D6151092D515CEEDD4E077
:1035B0002091D5153091D6158091D30D9091D40DD1
:1035C0002817390784F4DF93CF930E947D098091F7
:1035D000D5159091D61501969093D6158093D51553
:1035E0000F900F90E5CF8AE399E09F938F930E940D
:1035F0007D090F900F901092300B1092310B1092AA
:10360000320B1092330B1092230B43C0959B41C099
:103610000E94CC09C090340BD090350BE090360B53
:10362000F090370BE4E6CE0ED11CE11CF11C160124
:10363000270156016201E12CF12C00E010E00E940C
:103640000F3A39F130F1C1E0C093220B0E94CC094E
:103650002093150B3093160B4093170B5093180BB8
:103660001092340B1092350B1092360B1092370BD0
:103670001092230BC093220B20932C0B30932D0B15
:1036800040932E0B50932F0B809108018E7F8093D7
:10369000080180912C0B90912D0BA0912E0BB091D5
:1036A0002F0B892B8A2B8B2B19F10E94CC09C090F0
:1036B0002C0BD0902D0BE0902E0BF0902F0B1601C1
:1036C000270156016201E12CF12C00E010E00E947C
:1036D0000F3A71F068F080910801816080930801D1
:1036E00010922C0B10922D0B10922E0B10922F0B70
:1036F000DF91CF911F910F91FF90EF90DF90CF90CE
:10370000BF90AF909F908F907F906F905F904F9001
:103710003F902F900895089590E008956ECB2DCDA1
:1037200090E0CCC00E948E0E90E00895A3C90C9446
:103730003112F5DF90E00895EF92FF920F931F93FF
:10374000CF93DF93CDB7DEB7AC970FB6F894DEBF5B
:103750000FBECDBF7C01CA012932A8F469830A8358
:103760001B83422F50E0BC01CE0104962CA70E947F
:10377000243A2CA543E0420FBE016F5F7F4FC70183
:10378000CDDF90E002C083E090E0AC960FB6F894F5
:10379000DEBF0FBECDBFDF91CF911F910F91FF9084
:1037A000EF9008950F931F9300913A0B10913B0BEC
:1037B0000F5F1F4F10933B0B00933A0BBDDF1F9120
:1037C0000F9108950F931F93FC0102811381808153
:1037D0009181B2DF1F910F9108952F923F924F92E6
:1037E0005F926F927F928F929F92AF92BF92CF9291
:1037F000DF92EF92FF920F931F93CF93DF93180105
:10380000E501F0921316E0921216C0921A16109269
:103810001F1600913A0B10913B0B0F5F1F4F109337
:103820003B0B00933A0B109315160093141684DF8C
:10383000882321F0992787FD90952DC00E94CC09FF
:103840005101C12CD12CE12CF12C00E010E00E94A0
:10385000FD3919012A013B014C0169DF80911F16D6
:10386000882349F08BE196E19983888310921A1698
:1038700080E090E010C00E94CC0959016A017B01F0
:103880008C019101A201B301C4010E940F3A09F019
:1038900020F784E090E0DF91CF911F910F91FF908E
:1038A000EF90DF90CF90BF90AF909F908F907F90E0
:1038B0006F905F904F903F902F900895CF93DF933C
:1038C000CDB7DEB728970FB6F894DEBF0FBECDBFD9
:1038D000FB0150E0242F30E0652F772767FD7095BE
:1038E0006217730714F45F5FF7CF9A83898350815F
:1038F0005D83828190E0982F88272181820F911D1E
:103900009C838B833396FF83EE83435048872091BB
:103910001A16211112C0BE016F5F7F4F8091380BC4
:103920009091390B0E94D90C28960FB6F894DEBFFF
:103930000FBECDBFDF91CF91089520913A0B30910A
:103940003B0B8217930739F780E090E048E0209125
:103950001A1630E082179307F4F6E0911216F091F0
:103960001316E80FF91F208152130BC0FE01319688
:10397000ABE1B6E1242F01900D922A95E1F7109268
:103980001A160196E4CFD3CECDCE6F927F929F923E
:10399000AF92BF92CF92DF92EF92FF920F931F935D
:1039A000CF93DF93982E6B01C0E0D0E080913C0B69
:1039B00090913D0BC817D90708F05CC05E01AA0CB6
:1039C000BB1C00E010E0E12CF12C2091400B309169
:1039D000410BC90102968A0D9B1DA0E0B0E0ABBF70
:1039E000FC01A791B691AD01420F531F60E070E05A
:1039F0006BBFFA01479150E0E416F5060CF038C0B1
:103A00002D5F3F4F200F311F2A0F3B1FC901A0E040
:103A1000B0E0ABBFFC0167907690B6DF6816790620
:103A200009F52091400B3091410BC90102968A0D96
:103A30009B1DA0E0B0E0ABBFFC01879196912B5F8E
:103A40003F4F200F311F280F391FC901A0E0B0E000
:103A5000ABBFFC018791891105C0F601D183C083FA
:103A600081E009C0FFEFEF1AFF0A0D5F1F4FADCFD6
:103A700021969CCF80E0DF91CF911F910F91FF9015
:103A8000EF90DF90CF90BF90AF909F907F906F901E
:103A900008959F92AF92BF92CF92DF92EF92FF92E2
:103AA0000F931F93CF93DF9300D0CDB7DEB7962E41
:103AB000BE016F5F7F4F69DFA12CB12C00E010E0E9
:103AC00080913E0B90913F0B0817190708F071C0C9
:103AD0004091420B5091430B4A0D5B1DCA01079662
:103AE000A0E0B0E0ABBFFC01879189115CC0CA01C6
:103AF0000596A0E0B0E0ABBFFC01879196912981CB
:103B00003A818217930709F04EC06A0182E0C80E1D
:103B1000D11CE12CF12CEBBEF601C790D6904C5F86
:103B20005F4F60E070E06BBFFA0147912091400B5E
:103B30003091410BCC0CDD1CC90102968C0D9D1DF2
:103B4000A0E0B0E0ABBFFC01879196912D5F3F4FA5
:103B5000280F391FC901A0E0B0E0ABBFFC01E7901E
:103B6000F6904B8311DF4B81E816F906E1F0809166
:103B7000400B9091410B8C010E5F1F4F0C0D1D1DD2
:103B800020E030E02BBFF801079116910596800FD9
:103B9000911F8C0120E030E02BBFF8016791C70135
:103BA0000E94182E07C00F5F1F4F86E0A80EB11CA1
:103BB00087CF8FEF0F900F900F90DF91CF911F91D4
:103BC0000F91FF90EF90DF90CF90BF90AF909F90BC
:103BD00008952F923F924F925F926F927F928F92B1
:103BE0009F92AF92BF92CF92DF92EF92FF920F938C
:103BF0001F93CF93DF93CDB7DEB762970FB6F894DC
:103C0000DEBF0FBECDBF662E7A01DC0112968C900E
:103C1000BE016B5F7F4F882DB8DE882309F481C217
:103C2000BE016D5F7F4F882D0E94BC27EB81FC8118
:103C30000190F081E02D408051801F861E861D86F8
:103C40001C861B86E62DF0E0F98BE88B55248091CD
:103C50003E0B90913F0BAC85BD85A817B90708F0C6
:103C60005EC22091420B3091430B4E855F85240F3D
:103C7000351FC9010496A0E0B0E0ABBFFC018791FD
:103C8000861140C2C9010296A0E0B0E0ABBFFC01C2
:103C9000879196914D815E818417950709F032C214
:103CA000C9010596A0E0B0E0ABBFFC014791569179
:103CB000C9010796A0E0B0E0ABBFFC019790A090CF
:103CC000400BB090410BC5010296440F551F5A8717
:103CD0004987840F951FA0E0B0E0ABBFFC0187913E
:103CE00096915FEFA51AB50AA80EB91EC501A0E00E
:103CF000B0E0ABBFFC01A790B690212C312C188608
:103D00001F82BB24C090400BD090410BC60102968D
:103D1000A985BA858A0F9B1FA0E0B0E0ABBFFC016C
:103D200087919691AC014C0D5D1D60E070E06BBF1A
:103D3000FA01479150E0EF81F885E417F5070CF0A0
:103D4000E1C1A6014B5F5F4F420D531D480F591F44
:103D500060E070E06BBFFA0177900B811C81A3E0FB
:103D6000CA0ED11CC20CD31CC80ED91EC601A0E0BD
:103D7000B0E0ABBFFC01C790D69006DEC816D906EE
:103D800009F067C0BE016F5F7F4F872D0E94BC277F
:103D900081115DC01092D6151092D5152091D515C0
:103DA0003091D6158091D30D9091D40D28173907F5
:103DB00094F4AEEDB4E0BF93AF930E947D0980917F
:103DC000D5159091D61501969093D6158093D5155B
:103DD0000F900F90E3CFD70111968C9111978F938D
:103DE0008C918F931F929F921F927F921F926F923E
:103DF0001F928F92A0E4B9E0BF93AF930E947D0918
:103E0000D801ED91FC9128893989E20FF31F438590
:103E100050E04F730FB6F894DEBF0FBECDBF89815F
:103E20009A814130510531F4D7012C9141E0692D3F
:103E300011D7D7C0F70120813181452B21F441E012
:103E4000692DBDD6CEC041E0692D4CD7CAC080E0F7
:103E5000C8C01092D6151092D515F1E0CF16D10436
:103E600009F061C02091D5153091D6158091D30D00
:103E70009091D40D2817390794F4AEEDB4E0BF93B8
:103E8000AF930E947D098091D5159091D61501962A
:103E90009093D6158093D5150F900F90E3CFD7014F
:103EA00011968C9111978F938C918F931F929F9263
:103EB0001F927F921F92B1E0BF931F926F921F9249
:103EC0008F92A0E8B9E0BF93AF930E947D09D8011B
:103ED000ED91FC9128893989E20FF31F838590E0E9
:103EE0008F730FB6F894DEBF0FBECDBF8130910542
:103EF00049F4D7012C91482DB20181E090E00E9455
:103F0000D52D6FC0F70120813181482DB201892B59
:103F100029F481E090E00E94B42D63C081E090E03C
:103F20000E94F62D5EC02091D5153091D615809156
:103F3000D30D9091D40D2817390794F4AEEDB4E069
:103F4000BF93AF930E947D098091D5159091D615AE
:103F500001969093D6158093D5150F900F90E3CFCF
:103F6000D70111968C9111978F938C918F931F92FB
:103F70009F921F927F92DF92CF921F926F921F9219
:103F80008F92A6ECB9E0BF93AF930E947D09D80150
:103F9000ED91FC9128893989E20FF31F838590E028
:103FA0008F730FB6F894DEBF0FBECDBF8130910581
:103FB00049F4D7010C919501492D672DC6010E9446
:103FC0005F2D0FC0F701008111819501492D672DEB
:103FD000892B21F4C6010E94332D03C0C6010E9423
:103FE0008B2D1092D6151092D5154091D515509164
:103FF000D6152091D30D3091D40D42175307ACF450
:10400000AEEDB4E0BF93AF938A8B0E947D092091FF
:10401000D5153091D6152F5F3F4F3093D61520938D
:10402000D5150F900F908A89E0CF1F928F93ABE048
:10403000BAE0BF93AF938A8B0E947D098A895B8522
:10404000582B5B871092D6151092D5150F900F90B4
:104050000F900F902091D5153091D6158091D30DEA
:104060009091D40D2817390794F4AEEDB4E0BF93C6
:10407000AF930E947D098091D5159091D615019638
:104080009093D6158093D5150F900F90E3CF209184
:10409000400B3091410BC901029649855A85840F26
:1040A000951FA0E0B0E0ABBFFC01879196912D5F1A
:1040B0003F4F220D331D280F391FC901A0E0B0E08A
:1040C000ABBFFC01879196911F925B855F939F9395
:1040D0008F9388858F939F819F93AFE1BAE0BF93C1
:1040E000AF930E947D092F8138852F5F3F4F38871E
:1040F0002F8333E0230E311C0FB6F894DEBF0FBEC2
:10410000CDBF00CE2C853D852F5F3F4F3D872C874F
:104110004E855F854A5F5F4F5F874E8798CD8B8561
:1041200001C080E062960FB6F894DEBF0FBECDBF2F
:10413000DF91CF911F910F91FF90EF90DF90CF9083
:10414000BF90AF909F908F907F906F905F904F90B7
:104150003F902F900895FF920F931F93CF93DF937B
:1041600000D0CDB7DEB7BE016D5F7F4FCE010196A7
:104170000E946F298823F1F06B8189819A810E94C6
:10418000FA298C01FC01208189819A8124FF06C0D3
:10419000A8014F5F5F4F6B811CDD04C06B81FC0188
:1041A000828177DCF82EC801F11002C029D6DBCF5E
:1041B00007D68F2D0F900F900F90DF91CF911F9109
:1041C0000F91FF9008950F931F93CF93DF9320914A
:1041D0003C0B30913D0B2817390708F43CC0C091C7
:1041E000400BD091410BDC01AA0FBB1F8E010E5F6B
:1041F0001F4F0A0F1B1F20E030E02BBFF801079173
:104200001691CE010396800F911F8C0120E030E0C3
:104210002BBFF80107911691FB01118300832091B8
:10422000400B3091410BC90102968A0F9B1FA0E001
:10423000B0E0ABBFFC01879196912B5F3F4F280FF9
:10424000391FC901A0E0B0E0ABBFFC018791FA01C2
:10425000808380E001C08FE0DF91CF911F910F91AB
:1042600008954091400B5091410B9A012E5F3F4FB2
:10427000880F991F280F391FC901A0E0B0E0ABBF1C
:10428000FC01879196919A012D5F3F4F280F391FAE
:10429000C901A0E0B0E0ABBFFC018791969121E09D
:1042A0008617970709F020E0822F0895BF92CF92DA
:1042B000DF92EF92FF920F931F93CF93DF931F92A2
:1042C0001F92CDB7DEB7B62EBE016F5F7F4F5DDBAD
:1042D000C980DA802091420B3091430B2B5F3F4F16
:1042E000E0903E0BF0903F0B00E010E040E050E02B
:1042F0004E155F0509F42FC0C9010296A0E0B0E099
:10430000ABBFFC0187918B111FC0C901A0E0B0E0D9
:10431000ABBFFC01879196918C159D05A9F434DB08
:104320004091420B5091430B4E5F5F4F400F511F26
:1043300060E070E06BBFFA0147915691BC01CA0181
:1043400090DF91E0982708C04F5F5F4F0A5F1F4FD3
:104350002A5F3F4FCDCF90E0892F0F900F90DF91D4
:10436000CF911F910F91FF90EF90DF90CF90BF9072
:1043700008958F929F92AF92BF92DF92EF92FF9239
:104380000F931F93CF93DF931F921F92CDB7DEB78A
:104390009093410B8093400BA0E0B0E0ABBFFC01D9
:1043A0008791969190933D0B80933C0B00E010E039
:1043B00080913C0B90913D0B0817190708F05AC0EB
:1043C0007801EE0CFF1CD12C2091400B3091410B59
:1043D000C90102968E0D9F1DA0E0B0E0ABBFFC01AD
:1043E00047915691CA01820F931FA0E0B0E0ABBF86
:1043F000FC018791D81608F03AC083E0D89E50019E
:1044000011242D5F3F4F2A0D3B1D240F351FC9017D
:10441000A0E0B0E0ABBFFC0187909690B5DA8816BB
:10442000990619F52091400B3091410BC901029674
:104430008E0D9F1DA0E0B0E0ABBFFC01879196916F
:104440002B5F3F4F2A0D3B1D280F391FC901A0E0EC
:10445000B0E0ABBFFC018791BE016F5F7F4F8CD591
:10446000811103C089819A81DDD7D394ADCF0F5FCD
:104470001F4F9ECF80E00F900F90DF91CF911F9143
:104480000F91FF90EF90DF90BF90AF909F908F9033
:1044900008959093430B8093420BA0E0B0E0ABBF34
:1044A000FC018791969190933F0B80933E0B80E0A7
:1044B00008958F929F92AF92BF92DF92EF92FF92F8
:1044C0000F931F93CF93DF9300D01F92CDB7DEB72A
:1044D000E12CF12C80913C0B90913D0BE816F906F4
:1044E00008F0ADC08701000F111FD12C2091400BA7
:1044F0003091410BC9010296800F911FA0E0B0E0FE
:10450000ABBFFC0147915691CA01820F931FA0E0F7
:10451000B0E0ABBFFC018791D81608F08CC083E0F7
:10452000D89E500111242D5F3F4F2A0D3B1D240FB3
:10453000351FC901A0E0B0E0ABBFFC0187909690A9
:1045400023DA8816990609F074C02091400B309147
:10455000410BC9010296800F911FA0E0B0E0ABBFF4
:10456000FC01879196912F5F3F4F280F391FC9019A
:10457000A0E0B0E0ABBFFC0187919691BE016D5FFA
:104580007F4F4DD481115CC0EB81FC81848195818A
:10459000892B09F44EC02091400B3091410BC90189
:1045A0000296800F911FA0E0B0E0ABBFFC018791A5
:1045B00096912B5F3F4F2A0D3B1D280F391FC901D4
:1045C000A0E0B0E0ABBFFC018791BE016F5F7F4F01
:1045D000D3D48B809C80813049F0E981FA8180813D
:1045E00091818815990529F186E02AC02091400B18
:1045F0003091410BC9010296800F911FA0E0B0E0FD
:10460000ABBFFC01879196912B5F3F4F2A0D3B1D5D
:10461000280F391FC901A0E0B0E0ABBFFC016791D2
:1046200020E040E050E0F4018081918120D78111A9
:1046300007C0D3945BCFFFEFEF1AFF0A4BCF80E0A8
:104640000F900F900F900F90DF91CF911F910F91CE
:10465000FF90EF90DF90BF90AF909F908F90089564
:104660002F923F924F925F926F927F928F929F9282
:10467000AF92BF92CF92DF92EF92FF920F931F9370
:10468000CF93DF93CDB7DEB728970FB6F894DEBF90
:104690000FBECDBF4C01A12CB12CABBEF401879055
:1046A00096905C0122E0A20EB11CE12CF12CE814E2
:1046B000F90409F4B0C0850120E030E02BBFF80117
:1046C00007911691250132E0430E511C612C712C8B
:1046D0006BBEF2014790A5014D5F5F4F60E070E057
:1046E0006BBFFA0187918B83A4E0AA0EB11C000F67
:1046F000111F512C642C712CC501A0E0B0E0ABBFA0
:10470000FC0127912C83ABBFFC01C790D6903C2CB9
:104710002D2C2091400B3091410BC9010296800F46
:10472000911FA0E0B0E0ABBFFC0187919691AC0176
:10473000420F531F60E070E06BBFFA0147915416BF
:1047400008F062C063E0569EA00111242D5F3F4F28
:10475000240F351F280F391FC901A0E0B0E0ABBFFF
:10476000FC01279136912F8338874D835E830CD9C6
:104770002F8138854D815E812817390709F042C0A5
:104780002091400B3091410BC9010296800F911F7F
:10479000A0E0B0E0ABBFFC0167917691C90105963E
:1047A000840F951F860F971FA0E0B0E0ABBFFC0100
:1047B0008791BE016F5F7F4FDFD381112DC089814B
:1047C0009A81DC01ED91FC91E60DF71D23852F7395
:1047D000213071F040F02230A9F4232D322D41E038
:1047E000642D80D20DC0960141E0642DE8D108C04F
:1047F00021E0BC81B11101C020E041E0642D2AD24A
:1048000081110AC0539485CF2B81A20EB11C3FEFBA
:10481000E31AF30A4CCF80E028960FB6F894DEBF77
:104820000FBECDBFDF91CF911F910F91FF90EF9001
:10483000DF90CF90BF90AF909F908F907F906F90C0
:104840005F904F903F902F9008952F923F924F92FC
:104850005F926F927F928F929F92AF92BF92CF9210
:10486000DF92EF92FF920F931F93CF93DF931F92EC
:104870001F92CDB7DEB78C01962EE12CF12C8091E2
:10488000D8159091D9150E94A70990E0E816F9066D
:104890009CF46E2D8091D8159091D9150E94B9097C
:1048A0000197A0E0B0E0ABBFFC018791843039F004
:1048B0006FEFE61AF60AE3CFEE24EA94FE2CBE016F
:1048C0006F5F7F4FF801828160D87E2C6E2D8091C2
:1048D000D8159091D9150E94B9099C01A0E0B0E0CB
:1048E000ABBFFC0187919691A981BA8140E050E06D
:1048F00062E0E62EF12C6901F2E0CF0ED11C5901E5
:1049000063E0A60EB11C4817590709F434C017011B
:10491000220E331E412C512C4BBEF1016791769132
:1049200016012E0C3F1C412C512C4BBEF1016790FF
:1049300015012E0C3F1C412C512C4BBEF1018790D0
:10494000E4E0EE0EF11CA617B70781F496100EC036
:10495000692DC8014FD58C01B701872D31D6B8011B
:104960006F5F7F4F882D9AD606D705C0E80CF11CE3
:104970004F5F5F4FC8CF0F900F90DF91CF911F9186
:104980000F91FF90EF90DF90CF90BF90AF909F90EE
:104990008F907F906F905F904F903F902F900895F1
:1049A0009F92AF92BF92CF92DF92EF92FF920F93BE
:1049B0001F93CF93DF938C01B12CA12C912CC801B4
:1049C0000E94A709B816F8F46B2DC8010E94B90916
:1049D000EC016C0181E0C81AD108E12CF12CEBBE8E
:1049E000F6018791823021F4CE0153DD992493940E
:1049F000EBBEF6018791833021F4CE01BADCAA2404
:104A0000A394B394DCCF992011F0A11011C06FE6EC
:104A100070E080E090E0DF91CF911F910F91FF90C7
:104A2000EF90DF90CF90BF90AF909F900C94EE0CE2
:104A3000DF91CF911F910F91FF90EF90DF90CF907A
:104A4000BF90AF909F9008950F931F93CF93DF93E4
:104A5000EC012FDD882331F06EE670E080E090E01D
:104A60000E94EE0C10E000E0CE010E94A70918178A
:104A700090F4612FCE010E94B909AC014150510957
:104A800060E070E06BBFFA014791443011F4E8DD5B
:104A900001E01F5FE9CF01110AC06FE670E080E01E
:104AA00090E0DF91CF911F910F910C94EE0CDF916C
:104AB000CF911F910F910895CF93DF931F921F9273
:104AC000CDB7DEB71A82198260E070E08091FA0AF1
:104AD0009091FB0A0E94D90C8091D7158130A1F7E3
:104AE0003ADBCE01019620D3882371F389819A8124
:104AF0000F900F90DF91CF910895CF93DF93EC014A
:104B00004FDFCE01DF91CF919FCFCF93DF93EC01A9
:104B100047DFCE0199DFDF91CF91CECFFB0120811E
:104B20002F732061208341117DC208950F931F933D
:104B3000DC01ED91FC9186816817B0F4E60FF11D60
:104B40008385222349F0403819F487FF0FC004C041
:104B5000403411F486FF0CC010E090E08F7308170A
:104B6000190741F089E007C082E005C085E003C075
:104B700084E001C080E01F910F910895EF92FF92B1
:104B80000F931F93CF93DF93EC01162F790100E071
:104B9000242F40E8CBDF082F811109C0612FCE01FF
:104BA00029D4FC0121813281F70131832083802FB8
:104BB000DF91CF911F910F91FF90EF900895DF92B9
:104BC000EF92FF920F931F93CF93DF93EC01D62EBA
:104BD000142F790100E0242F40E4A8DF811113C0D5
:104BE0006D2DCE0107D4111106C0FC0161817281C7
:104BF0006E157F0539F0FC01F282E182412FBC0184
:104C0000CE018CDF80E0DF91CF911F910F91FF905B
:104C1000EF90DF900895EF92FF920F931F93CF9341
:104C2000DF93EC01162F790101E0242F40E87EDFAD
:104C3000082F811107C0612FCE01DCD3FC018181D7
:104C4000F7018083802FDF91CF911F910F91FF900B
:104C5000EF900895EF92FF920F931F93CF93DF93FE
:104C6000EC01E62E142FF22E01E0242F40E45EDF4B
:104C7000811110C06E2DCE01BDD3111104C0FC01F5
:104C800021812F1531F0FC01F182412FBC01CE01B1
:104C900045DF80E0DF91CF911F910F91FF90EF9062
:104CA0000895EF92FF920F931F93CF93DF93EC0140
:104CB000162F790102E0242F40E838DF082F8111F8
:104CC00009C0612FCE0196D3FC0121813281F70109
:104CD00031832083802FDF91CF911F910F91FF901F
:104CE000EF900895DF92EF92FF920F931F93CF936F
:104CF000DF93EC01162FD42E790102E0242F40E43B
:104D000015DF811116C0612FCE0174D38C01D11033
:104D100006C0FC01818192818E159F0549F0F80142
:104D2000F282E182CE018FD14D2DB801CE01F6DEA7
:104D300080E0DF91CF911F910F91FF90EF90DF9076
:104D40000895CF93DF93EA0155D3009729F0FC0132
:104D50008081888380E001C082E0DF91CF91089557
:104D6000DC01ED91FC912681621778F443D3FC01BC
:104D7000009769F0808186FD02C087FF02C08062D3
:104D800001C080E3808380E0089582E008958FEF82
:104D900008950F93082F807571F0802F8C7069F043
:104DA0000E94CC09E02FE1700E700E94E139217061
:104DB00081E0E21719F080E001C081E00F910895D1
:104DC0000F93CF93DF93EC0128812E7030E035955F
:104DD0002795022F273011F001E0020F0E94CC0925
:104DE000E02FEE0FF881F07FEF2B000F0E94E139EA
:104DF0002F5F2170E22BE883DF91CF910F9108950F
:104E0000FC01808184FF02C0807C02C0807B8068BE
:104E100080830895FC012081206420830895DB01B4
:104E20002091440B3091450B11963C932E93ED91BC
:104E3000FC911197309741F0208131812817390773
:104E400029F021853285F0CF83E0089580E0089530
:104E50000F931F93CF93DF931F921F92CDB7DEB7AF
:104E60008C01BE016F5F7F4FFC0180819181D7DF94
:104E7000882359F08091440B9091450BF80192875B
:104E800081871093450B0093440B0F900F90DF9197
:104E9000CF911F910F910895FB012091440B309108
:104EA000450B31832083A081B181882341F0309765
:104EB00031F0815019962D913C911A97F2CFAB2B7E
:104EC00011F080E0089583E00895E091440BF091A3
:104ED000450B80E090E0309729F001960184F2853F
:104EE000E02DF9CF0895DC0116964C91169750E00D
:104EF00020E030E080E0241735076CF4FD01E20F7C
:104F0000F31FE385F0E0EF73ED55FB4F9081890FC0
:104F10002F5F3F4FF0CF08950F931F93CF93DF93F1
:104F2000C0914A0BD0914B0B209769F09A8198134E
:104F30000AC08E859F8590934B0B80934A0BCE01C0
:104F40000E94000A10C0209789F0EE85FF853097F7
:104F500061F092819813F9CF06851785CF010E94E1
:104F6000000A1F870E8780E002C0FFCF81E0DF913B
:104F7000CF911F910F910895DB0120914A0B309141
:104F80004B0B11963C932E93ED91FC91119730971A
:104F900031F09281981729F026853785F2CF81E08C
:104FA000089580E00895FB0120914A0B30914B0B4E
:104FB00031832083A081B181882341F0309731F083
:104FC00081501E962D913C911F97F2CF81E0AB2B23
:104FD00009F080E00895DB0120914A0B30914B0BE2
:104FE00011963C932E93ED91FC911197309741F0DF
:104FF000238134812817390729F026853785F0CF9A
:1050000081E0089580E00895E0914A0BF0914B0B08
:1050100080E090E0309729F001960684F785E02D36
:10502000F9CF0895DC0113962D913C911497232B11
:1050300031F4ED91FC910480F581E02D199421E08B
:10504000FC01258708958F929F92AF92BF92CF92D5
:10505000DF92EF92FF920F931F93CF93DF931F92F4
:105060001F92CDB7DEB74C01DC01ED91FC9186813A
:1050700090E060E070E0681779070CF046C0DF014F
:10508000A60FB71F1B962C912F732230D9F59E01C6
:105090002F5F3F4F40E0C40104DE89819A81892B54
:1050A00051F4F40115821682178210861186128639
:1050B000138614862AC00E94CC09BA80A9801B2DB1
:1050C000110F110BC12ED12EE12EF12E012F0E94B6
:1050D000FD39D40115962C93159716963C93169787
:1050E00017964C93179718965C93189719966C938C
:1050F00019971A967C931A971B968C931B971C965C
:105100009C9303C06F5F7F4FB6CF0F900F90DF91DE
:10511000CF911F910F91FF90EF90DF90CF90BF90B4
:10512000AF909F908F9008952F923F924F925F92F1
:105130006F927F928F929F92AF92BF92CF92DF92A7
:10514000EF92FF920F931F93CF93DF931F921F92C3
:10515000CDB7DEB73C0180914A0B90914B0B892B68
:1051600011F480E0A7C0BE016F5F7F4F8091480BB4
:105170001ADF813051F480914A0B90914B0B9A8346
:1051800089831092490B1092480B8090480B9090A5
:10519000490BE981FA81868597859A8389832FEF68
:1051A000821A920A892B41F480914A0B90914B0B01
:1051B0009A838983812C912CE981FA81E580F6809C
:1051C0000781108521843284438454849701A80187
:1051D000B101C201A0E00E94183A31F4E981FA81DC
:1051E0008585811114C05DC00E94CC0959016A01F6
:1051F000B62FA72FF82FE92F9701A801B101C201FF
:10520000EB2EFA2E0F2F1E2F0E940F3A38F7E9814E
:10521000FA811586E580F680078110852184328425
:10522000438454849701A801B101C201A0E00E9407
:10523000183AB1F00E94CC0959016A01B62FA72F84
:10524000F82FE92F9701A801B101C201EB2EFA2E28
:105250000F2F1E2F0E940F3A18F489819A81F3DED6
:10526000E981FA8183819481892B91F4CE010196A1
:105270000E94300A89819A81DC01ED91FC910480C1
:10528000F581E02D1995CE0101960E94580A09C0BA
:10529000D301ED93FC939092490B8092480B81E0EF
:1052A00009C08091480B9091490B8816990609F026
:1052B00070CF57CF0F900F90DF91CF911F910F912B
:1052C000FF90EF90DF90CF90BF90AF909F908F9026
:1052D0007F906F905F904F903F902F9008957F92B6
:1052E0008F929F92AF92BF92CF92DF92EF92FF92F6
:1052F0000F931F93CF93DF931F921F92CDB7DEB70B
:105300006C015B0180914A0B90914B0B892B11F43E
:1053100080E060C0BE016F5F7F4F8091460B43DE2F
:10532000813051F480914A0B90914B0B9A83898381
:105330001092470B1092460B0091460B1091470BB1
:10534000E981FA81868597859A8389830F5F1F4F4C
:10535000892B41F480914A0B90914B0B9A8389835E
:1053600000E010E0E981FA8180809180E12CF12C4D
:10537000712CF401868190E0E816F90614F5E981B4
:10538000FA81E70DF11D808904DD882361F0109317
:10539000470B0093460B29813A81F6013183208324
:1053A000F501E08217C0F401EE0DFF1DE385F0E08A
:1053B000EF73ED55FB4F8081780EFFEFEF1AFF0A78
:1053C000D8CF8091460B9091470B0817190709F029
:1053D000B7CF9ECF0F900F90DF91CF911F910F917C
:1053E000FF90EF90DF90CF90BF90AF909F908F9005
:1053F0007F900895FC014081518120E0662361F097
:105400006150FA01E60FF11DE385F0E0EF73ED5511
:10541000FB4F3081230FF2CF30E0205F3F4F820FF0
:10542000931F0895FF920F931F93CF93DF938C01E7
:10543000DC011296FC90C0E0D0E0D801ED91FC9127
:10544000268130E0C217D30764F46C2F8F2D0E94A1
:105450005621882321F06C2FC801CCDFDBDC21969C
:10546000ECCFDF91CF911F910F91FF900895EF92B4
:10547000FF920F931F93CF93DF9300D000D0CDB74F
:10548000DEB78C01F62E5E834D83E22EBE016D5F8A
:105490007F4F8F2D71DD813009F06FC0BE016F5FCE
:1054A0007F4FC801BCDC811171C009811A81F801EC
:1054B000808580FD03C0EE2009F461C0F80184817D
:1054C0009581892B61F42D813E81232B09F459C0EC
:1054D000C80109DD082F10E0005F1F4F09C0C80197
:1054E00002DDF801078110E0005F1F4F080F111D5A
:1054F000CE0105960E94300ACE0101960E94300A24
:1055000069E070E0C8010E94F30B9C838B83CE019D
:1055100005960E94580ACE0101960E94580A8B8176
:105520009C81009781F1A80160E070E00E943E3A02
:10553000EB81FC8129813A8131832083F2828D8144
:105540009E8194838383158680914A0B90914B0BA7
:1055500097878687F0934B0BE0934A0BCF0162DF6E
:10556000E981FA8184819581892B79F00280F38128
:10557000E02D8B819C81199508C086E007C084E1ED
:1055800005C08BE003C088E001C080E026960FB61E
:10559000F894DEBF0FBECDBFDF91CF911F910F9169
:1055A000FF90EF900895CF93DF93EC01888199816C
:1055B0009ADC90E040968C0F9D1FDF91CF9108956B
:1055C000FF920F931F93CF93DF93F82EEB01682F79
:1055D0008091D8159091D9150E94B9098C018091BC
:1055E000D8159091D9150E94A709F816E0F4A801E2
:1055F0004350510960E070E06BBFFA01479156914A
:10560000C417D50780F48091D8159091D9159E01C3
:10561000281B390BC901800F911FDF91CF911F917A
:105620000F91FF900AC080E0DF91CF911F910F9101
:10563000FF90089580E091E0089520E030E0392F58
:1056400040E052E060E070E0420F531F611D711DA9
:1056500040934E0B50934F0B6093500B7093510B34
:10566000992790934D0B80934C0BA3E2B6E18D5D8F
:10567000994EA817B90749F06BBFFA0127912D93EE
:105680004F5F5F4F6F4F7F4FF4CF81E0089580E110
:105690008093600088E080936000FFCFCF92DF921C
:1056A000EF92FF920F931F93CF93DF93D82E7B013E
:1056B00040914E0B50914F0B6091500B7091510BDC
:1056C000452B462B472B09F44DC0DD2009F44AC079
:1056D00000914C0B10914D0BC8018D0D911D813027
:1056E000914018F0C02EC19401C0CD2CCC2DD0E03B
:1056F000AE01B701C8018D5D994E0E94243A0C0F8E
:105700001D1F01151140F9F460914E0B70914F0B64
:105710008091500B9091510B43E256E10F9400F8A9
:1057200000914E0B10914F0B2091500B3091510B6B
:105730001F5F2F4F3F4F00934E0B10934F0B209343
:10574000500B3093510B20914C0B30914D0B2C0F83
:105750003D1F332730934D0B20934C0BDC18EC0E80
:10576000FD1EB3CFDF91CF911F910F91FF90EF906E
:10577000DF90CF9008958F929F92AF92BF92CF9279
:10578000DF92EF92FF920F931F93CF93DF93C0911D
:105790004C0BD0914D0B209779F160914E0B70918D
:1057A0004F0B8091500B9091510B00E010E098014D
:1057B0004E01AA2497FCA094BA2C860E971EA81E10
:1057C000B91ECF3FD10509F09CF475016401C00EEC
:1057D000D11EE21EF31EEBBEF601C790FE01ED5D89
:1057E000F94EC08221960F5F1F4F2F4F3F4FE9CFD9
:1057F00043E256E10F9400F810924E0B10924F0BBB
:105800001092500B1092510BDF91CF911F910F917D
:10581000FF90EF90DF90CF90BF90AF909F908F90D0
:10582000089503D003D0B6D487C4089583EC9CE1D7
:10583000909317168093161666E176E18AEF9AE048
:105840000E94970C0C94961BAF92BF92CF92EF924E
:10585000FF920F931F93CF93DF9300D01F92CDB78A
:10586000DEB731E0360F39833FEA3A83FE013396E3
:105870005F0132E0C32EFE0131967F0108EE13E096
:105880000E94ED1B81110AC0EB81FC8184818F3A5B
:1058900049F40580F681E02D808107C0843021F431
:1058A0008DE003C080E001C08CE00F900F900F905E
:1058B0000F90DF91CF911F910F91FF90EF90CF90BC
:1058C000BF90AF9008956F927F928F929F92AF9208
:1058D000BF92CF92DF92EF92FF920F931F93CF93DD
:1058E000DF934C01662E8A01722E1092D61510920B
:1058F000D515CEEDD4E02091D5153091D6158091F7
:10590000D30D9091D40D2817390784F4DF93CF93EA
:105910000E947D098091D5159091D615019690939E
:10592000D6158093D5150F900F90E5CF9F928F924B
:1059300088E49AE09F938F930E947D090F900F90C7
:105940000F900F90E801A72CB12C4EEDE42E44E00F
:10595000F42E52E7C52E5AE0D52ECE01801B910BB6
:105960001092D6151092D5158A159B0544F52091F5
:10597000D5153091D6158091D30D9091D40D28175F
:1059800039078CF4FF92EF920E947D094091D51562
:105990005091D6154F5F5F4F5093D6154093D51554
:1059A0000F900F90E4CF89911F928F93DF92CF9247
:1059B0000E947D090F900F900F900F90CECFCEEDEB
:1059C000D4E02091D5153091D6158091D30D9091CA
:1059D000D40D281739078CF4DF93CF930E947D09EB
:1059E0004091D5155091D6154F5F5F4F5093D61506
:1059F0004093D5150F900F90E4CF87E498E09F93E4
:105A00008F930E947D090F900F90272DA801662D7E
:105A1000C401DF91CF911F910F91FF90EF90DF9024
:105A2000CF90BF90AF909F908F907F906F900C948D
:105A3000D21BCF93DF9300D000D0CDB7DEB730E2DA
:105A4000398331E03A832B8343E0BE016F5F7F4FA0
:105A50000E94991B26960FB6F894DEBF0FBECDBFED
:105A6000DF91CF9108950F931F93CF93DF93CDB71D
:105A7000DEB727970FB6F894DEBF0FBECDBF522F0B
:105A8000732F9801603418F0652FD3DF0DC0698340
:105A90007A835B834C831D823E830F8327E0AE01B4
:105AA0004F5F5F4F66E9D0DE27960FB6F894DEBFF2
:105AB0000FBECDBFDF91CF911F910F9108950F932E
:105AC000CF93DF9300D000D0CDB7DEB7522F732F26
:105AD000603450F0002319F02FEF30E002C020E0D6
:105AE00030E0652FA6DF0DC069833A832B834C839A
:105AF00021E02D830E8326E0AE014F5F5F4F66E904
:105B0000A3DE26960FB6F894DEBF0FBECDBFDF91A1
:105B1000CF910F9108950F931F93CF93DF93CDB73C
:105B2000DEB728970FB6F894DEBF0FBECDBF603446
:105B300078F469833A832B834C8322E02D831E8380
:105B40000F8327E0AE014F5F5F4F66E97DDE01C046
:105B50008FEA28960FB6F894DEBF0FBECDBFDF9157
:105B6000CF911F910F910895CF93DF9300D000D074
:105B7000CDB7DEB78034910570F479836A834B83A7
:105B80001C823D832E8326E0AE014F5F5F4F65EBA5
:105B90009ADE80E001C08FEA26960FB6F894DEBF49
:105BA0000FBECDBFDF91CF910895CF93DF9300D08B
:105BB0001F921F92CDB7DEB78034910570F47983C0
:105BC0006A834B8331E03C832D8325E0AE014F5F38
:105BD0005F4F65EB78DE80E001C08FEA0F900F9099
:105BE0000F900F900F90DF91CF910895CF93DF9397
:105BF00000D000D0CDB7DEB78034910578F479833A
:105C00006A834B8342E04C833D832E8326E0AE01C2
:105C10004F5F5F4F65EB57DE80E001C08FEA26964D
:105C20000FB6F894DEBF0FBECDBFDF91CF910895C0
:105C3000CF93DF931F921F92CDB7DEB769834A835C
:105C400022E0AE014F5F5F4F68E9FEDD0F900F90DD
:105C5000DF91CF910895AF92BF92CF92DF92EF92F2
:105C6000FF920F931F93CF93DF9300D000D0CDB757
:105C7000DEB76C01DC011596ED90FC9016978091D3
:105C8000D715823009F4C9C114960C9110E0F801BF
:105C9000E059F109E131F10508F0BFC1E658FF4FC5
:105CA0000C94D53948E2F7016081C701D7D1282F7C
:105CB0006BE9ABC1D70111964C9111976C91C7015B
:105CC0000296BCD1811102C06DE901C06FEAF701F3
:105CD000808397C1B12C00E010E08B2D00D2882387
:105CE00031F00F5F1F4FF701E00FF11FB082B39447
:105CF000F5E0BF12F2CFD7010C9321E0200F6FE93E
:105D000084C161E0F7018381811101C060E0D701A6
:105D100012968C91BDD1882309F47CC1F70182834E
:105D20006FC1D3D899E3899F912D11249695282F7F
:105D3000F9E09F9F2019112421119F5FD701AC909A
:105D400029E0A29EA02C112411969C9311971296E3
:105D50008C93982F9A199A3008F099E087010B5F7D
:105D60001F4FB12CB91669F1BE016F5F7F4F8B2DAC
:105D70008A0D9E8391D8E981FA818181F801329759
:105D80008083E981FA818081F80131978083E981FC
:105D9000FA818085248135819E8180FF08C0232B74
:105DA00011F483E001C082E0F801808306C081E045
:105DB000232B09F080E0D8018C93B3940D5F1F4F23
:105DC000D1CF4B2D50E04F5F5F4F242F220F240F78
:105DD00061E91BC119D929E3829F212D1124269540
:105DE000982FB9E02B9F9019112491112F5FF70183
:105DF000A08099E0A99EA02C112421838283982F52
:105E00009A199A3008F099E087010A5F1F4FB12C68
:105E1000B91689F1BE016F5F7F4F8B2D8A0D9E836E
:105E2000C2D8E981FA818281F80133978083E981C0
:105E3000FA810190F081E02D8181F8013297808311
:105E4000E981FA810190F081E02D8081F80131979C
:105E50008083E981FA810190F081E02D81E0448125
:105E600055819E81452B09F080E0D8018C93B39435
:105E70000C5F1F4FCDCF2B2D220F220F2D5F63E91B
:105E8000C4C0F701B380BE016D5F7F4F808174D8BD
:105E9000882321F0D70112968C93B2C0AE014B5FDC
:105EA0005F4F6B2D8B819C810E94A1268B819C81F1
:105EB0000B2D10E0DC01ED91FC91E00FF11F23852B
:105EC00030E02F732115310541F49E012F5F3F4FC4
:105ED00041E06B2D0E94BE252BC021303105E9F435
:105EE0009E012F5F3F4F41E06B2D0E940B26EB81FF
:105EF000FC810190F081E02DE00FF11F93859F73ED
:105F0000D70114969C9314979D8115969C93159791
:105F1000998116969C9327E01DC02230310509F027
:105F20005AC09E012F5F3F4F41E06B2D0E945126CA
:105F3000EB81FC810190F081E02DE00FF11F938552
:105F40009F73F70194839D81958399812A8126838C
:105F5000978328E0811152C065E957C0F70113818A
:105F6000BE016F5F7F4F808107D8811147C0F70165
:105F7000848181110EC0258130E0322F2227868155
:105F8000280F311D41E0612F89819A810E94DF2510
:105F90001EC0813061F421E08581811101C020E0C3
:105FA00041E0612F89819A810E942A2610C08230A7
:105FB00091F4F701258130E0322F22278681280FC6
:105FC000311D41E0612F89819A810E9472268111E1
:105FD00015C067E919C08FEF11C0F7011181BE012B
:105FE0006F5F7F4F80810E94BC27811107C0612FA6
:105FF00089819A810E94B026882329F0D7018C9349
:106000006FEA21E002C069E924E0A701C6010E940D
:10601000E21B03C061EA20E0F8CF26960FB6F894A1
:10602000DEBF0FBECDBFDF91CF911F910F91FF90CB
:10603000EF90DF90CF90BF90AF90089570E050E068
:106040009B01240F351F2138310534F46D5F7F4FDC
:106050000E94C43C80E0089580E10895CF93C42F4E
:10606000262F30E0F901E40FF11DE138F10534F09D
:1060700067FD03C0C0E8C61B01C0C0E04C2F50E064
:10608000B9016D5F7F4F0E94A73C8C2FCF9108957F
:10609000CF93C82F853000F582E090E0662359F059
:1060A0000E94B73C61E070E00C2E01C0660F0A94BC
:1060B000EAF7682B0BC00E94B73C61E070E00C2E41
:1060C00001C0660F0A94EAF76095682382E090E0C9
:1060D0000E94CD3C80E001C081E1CF910895CF9333
:1060E000C82F853090F482E090E00E94B73C282FC2
:1060F00030E041E050E002C0440F551FCA95E2F77E
:106100002423352381E0232B09F480E08170CF9193
:10611000089581E090E00C94BF3CBC0181E090E0E8
:106120000C94DB3C80E090E00C94BF3CBC0180E030
:1061300090E00C94DB3C089588ED90E390932C174D
:1061400080932B176BE277E182E09BE00E94970C33
:1061500088E091E3909328178093271767E277E10F
:106160008EEF9AE00E94970C8BE29EE290932417A8
:106170008093231763E277E188E39BE00E94970C0A
:1061800015D0882331F063E070E080E090E00C945B
:10619000EE0C08958BE691E39093301780932F17C0
:1061A0006FE277E188E39BE00C94970C80E0089520
:1061B0000E943F0CE091440BF091450B309771F039
:1061C00084819581892B31F4DF0116978C918C7F26
:1061D00082608C930184F285E02DF0CFE0914A0B30
:1061E000F0914B0B309799F0DF0116978C918C7FD3
:1061F00082608C93A381B481109729F016978C91BB
:106200008C7F81608C930684F785E02DEBCF089519
:10621000CF93DF93A4E4BBE0ED91FC91119730970D
:1062200081F084819581892B49F4EF0126978A8139
:106230009B819F01281B390B2D933C93DF011996FD
:10624000EBCFEAE4FBE0408151814115510509F4AF
:106250003FC0DA01CD91DC918C819D81892B89F43D
:10626000209751F0CE010697DC0112968D919C91FA
:106270001397C81BD90B02C0C0E0D0E0DA01CD9360
:10628000DC93C081D1818B819C81009759F09C0166
:1062900026503109D90112962D913C911397821BFA
:1062A000930B02C080E090E09C838B83808191817E
:1062B000009739F0EC0126972A813B81821B930BD2
:1062C00002C080E090E091838083FA013E96BBCFCC
:1062D000DF91CF9108958F929F92BF92CF92DF92DC
:1062E000EF92FF920F931F93CF93DF931F921F9212
:1062F000CDB7DEB77C01FC01858096808481823138
:10630000C1F118F48031E9F0ADC0843109F47AC0EC
:10631000863109F0A7C060E070E08091F80A9091A2
:10632000F90A0E94D90C0F900F90DF91CF911F9125
:106330000F91FF90EF90DF90CF90BF909F908F9044
:10634000A6C980E090E079D9882371F082E080933B
:10635000D7151092530B1092520B6CD9F401108286
:106360008183928331E162C082E0F401808331E174
:1063700063C0F401018110E0102F00278081080F15
:10638000111DF701B780BA94BA9454D99C01CB2C53
:10639000D12CC801B901C0D7FB01C8018C0D9D1DCE
:1063A000B901BAD74091520B5091530BE617F7073A
:1063B00081F00417150729F4F401108233E121E07C
:1063C0000AC081E0F40180834183528333E123E0FA
:1063D00002C030E020E00417150781F5B4016E5FBC
:1063E0007F4F8B2D29833A8359D98091520B9091FD
:1063F000530B8C0D9D1D9093530B8093520B298151
:106400003A811CC08091520B9091530BF401218171
:1064100030E0322F22274081240F311D2817390701
:1064200039F021E020838183928335E123E008C0A5
:10643000F4011082A0D935E121E002C0332391F0AC
:10644000A401632FC7010F900F90DF91CF911F918F
:106450000F91FF90EF90DF90CF90BF909F908F9023
:106460000C94E21B0F900F90DF91CF911F910F9131
:10647000FF90EF90DF90CF90BF909F908F90089506
:106480000895CF93DF9300D01F921F92CDB7DEB750
:10649000BE016F5F7F4F8091540B0E94BC2781111A
:1064A00009C09E012B5F3F4F40E060E089819A81E7
:1064B0000E940B26BE016F5F7F4F8091540B0E949C
:1064C000BC27811109C09E012D5F3F4F40E061E074
:1064D00089819A810E94BE250F900F900F900F9096
:1064E0000F90DF91CF910895CF93DF9326E040E0A6
:1064F00052EC61E070E08CEF9BE06BD40E943709B6
:10650000EAE0F2E020E030E080819181009799F0AC
:1065100073968C3C910591F443E1429FC001439FE7
:10652000900D1124865F9D4F21E432E3FC013583F9
:1065300024830E942827C1E0D0E004C02F5F3F4F92
:10654000E3CF219621E040E050E06C2F8CEC90E00E
:106550000E94372A8111F5CFD093550BC093540B6D
:1065600066EA74E08CEF9BE0DF91CF914BC60E940E
:1065700051098CEF9BE021D3892B31F18CEF9BE00B
:1065800035D320910802309109022130310529F4D8
:106590008432D1F482E090E013C022303105A1F4BE
:1065A0008C3641F460EB74E08CEF9BE02BD60E94BC
:1065B0005E1104C08A3711F40E94A31081E090E0BC
:1065C00090930902809308020895DC01ED91FC91FB
:1065D0000190F081E02D1994E4C012C1BC018CEF50
:1065E0009BE0F6C5811106C0772767FD70958CEF9B
:1065F0009BE017C0813031F4772767FD70958FE5F8
:106600009BE00FC0823031F4772767FD709586E3F9
:106610009DE007C0833031F4772767FD709589E9E5
:106620009CE0D3CF0895CF92DF92EF92FF92CF9369
:10663000C82F6A017B0166EB74E08CEF9BE0C8D544
:106640004AE050E06C2F8CEF9BE04FD661EC74E099
:106650008CEF9BE0BDD52AE030E0B701A6018CEFBE
:106660009BE049D6C11106C026E0B701A6018CEF18
:106670009BE017C0C13031F426E0B701A6018FE5D9
:106680009BE00FC0C23031F426E0B701A60186E3DB
:106690009DE007C0C33059F426E0B701A60189E99F
:1066A0009CE0CF91FF90EF90DF90CF9092C3CF917D
:1066B000FF90EF90DF90CF900895811103C08CEF91
:1066C0009BE00EC0813019F48FE59BE009C0823059
:1066D00019F486E39DE004C0833019F489E99CE055
:1066E00085C20895811103C08CEF9BE00EC08130FC
:1066F00019F48FE59BE009C0823019F486E39DE030
:1067000004C0833019F489E99CE057C208951F92B0
:106710000F920FB60F9211242F933F938F939F9355
:10672000AF93BF938091570B9091580BA091590B49
:10673000B0915A0B3091560B23E0230F2D3720F4E4
:106740000196A11DB11D05C026E8230F0296A11DCB
:10675000B11D2093560B8093570B9093580BA09329
:10676000590BB0935A0B80915B0B90915C0BA091ED
:106770005D0BB0915E0B0196A11DB11D80935B0B6B
:1067800090935C0BA0935D0BB0935E0BBF91AF91A8
:106790009F918F913F912F910F900FBE0F901F905F
:1067A00018952FB7F8946091570B7091580B809102
:1067B000590B90915A0B2FBF08953FB7F8948091D1
:1067C0005B0B90915C0BA0915D0BB0915E0B26B5BD
:1067D000A89B05C02F3F19F00196A11DB11D3FBF19
:1067E0006627782F892F9A2F620F711D811D911DA9
:1067F00042E0660F771F881F991F4A95D1F70895C9
:10680000CF92DF92EF92FF92CF93DF936B017C01E7
:10681000D4DFEB01C114D104E104F10479F07BD59C
:10682000CCDF6C1B7D0B683E7340A0F381E0C81A7F
:10683000D108E108F108C851DC4FECCFDF91CF91CE
:10684000FF90EF90DF90CF900895789484B58260A8
:1068500084BD84B5816084BD85B5826085BD85B504
:10686000816085BDEEE6F0E0808181608083E1E8B3
:10687000F0E01082808182608083808181608083EB
:10688000E0E8F0E0808181608083E1EBF0E08081EE
:1068900084608083E0EBF0E0808181608083E1E9C7
:1068A000F0E0808182608083808181608083E0E984
:1068B000F0E0808181608083E1EAF0E080818260A5
:1068C0008083808181608083E0EAF0E08081816064
:1068D0008083E1E2F1E08081826080838081816059
:1068E0008083E0E2F1E0808181608083EAE7F0E08C
:1068F00080818460808380818260808380818160E8
:1069000080838081806880831092C10008951F92E7
:106910000F920FB60F9211240BB60F922F938F93F5
:106920009F93EF93FF93E0916F0BF091700B808139
:10693000E091750BF091760B82FD12C090818091F1
:10694000780B8F5F8F732091790B821751F0E09154
:10695000780BF0E0E15AF44F958F8093780B01C0EB
:106960008081FF91EF919F918F912F910F900BBE9E
:106970000F900FBE0F901F9018951F920F920FB699
:106980000F9211240BB60F922F933F934F935F9367
:106990006F937F938F939F93AF93BF93EF93FF93E7
:1069A0008FE59BE070D1FF91EF91BF91AF919F91E7
