:100000000C9404090C9435090C9435090C943509A9
:100010000C9435090C9435090C9435090C94350968
:100020000C9435090C9435090C9435090C94350958
:100030000C9435090C9435090C9435090C94350948
:100040000C9435090C9435090C9435090C94350938
:100050000C9435090C9435090C9435090C941F3314
:100060000C9435090C94CA340C9400350C94350961
:100070000C9435090C9435090C9435090C94350908
:100080000C9435090C9435090C9435090C943509F8
:100090000C941F340C9455340C9435090C94350988
:1000A0000C9435090C9435090C9435090C943509D8
:1000B0000C9435090C9435090C9435090C943509C8
:1000C0000C9435090C9435090C9435090C948C3733
:1000D0000C94C2370C9435090C94E1360C94173704
:1000E0000C943509040D2A0D5B0D810DA70DCD0D66
:1000F000F30D190E912E0D30EA2E0D30412F0D30DB
:10010000AE2F0D30ED2F0D30522E0D305A2E0D30FA
:100110006A2E0D30812E000000000000000000005B
:1001200000000000000000000000000000000000CF
:1001300000000000000000000000000000000000BF
:1001400000000000000000000000000000000000AF
:10015000000000000000000000000000000000009F
:10016000000000000000000000000000000000008F
:10017000000000000000000000000000000000007F
:10018000000000000000000000000000000000006F
:10019000000000000000000000000000000000005F
:1001A000000000000000000000000000000000004F
:1001B000000000000000000000000000000000003F
:1001C000000000000000000000000000000000002F
:1001D000000000000000000000000000000000001F
:1001E000000000000000000000000000000000000F
:1001F00000000000000000000000000000000000FF
:10020000D70001070F001E002F0033009C00A20042
:10021000BF0000010001776B656D707479617070CB
:10022000000101040000000119FF000000010100AD
:100230000000040201000203080018005D00000035
:100240000000010200000500219D016C9B000100DF
:100250000100010502003A00590104A00121469D58
:1002600001AF1500019C0178019E02107B9C017D6D
:10027000009C0116009C0111019E020B9E00029E33
:10028000020C9E020D3122840008229C0200009480
:10029000FFF300000000000001020001009B0003CA
:1002A000000000000006020007000F0006004F4299
:1002B0004A4543540C004D79206E6F646520696493
:1002C0003A20050205000A006261736500776B70D1
:1002D000665F7669727475616C000200020000024C
:1002E0000003000002000400000000000000000005
:1002F00000000000000000000000000000000000FE
:1003000000000000000000000000000000000000ED
:1003100000000000000000000000000000000000DD
:1003200000000000000000000000000000000000CD
:10120000873432354937F43711241FBECFEFD1E28E
:10121000DEBFCDBF00E00CBF17E0A0E0B2E0ECE322
:10122000FAE700E00BBF02C007900D92A03EB107A5
:10123000D9F724E1A0EEB7E001C01D92A939B207A9
:10124000E1F712E1C8E0D2E100E006C0229701090F
:10125000FE010BBF0E947339C030D10780E0080740
:10126000A9F70E9438380C941C3D0C94000080E0D3
:1012700092E090933F1380933E1360E072EC81E024
:1012800090E02ED040E058E060E070E08BE39BE01F
:1012900041D081E080933D13089580E092E00C946A
:1012A0007D25CF93DF931F921F92CDB7DEB71A82B1
:1012B000198260E070E0809162089091630879D3B0
:1012C00080913D13813031F40E94AB20CE01019614
:1012D0000E9494280F900F90DF91CF910895089568
:1012E00008959B01AC0160E870E080EE97E00E94F9
:1012F000193A80EE97E00C948632CF93DF93CDB706
:10130000DEB7FE01369681919191BF01EADFDF9150
:10131000CF910895CF93DF9300D000D0CDB7DEB743
:101320004B835C836D837E8389839A8334D04B8126
:101330005C81BA0189819A8140D026960FB6F894D3
:10134000DEBF0FBECDBFDF91CF910C94112C20E0FA
:10135000AC0160E070E06BBFFA0147915691411516
:10136000510529F0840F951F03962F5FF1CF822F2F
:101370000895262F222369F0AC0160E070E06BBF76
:10138000FA01479156914D5F5F4F840F951F215091
:10139000F1CF03960895A3CFCF93DF930E948432B9
:1013A000DC01CB019C01AD0160E070E080E090E0E9
:1013B000DF91CF9108950C94853290937B088093B0
:1013C0007A087093790860937808109271081092E7
:1013D000700810927308109272081092750810929B
:1013E0007408109277081092760890936F08809393
:1013F0006E08860F971F90936D0880936C08089570
:10140000FC0136972081269526953181432F429500
:10141000440F440F407C842F822B932F96959695F2
:101420008E0F9F1F20916E0830916F082817390783
:1014300029F4F0936F08E0936E08089514820895DC
:101440008091780890917908089580916C08909126
:101450006D0820916E0830916F08821B930B0895E0
:10146000E0E7F8E020E030E041915191452B41F474
:10147000F901EE0FFF1FE059F74F91838083089524
:101480002F5F3F4F2430310579F76AE070E080E04C
:1014900090E0A4C2E0E7F8E080E090E02191319193
:1014A000232B09F0019628E0E837F207B9F70895F1
:1014B000E0E7F8E0208131812817390711F4118223
:1014C0001082329628E0E837F207A1F708950F93CB
:1014D0001F93CF93DF93E0917A08F0917B08A0915E
:1014E0006E08B0916F08AC01460F571F11E0EA1764
:1014F000FB0700F5248130E08217930720F42417BE
:10150000350708F414834217530718F42481261B67
:101510002483C081C695C695D1810D2F0295000FF9
:10152000000F007C202F2C2B3D2F36953695E20F97
:10153000F31FDDCFDF91CF911F910F91089580911F
:101540007A0890917B080895FC0140814695469564
:101550005181652F6295660F660F607C262F242BC4
:10156000352F36953695280F391F80916E0890914A
:101570006F082817390718F080E090E00895C90136
:101580000895CF92DF92EF92FF920F931F93CF9324
:10159000DF93E0917A08F0917B0820916E083091FA
:1015A0006F08C12CD12C7601E217F30738F584813E
:1015B00050814181811111C0742F7295770F770F7F
:1015C000707C652F66956695872F862B942F969550
:1015D0009695C80ED91EE11CF11CD382C282569585
:1015E0005695642F6295660F660F607C862F852B5B
:1015F000942F96959695E80FF91FD6CFE0E7F8E07F
:10160000A191B191109781F08D919C9111970097C4
:1016100039F0EC0126972A813B81821B930B02C093
:1016200080E090E08D939C9328E0E837F20741F743
:1016300060E070E08091660890916708BAD1C0912F
:101640007A08D0917B0880916E0890916F08C81736
:10165000D907F0F48881869586959981292F22955E
:10166000220F220F207C022F082B192F169516957A
:101670008C81882351F08A819B81A801BE019E0143
:10168000281B390BC9010E94C539C00FD11FDBCF00
:101690008C199D0990936F0880936E08DF91CF910C
:1016A0001F910F91FF90EF90DF90CF9008950F93CF
:1016B0001F93CF93DF93E0917A08F0917B082091FC
:1016C0006E0830916F08E217F307D0F484818630FA
:1016D00010F482E001C080E040814C7F482B4083C1
:1016E000469546955181652F6295660F660F607C21
:1016F000862F842B952F96959695E80FF91FE3CFAB
:1017000060E070E080916A0890916B0852D1E0E748
:10171000F8E0A191B191109769F00D90BC91A02DC6
:10172000109741F016978C91982F937019F48C7F35
:1017300081608C9388E0E837F80759F7C0917A0800
:10174000D0917B0800E010E020916E0830916F0886
:10175000C217D307E8F488818370813041F4BE0159
:10176000809168089091690824D10F5F1F4F2881EC
:10177000269526953981432F4295440F440F407C8E
:10178000842F822B932F96959695C80FD91FDCCF67
:10179000012BA1F6E0917A08F0917B08E217F3079C
:1017A000B0F44081842F837009F41482542F56952D
:1017B00056954181642F6295660F660F607C862F77
:1017C000852B942F96959695E80FF91FE7CFD9DED4
:1017D00060E070E08091640890916508DF91CF919E
:1017E0001F910F91E6C00F931F93CF93DF931F922A
:1017F000CDB7DEB780FD01968C010A5F1F4F809147
:101800006C0890916D0820916E0830916F08821BD2
:10181000930B8017910718F4698349DF6981E09180
:101820006E08F0916F0880916C0890916D088E1B86
:101830009F0B80179107D8F0902F990F990F8081F7
:101840008370892B8083912F990F990F802F829518
:10185000869586958370892B818364830E0F1F1F65
:1018600010936F0800936E08CF01069602C080E0C7
:1018700090E00F90DF91CF911F910F910895BF924B
:10188000CF92DF92EF92FF920F931F93CF93DF934C
:1018900000D01F921F92CDB7DEB700917A08109149
:1018A0007B083FE3E32E32E0F32E45E0B42ECE0179
:1018B00001966C0180916E0890916F0808171907C6
:1018C00038F5F8018481893078F01F928F93FF9268
:1018D000EF921F92BF92DF92CF920E94DD390FB636
:1018E000F894DEBF0FBECDBFF80120812695269566
:1018F0003181432F4295440F440F407C842F822B2B
:10190000932F96959695009719F0080F191FD2CF2F
:101910000F900F900F900F900F90DF91CF911F912C
:101920000F91FF90EF90DF90CF90BF900895CF93ED
:10193000DF93DC019C9111968C911197E92FF82F80
:10194000309779F1E617F70741F510923C131092A2
:101950003B13C5E4D2E020913B1330913C138091BE
:10196000390B90913A0B281739077CF4DF93CF930A
:10197000C4DC80913B1390913C13019690933C13EF
:1019800080933B130F900F90E6CF89E492E09F93F2
:101990008F93B3DC0F900F9009C00280F381E02D8C
:1019A000CFCFFB01928383836D937C93DF91CF91A3
:1019B00008950F931F93CF93DF93EC018B01209732
:1019C00041F0E881F981C80119950A80DB81C02DB9
:1019D000F6CFDF91CF911F910F910895CF93DF93B1
:1019E00000D01F92CDB7DEB7FB013397E830F10589
:1019F00008F045C1EE58FF4F10923C1310923B1374
:101A000005E412E00C946D3940913B1350913C1366
:101A10002091390B30913A0B42175307C4F41F93AE
:101A20000F9369837A838B839C8367DC20913B13BC
:101A300030913C132F5F3F4F30933C1320933B1367
:101A40000F900F909C818B817A816981DDCF2CE68C
:101A500032E025C040913B1350913C132091390B4B
:101A600030913A0B42175307C4F41F930F936983C5
:101A70007A838B839C8341DC20913B1330913C1310
:101A80002F5F3F4F30933C1320933B130F900F90E9
:101A90009C818B817A816981DDCF23E832E03F939D
:101AA0002F9369837A838B839C8327DC0F900F901D
:101AB00069817A8122C140913B1350913C1320915E
:101AC000390B30913A0B42175307C4F41F930F930D
:101AD00069837A838B839C8310DC20913B13309144
:101AE0003C132F5F3F4F30933C1320933B130F90D9
:101AF0000F909C818B817A816981DDCF23EA32E06E
:101B0000CECF40913B1350913C132091390B309133
:101B10003A0B42175307C4F41F930F9369837A83D8
:101B20008B839C83EADB20913B1330913C132F5F26
:101B30003F4F30933C1320933B130F900F909C81A9
:101B40008B817A816981DDCF22EC32E0A8CF409190
:101B50003B1350913C132091390B30913A0B4217B3
:101B60005307C4F41F930F9369837A838B839C83F9
:101B7000C4DB20913B1330913C132F5F3F4F3093D8
:101B80003C1320933B130F900F909C818B817A81A3
:101B90006981DDCF2EED32E082CF40913B13509131
:101BA0003C132091390B30913A0B42175307C4F480
:101BB0001F930F9369837A838B839C839EDB209191
:101BC0003B1330913C132F5F3F4F30933C132093D6
:101BD0003B130F900F909C818B817A816981DDCFBF
:101BE00028EF32E05CCF40913B1350913C132091A1
:101BF000390B30913A0B42175307C4F41F930F93DC
:101C000069837A838B839C8378DB20913B133091AB
:101C10003C132F5F3F4F30933C1320933B130F90A7
:101C20000F909C818B817A816981DDCF24E133E043
:101C300036CF40913B1350913C132091390B30919A
:101C40003A0B42175307C4F41F930F9369837A83A7
:101C50008B839C8352DB20913B1330913C132F5F8D
:101C60003F4F30933C1320933B130F900F909C8178
:101C70008B817A816981DDCF2EE233E010CF109223
:101C80003C1310923B1305E412E040913B1350913A
:101C90003C132091390B30913A0B42175307C4F48F
:101CA0001F930F9369837A838B839C8326DB209118
:101CB0003B1330913C132F5F3F4F30933C132093E5
:101CC0003B130F900F909C818B817A816981DDCFCE
:101CD0009F938F937F936F932DE433E03F932F93E4
:101CE00069837A838B839C8308DB0F900F900F901E
:101CF0000F900F900F907A81698120913D132330CE
:101D000050F460933D1360E070E080916208909120
:101D100063084FDEF8CFCB010E941C3D80919308F1
:101D200008952F923F924F925F926F927F928F927F
:101D30009F92AF92BF92CF92DF92EF92FF920F935A
:101D40001F93CF93DF93CDB7DEB72B970FB6F894E1
:101D5000DEBF0FBECDBF60E070E082E00E940A33BC
:101D60008823C9F3FF24F39485E0E82E1E0188E060
:101D7000280E311C05E412E09DE7492E94E0592E0F
:101D800026EDA22E23E0B22E3FE9832E33E0932EE0
:101D90004CE6642E43E0742E60E070E082E00E9426
:101DA0000A33882309F4B6C182E00E94F53290918B
:101DB00008029111A3C0863039F4F0920802F09223
:101DC0000102F0929008E8CF853161F5809101021F
:101DD000803819F0880F8093010210923C13109202
:101DE0003B1320913B1330913C138091390B909120
:101DF0003A0B281739077CF41F930F937EDA8091F2
:101E00003B1390913C13019690933C1380933B13AA
:101E10000F900F90E6CF809101021F928F937F92D7
:101E20006F922DC08831D9F580910102803819F068
:101E3000880F8093010210923C1310923B13209163
:101E40003B1330913C138091390B90913A0B28173A
:101E500039077CF41F930F9350DA80913B139091D4
:101E60003C13019690933C1380933B130F900F907B
:101E7000E6CF809101021F928F939F928F923DDA5D
:101E80006091010270E080E090E095DAF092080243
:101E9000109290080F900F900F900F907DCF81308F
:101EA00031F482E0809308021092761375CF10927D
:101EB0003C1310923B1340913B1350913C132091E3
:101EC000390B30913A0B4217530794F41F930F9339
:101ED0008B8713DA20913B1330913C132F5F3F4FD8
:101EE00030933C1320933B130F900F908B85E3CFDF
:101EF0001F928F93BF92AF9200DACCCF913009F04E
:101F000055C0813071F2883131F510923C13109236
:101F10003B1320913B1330913C138091390B9091EE
:101F20003A0B281739077CF41F930F93E6D9809159
:101F30003B1390913C13019690933C1380933B1379
:101F40000F900F90E6CFA0E0B4E0BF93AF93D5D948
:101F50001092080228C0863009F01ECF10923C1360
:101F600010923B1320913B1330913C138091390B1D
:101F700090913A0B281739077CF41F930F93BDD922
:101F800080913B1390913C13019690933C13809366
:101F90003B130F900F90E6CFA2E4B4E0BF93AF9352
:101FA000ACD9F09290080F900F90F6CE923029F4B1
:101FB00083508093761383E024C0933021F4809380
:101FC000701384E01EC0943041F48093771386E050
:101FD0008093080210924013DFCE9630A9F4E0916E
:101FE000401391E09E0F90934013F0E0EF5BFC4EA6
:101FF0008083809176138150809376138111CCCEAB
:1020000087E080930802C8CE973009F0C5CE66E01D
:1020100082E00E948A32F09208028091701381114E
:1020200017C080917713833141F48091421390E07F
:1020300090938F0880938E080BC0843049F44091B0
:102040004013445065E473E1809142130E94901B59
:1020500080917713803271F580919208811107C0C9
:102060008091451380939308F092920823C01092B8
:102070003C1310923B1320913B1330913C13809101
:10208000390B90913A0B281739077CF41F930F9363
:1020900034D980913B1390913C13019690933C135B
:1020A00080933B130F900F90E6CF5F924F9225D90C
:1020B0000F900F9090917713903509F06DCE80912D
:1020C0004213813019F480938D0866CE863009F072
:1020D00063CEF982EA821B829C831D8280917513F4
:1020E0008E839AEA98279F838F5F80937513CE0122
:1020F00001966C01D6016D916D0182E00E948A32D9
:10210000C214D304B9F71092890810928D08109266
:102110008C0842CE2B960FB6F894DEBF0FBECDBF13
:10212000DF91CF911F910F91FF90EF90DF90CF90B3
:10213000BF90AF909F908F907F906F905F904F90E7
:102140003F902F900895EF92FF920F931F93CF939C
:10215000DF93CDB7DEB72A970FB6F894DEBF0FBE78
:10216000CDBF81E0898384E08A831B8282E48C83F3
:10217000809175138D8399EB98279E838F5F809351
:1021800075138E010F5F1F4F7E0188E0E80EF11C72
:10219000F80161918F0182E00E948A320E151F05BD
:1021A000B9F710928C082A960FB6F894DEBF0FBECE
:1021B000CDBFDF91CF911F910F91FF90EF900895C8
:1021C000BF92CF92DF92EF92FF920F931F93CF9324
:1021D000DF93CDB7DEB72A970FB6F894DEBF0FBEF8
:1021E000CDBFD82EC62EB42E81E0898388E08A83A5
:1021F0001B8283E08C83DD826E834F8318868091FF
:102200007513898794EF9827942796279D259A8799
:102210008F5F809375138E010F5F1F4F7E018BE0E0
:10222000E80EF11CF80161918F0182E00E948A3270
:102230000E151F05B9F710928C0810923C131092DE
:102240003B1305E412E0E0913B13F0913C13209125
:10225000390B30913A0BE217F30784F41F930F9375
:102260004CD820913B1330913C132F5F3F4F30935C
:102270003C1320933B130F900F90E5CF1F92BF921A
:102280001F92CF921F92DF928BEA94E09F938F93DD
:1022900034D80FB6F894DEBF0FBECDBF2A960FB666
:1022A000F894DEBF0FBECDBFDF91CF911F910F918C
:1022B000FF90EF90DF90CF90BF9008952F923F92C4
:1022C0004F925F926F927F928F929F92AF92BF9246
:1022D000CF92DF92EF92FF920F931F93CF93DF93F2
:1022E000CDB7DEB72A970FB6F894DEBF0FBECDBFCD
:1022F00080918908882329F14FD8C0907113D0901C
:102300007213E0907313F0907413160127015601B5
:102310006201E12CF12C00E010E00E949E39203D8A
:10232000374041055105610571058105910509F0A9
:1023300008F47EC010923C1310923B1305E412E0A7
:102340002DC02AD8209371133093721340937313C6
:102350005093741381E080938908898395E09A8370
:102360001B8290E59C838D83809175138E839BEAFD
:1023700098279F838F5F809375138E010F5F1F4F88
:102380004E01F8E08F0E911CF80161918F0182E0FF
:102390000E948A3208151905B9F7AECF20913B1378
:1023A00030913C138091390B90913A0B28173907E3
:1023B00084F41F930F930E947D0980913B139091A9
:1023C0003C13019690933C1380933B130F900F9016
:1023D000E5CF8CEC94E09F938F930E947D0981E080
:1023E000898385E08A831B8280E58C831D828091AE
:1023F00075138E839AEA98279F838F5F8093751356
:102400008E010F5F1F4F4E01F8E08F0E911C0F9051
:102410000F90F80161918F0182E00E948A320815C5
:102420001905B9F71092890810928D0810928C083E
:102430002A960FB6F894DEBF0FBECDBFDF91CF91C5
:102440001F910F91FF90EF90DF90CF90BF90AF90D2
:102450009F908F907F906F905F904F903F902F90C4
:10246000089580918C08882321F080918908882321
:1024700091F1C5D780918A08882369F180917D0800
:1024800090917E08A0917F08B091800840918108CA
:10249000509182086091830870918408841B950B89
:1024A000A60BB70B88389341A105B10578F480914C
:1024B0008908882349F010927113109272131092B8
:1024C00073131092741305C081E001C082E0809301
:1024D0008C0810928A0880918C08813011F4EEDE0D
:1024E00005C0823019F42FDE10928C088091890883
:1024F0008111E4DE60E070E082E00E940A3388230C
:1025000019F081E090E00DCC08952F923F924F9208
:102510005F926F927F928F929F92AF92BF92CF9273
:10252000DF92EF92FF920F931F93CF93DF931F924F
:10253000CDB7DEB78C016B01E5E0EE2EF12CF6EDA8
:102540002F2EF4E03F2E44244394460E842D809594
:1025500089834B019FEF891A990AAEE46A2EA5E0A0
:102560007A2E60E070E082E00E940A33882319F03E
:1025700080E090E0D6DB80910802813009F45CC0F5
:1025800010923C1310923B1320913B1330913C135B
:102590008091390B90913A0B2817390794F4A5E4F0
:1025A000B2E0BF93AF930E947D0980913B1390915D
:1025B0003C13019690933C1380933B130F900F9024
:1025C000E3CF809108021F928F933F922F920E9437
:1025D0007D0910923C1310923B130F900F900F90B7
:1025E0000F9020913B1330913C138091390B9091C7
:1025F0003A0B2817390794F4A5E4B2E0BF93AF93E0
:102600000E947D0980913B1390913C130196909319
:102610003C1380933B130F900F90E3CFABE0B5E0FA
:10262000BF93AF930E947D0964E670E080E090E084
:102630000E94DB090F900F9061E082E00E948A32D5
:10264000642D82E00E948A3259805801C501801BA6
:10265000910B8C159D0544F4D5016D915D015626B5
:1026600082E00E948A32F2CF652D82E00E948A3297
:1026700010923C1310923B1320913B1330913C136A
:102680008091390B90913A0B2817390794F4A5E4FF
:10269000B2E0BF93AF930E947D0980913B1390916C
:1026A0003C13019690933C1380933B130F900F9033
:1026B000E3CF9F928F92A1E4B5E0BF93AF930E94C6
:1026C0007D090F900F900F900F905801C501801B4E
:1026D000910B10923C1310923B138C159D056CF5D9
:1026E00020913B1330913C138091390B90913A0B20
:1026F0002817390794F4A5E4B2E0BF93AF930E9482
:102700007D0980913B1390913C13019690933C136B
:1027100080933B130F900F90E3CFD5018D915D0116
:102720001F928F93AAE4B5E0BF93AF930E947D09F7
:102730000F900F900F900F90C9CF20913B133091C5
:102740003C138091390B90913A0B2817390794F478
:10275000A5E4B2E0BF93AF930E947D0980913B1343
:1027600090913C13019690933C1380933B130F90F0
:102770000F90E3CF1F925F927F926F920E947D092C
:10278000109208021092900868EE73E082E00E94B6
:102790000A330F900F900F900F908823D9F161DECC
:1027A00080919008813009F44FC110923C1310922F
:1027B0003B1320913B1330913C138091390B909146
:1027C0003A0B2817390794F4A5E4B2E0BF93AF930E
:1027D0000E947D0980913B1390913C130196909348
:1027E0003C1380933B130F900F90E3CF80919008A0
:1027F0001F928F93809108021F928F93A6E5B5E0F8
:10280000BF93AF930E947D090F900F900F900F9090
:102810000F900F908091080281112CC081E080936D
:10282000080210923C1310923B1320913B133091FD
:102830003C138091390B90913A0B2817390794F487
:10284000A5E4B2E0BF93AF930E947D0980913B1352
:1028500090913C13019690933C1380933B130F90FF
:102860000F90E3CF89E795E09F938F930E947D09B6
:102870000F900F90F1E0EF1AF10810923C131092B4
:102880003B138FEFE816F80609F0B4C075E4E72EA5
:1028900072E0F72E20913B1330913C138091390B5D
:1028A00090913A0B2817390784F4FF92EF920E9417
:1028B0007D0980913B1390913C13019690933C13BA
:1028C00080933B130F900F90E5CF82E995E09F93A3
:1028D0008F930E947D090F900F90480155E4E52EDB
:1028E00052E0F52E6AE4A62E65E0B62EC401801BE8
:1028F000910B10923C1310923B138C159D054CF5D7
:1029000020913B1330913C138091390B90913A0BFD
:102910002817390784F4FF92EF920E947D09809175
:102920003B1390913C13019690933C1380933B137F
:102930000F900F90E5CFD4018D914D011F928F9391
:10294000BF92AF920E947D090F900F900F900F9051
:10295000CDCF05E412E020913B1330913C138091E0
:10296000390B90913A0B2817390784F41F930F9372
:102970000E947D0980913B1390913C1301969093A6
:102980003C1380933B130F900F90E5CF8EEA95E0B8
:102990009F938F930E947D0910923C1310923B13DA
:1029A0000F900F9005E412E020913B1330913C13FF
:1029B0008091390B90913A0B2817390784F41F93B3
:1029C0000F930E947D0980913B1390913C130196D7
:1029D00090933C1380933B130F900F90E5CF86EAC2
:1029E00095E09F938F930E947D090F900F908FEF3A
:1029F0009FEF2CC020913B1330913C138091390BF9
:102A000090913A0B2817390794F4A5E4B2E0BF93EC
:102A1000AF930E947D0980913B1390913C130196E6
:102A200090933C1380933B130F900F90E3CFFF9252
:102A3000EF9280EB95E09F938F930E947D090F901A
:102A40000F900F900F908DCD80E090E00F90DF9170
:102A5000CF911F910F91FF90EF90DF90CF90BF909B
:102A6000AF909F908F907F906F905F904F903F902E
:102A70002F900895FF920F931F93CF93DF9300D071
:102A80001F92CDB7DEB740E052EC61E070E082E02B
:102A90000E94AB3294D410923C1310923B1305E485
:102AA00012E020913B1330913C138091390B9091AF
:102AB0003A0B2817390784F41F930F930E947D095E
:102AC00080913B1390913C13019690933C1380931B
:102AD0003B130F900F90E5CF84ED95E09F938F937C
:102AE0000E947D0965E182E00E948A3210923C13C7
:102AF00010923B130F900F9005E412E020913B13CE
:102B000030913C138091390B90913A0B281739077B
:102B100084F41F930F930E947D0980913B13909141
:102B20003C13019690933C1380933B130F900F90AE
:102B3000E5CF81EE95E09F938F930E947D090F90E2
:102B40000F9066E970E082E00E940A33882321F04A
:102B500082E00E94F532F5CF8AE28093751381E01E
:102B6000809308021B8280E28C837BDC10923C13F2
:102B700010923B1305E412E020913B1330913C137B
:102B80008091390B90913A0B2817390784F41F93E1
:102B90000F930E947D0980913B1390913C13019605
:102BA00090933C1380933B130F900F90E5CF85EFEC
:102BB00095E09F938F930E947D090F900F9000E006
:102BC0001AE0B8E0FB2E8091920881111DC080911F
:102BD0009208811112C0112309F45AC062E070E01A
:102BE000CE01039692DC66E970E082E00E940A332F
:102BF000811137DC1150EBCF1AE0809193088013DC
:102C000010929208082FDFCF10923C1310923B13C2
:102C100005E412E020913B1330913C138091390B75
:102C200090913A0B2817390784F41F930F930E9451
:102C30007D0980913B1390913C13019690933C1336
:102C400080933B130F900F90E5CF809193081F92D4
:102C50008F938FE096E09F938F930E947D09609100
:102C6000000270E080E090E00E94DB0940E06FEF3E
:102C700080E0A6DA0F900F900F900F900F900F90BA
:102C80000F900F90DF91CF911F910F91FF900895BA
:102C90001982FA8262E070E0CE01019636DC66E9C4
:102CA00070E082E00E940A33882309F4A5CF82E015
:102CB0000E94F532F4CFEF92FF920F931F93CF93C0
:102CC000DF93CDB7DEB7E2970FB6F894DEBF0FBE45
:102CD000CDBFEFEFFFEFF0938F08E0938E081982DE
:102CE00093E19A838B8381E0840F8C8388E88D83C2
:102CF000FE013696DB011E2F3F2F50E0CD01861BD3
:102D0000970B841795071CF48D918193F7CFE12FD2
:102D1000F32FE40FF51F20838091751391E0980F36
:102D200090937513FE01E40FF51F8783BA01695F65
:102D30007F4FCE010196E9DB8C01009709F04DC071
:102D400089EEE82E83E0F82E80918E0890918F080E
:102D50008F3F2FEF920771F481E0E81AF108E11438
:102D6000F10451F07EDB61E070E080E090E00E94D1
:102D7000DB09EACF892B99F110923C1310923B1397
:102D800005E412E020913B1330913C138091390B04
:102D900090913A0B2817390784F41F930F930E94E0
:102DA0007D0980913B1390913C13019690933C13C5
:102DB00080933B130F900F90E5CF80918F088F93F6
:102DC00080918E088F9385E296E09F938F930E9467
:102DD0007D090F900F900F900F900FEF1FEFC8011C
:102DE000E2960FB6F894DEBF0FBECDBFDF91CF9154
:102DF0001F910F91FF90EF9008958F929F92AF9245
:102E0000BF92CF92DF92EF92FF920F931F93CF93D7
:102E1000DF93882EEB01942E10923C1310923B13FB
:102E200005E412E020913B1330913C138091390B63
:102E300090913A0B2817390784F41F930F930E943F
:102E40007D0980913B1390913C13019690933C1324
:102E500080933B130F900F90E5CFE92CF12C1F923C
:102E60008F921F929F9286E696E09F938F930E9487
:102E70007D090F900F900F900F900F900F908E0183
:102E800035E4C32E32E0D32E48ECA42E44E0B42E19
:102E9000C8018C1B9D0B10923C1310923B138E1596
:102EA0009F054CF520913B1330913C138091390BD9
:102EB00090913A0B2817390784F4DF92CF920E9441
:102EC0007D0980913B1390913C13019690933C13A4
:102ED00080933B130F900F90E5CFF80181918F0104
:102EE0001F928F93BF92AF920E947D090F900F9017
:102EF0000F900F90CDCF05E412E020913B1330915D
:102F00003C138091390B90913A0B2817390784F4C0
:102F10001F930F930E947D0980913B1390913C1366
:102F2000019690933C1380933B130F900F90E5CF45
:102F30008EEA95E09F938F930E947D0910923C1337
:102F400010923B130F900F9005E412E020913B1379
:102F500030913C138091390B90913A0B2817390727
:102F600084F41F930F930E947D0980913B139091ED
:102F70003C13019690933C1380933B130F900F905A
:102F8000E5CF1F928F921F929F928FE796E09F93BB
:102F90008F930E947D090F900F900F900F900F90CC
:102FA0000F908E0195E4C92E92E0D92E24E9A22E2D
:102FB00026E0B22EC8018C1B9D0B8E159F056CF56B
:102FC00010923C1310923B1320913B1330913C1311
:102FD0008091390B90913A0B2817390784F4DF92CE
:102FE000CF920E947D0980913B1390913C130196F2
:102FF00090933C1380933B130F900F90E5CFF80113
:1030000081918F011F928F93BF92AF920E947D0991
:103010000F900F900F900F90CDCF25E0492DBE015E
:10302000882D49DEDF91CF911F910F91FF90EF9096
:10303000DF90CF90BF90AF909F908F900895EF92C8
:10304000FF920F931F93CF93DF93CDB7DEB7E29735
:103050000FB6F894DEBF0FBECDBFEFEFFFEFF093DA
:103060008F08E0938E08198293E19A838B834C83B7
:10307000FE013596DB011E2F3F2F50E0CD01861B50
:10308000970B841795071CF48D918193F7CFE12F4F
:10309000F32FE40FF51F20838091751391E0980FB3
:1030A00090937513FE01E40FF51F8683BA016A5FE2
:1030B0007F4FCE01019629DA8C01009709F04DC0AF
:1030C00059EEE52E53E0F52E80918E0890918F08F1
:1030D0008F3F2FEF920771F481E0E81AF108E114B5
:1030E000F10451F0BED961E070E080E090E00E9410
:1030F000DB09EACF892B99F110923C1310923B1314
:1031000005E412E020913B1330913C138091390B80
:1031100090913A0B2817390784F41F930F930E945C
:103120007D0980913B1390913C13019690933C1341
:1031300080933B130F900F90E5CF80918F088F9372
:1031400080918E088F9385E296E09F938F930E94E3
:103150007D090F900F900F900F900FEF1FEFC80198
:10316000E2960FB6F894DEBF0FBECDBFDF91CF91D0
:103170001F910F91FF90EF9008958F929F92AF92C1
:10318000BF92CF92DF92EF92FF920F931F93CF9354
:10319000DF93882EEB01942E10923C1310923B1378
:1031A00005E412E020913B1330913C138091390BE0
:1031B00090913A0B2817390784F41F930F930E94BC
:1031C0007D0980913B1390913C13019690933C13A1
:1031D00080933B130F900F90E5CFE92CF12C1F92B9
:1031E0008F921F929F9286E696E09F938F930E9404
:1031F0007D090F900F900F900F900F900F908E0100
:10320000E5E4CE2EE2E0DE2EF8ECAF2EF4E0BF2EA9
:10321000C8018C1B9D0B10923C1310923B138E1512
:103220009F054CF520913B1330913C138091390B55
:1032300090913A0B2817390784F4DF92CF920E94BD
:103240007D0980913B1390913C13019690933C1320
:1032500080933B130F900F90E5CFF80181918F0180
:103260001F928F93BF92AF920E947D090F900F9093
:103270000F900F90CDCF05E412E020913B133091D9
:103280003C138091390B90913A0B2817390784F43D
:103290001F930F930E947D0980913B1390913C13E3
:1032A000019690933C1380933B130F900F90E5CFC2
:1032B0008EEA95E09F938F930E947D0910923C13B4
:1032C00010923B130F900F9005E412E020913B13F6
:1032D00030913C138091390B90913A0B28173907A4
:1032E00084F41F930F930E947D0980913B1390916A
:1032F0003C13019690933C1380933B130F900F90D7
:10330000E5CF1F928F921F929F928FE796E09F9337
:103310008F930E947D090F900F900F900F900F9048
:103320000F908E0165E4C62E62E0D62E74E9A72EBA
:1033300076E0B72EC8018C1B9D0B8E159F056CF592
:1033400010923C1310923B1320913B1330913C138D
:103350008091390B90913A0B2817390784F4DF924A
:10336000CF920E947D0980913B1390913C1301966E
:1033700090933C1380933B130F900F90E5CFF8018F
:1033800081918F011F928F93BF92AF920E947D090E
:103390000F900F900F900F90CDCF25E0492DBE01DB
:1033A000882D4DDEDF91CF911F910F91FF90EF900F
:1033B000DF90CF90BF90AF909F908F900895CF9364
:1033C000DF936C98749A9D98A59AC8E0D1E08FE03D
:1033D0008883E7E0F1E080818068808388818F774F
:1033E000888364E670E080E090E00E94DB098881D9
:1033F000806888830998119ADF91CF9108952F9260
:103400003F924F925F926F927F928F929F92AF9274
:10341000BF92CF92DF92EF92FF920F931F93CF93C1
:10342000DF9340919C0850919D0860919E08709197
:103430009F088091980890919908A0919A08B0915E
:103440009B08452B462B472B09F06BC00097A10525
:10345000B10509F066C095991CC00E94CC09209363
:103460009C0830939D0840939E0850939F080E94AB
:10347000CC092093810830938208409383085093AD
:10348000840881E080938B08809108018E7F80936F
:1034900008016499FEC00E94CC09209398083093DB
:1034A000990840939A0850939B080E94CC09209356
:1034B000810830938208409383085093840881E008
:1034C00080938B08809108018E7F80930801109271
:1034D0003C1310923B13C5E4D2E020913B13309192
:1034E0003C138091390B90913A0B2817390784F4DB
:1034F000DF93CF930E947D0980913B1390913C1301
:10350000019690933C1380933B130F900F90E5CF5F
:103510008AE996E09F938F930E947D090F900F9008
:10352000B8C0892B8A2B8B2B09F470C0649BB1C067
:103530000E94CC09C0909808D0909908E0909A0811
:10354000F0909B08E4E6CE0ED11CE11CF11C1601A4
:10355000270156016201E12CF12C00E010E00E94ED
:10356000A73909F008F447C0C1E0C0938A080E9457
:10357000CC0920937D0830937E0840937F085093B8
:10358000800810928B08C0938A0820939408309387
:1035900095084093960850939708809108018E7F74
:1035A0008093080110923C1310923B13C5E4D2E0C3
:1035B00020913B1330913C138091390B90913A0B41
:1035C0002817390784F4DF93CF930E947D098091F7
:1035D0003B1390913C13019690933C1380933B13C3
:1035E0000F900F90E5CF81EA96E09F938F930E9412
:1035F0007D090F900F9010929808109299081092E0
:103600009A0810929B0810928B0843C0959B41C06A
:103610000E94CC09C0909C08D0909D08E0909E0824
:10362000F0909F08E4E6CE0ED11CE11CF11C1601BF
:10363000270156016201E12CF12C00E010E00E940C
:10364000A73939F130F1C1E0C0938A080E94CC0952
:1036500020937D0830937E0840937F085093800824
:1036600010929C0810929D0810929E0810929F083C
:1036700010928B08C0938A08209394083093950881
:103680004093960850939708809108018E7F80930D
:1036900008018091940890919508A0919608B091A6
:1036A0009708892B8A2B8B2B19F10E94CC09C0908B
:1036B0009408D0909508E0909608F090970816012D
:1036C000270156016201E12CF12C00E010E00E947C
:1036D000A73971F068F0809108018160809308013A
:1036E00010929408109295081092960810929708DC
:1036F000DF91CF911F910F91FF90EF90DF90CF90CE
:10370000BF90AF909F908F907F906F905F904F9001
:103710003F902F900895089590E008956ECB2DCDA1
:1037200090E0CCC00E948E0E90E00895A3C90C9446
:103730003112F5DF90E00895EF92FF920F931F93FF
:10374000CF93DF93CDB7DEB7AC970FB6F894DEBF5B
:103750000FBECDBF7C01CA012932A8F469830A8358
:103760001B83422F50E0BC01CE0104962CA70E947F
:10377000BC392CA543E0420FBE016F5F7F4FC701EC
:10378000CDDF90E002C083E090E0AC960FB6F894F5
:10379000DEBF0FBECDBFDF91CF911F910F91FF9084
:1037A000EF9008950F931F930091A2081091A30822
:1037B0000F5F1F4F1093A3080093A208BDDF1F9156
:1037C0000F9108950F931F93FC0102811381808153
:1037D0009181B2DF1F910F9108952F923F924F92E6
:1037E0005F926F927F928F929F92AF92BF92CF9291
:1037F000DF92EF92FF920F931F93CF93DF93180105
:10380000E501F0927913E0927813C0928013109240
:1038100085130091A2081091A3080F5F1F4F10930A
:10382000A3080093A20810937B1300937A1384DFFC
:10383000882321F0992787FD90952DC00E94CC09FF
:103840005101C12CD12CE12CF12C00E010E00E94A0
:10385000953919012A013B014C0169DF80918513DB
:10386000882349F081E893E199838883109280133B
:1038700080E090E010C00E94CC0959016A017B01F0
:103880008C019101A201B301C4010E94A73909F082
:1038900020F784E090E0DF91CF911F910F91FF908E
:1038A000EF90DF90CF90BF90AF909F908F907F90E0
:1038B0006F905F904F903F902F900895CF93DF933C
:1038C000CDB7DEB728970FB6F894DEBF0FBECDBFD9
:1038D000FB0150E0242F30E0652F772767FD7095BE
:1038E0006217730714F45F5FF7CF9A83898350815F
:1038F0005D83828190E0982F88272181820F911D1E
:103900009C838B833396FF83EE83435048872091BB
:103910008013211112C0BE016F5F7F4F8091A008FC
:103920009091A1080E94D90C28960FB6F894DEBF9A
:103930000FBECDBFDF91CF9108952091A2083091A5
:10394000A3088217930739F780E090E048E02091C0
:10395000801330E082179307F4F6E0917813F0912A
:103960007913E80FF91F208152130BC0FE01319625
:10397000A1E8B3E1242F01900D922A95E1F710926E
:1039800080130196E4CFD3CECDCE6F927F929F92DB
:10399000AF92BF92CF92DF92EF92FF920F931F935D
:1039A000CF93DF93982E6B01C0E0D0E08091A40804
:1039B0009091A508C817D90708F05CC05E01AA0C51
:1039C000BB1C00E010E0E12CF12C2091A808309104
:1039D000A908C90102968A0D9B1DA0E0B0E0ABBF0B
:1039E000FC01A791B691AD01420F531F60E070E05A
:1039F0006BBFFA01479150E0E416F5060CF038C0B1
:103A00002D5F3F4F200F311F2A0F3B1FC901A0E040
:103A1000B0E0ABBFFC0167907690B6DF6816790620
:103A200009F52091A8083091A908C90102968A0DCC
:103A30009B1DA0E0B0E0ABBFFC01879196912B5F8E
:103A40003F4F200F311F280F391FC901A0E0B0E000
:103A5000ABBFFC018791891105C0F601D183C083FA
:103A600081E009C0FFEFEF1AFF0A0D5F1F4FADCFD6
:103A700021969CCF80E0DF91CF911F910F91FF9015
:103A8000EF90DF90CF90BF90AF909F907F906F901E
:103A900008959F92AF92BF92CF92DF92EF92FF92E2
:103AA0000F931F93CF93DF9300D0CDB7DEB7962E41
:103AB000BE016F5F7F4F69DFA12CB12C00E010E0E9
:103AC0008091A6089091A7080817190708F071C0FF
:103AD0004091AA085091AB084A0D5B1DCA01079698
:103AE000A0E0B0E0ABBFFC01879189115CC0CA01C6
:103AF0000596A0E0B0E0ABBFFC01879196912981CB
:103B00003A818217930709F04EC06A0182E0C80E1D
:103B1000D11CE12CF12CEBBEF601C790D6904C5F86
:103B20005F4F60E070E06BBFFA0147912091A808F9
:103B30003091A908CC0CDD1CC90102968C0D9D1D8D
:103B4000A0E0B0E0ABBFFC01879196912D5F3F4FA5
:103B5000280F391FC901A0E0B0E0ABBFFC01E7901E
:103B6000F6904B8311DF4B81E816F906E1F0809166
:103B7000A8089091A9088C010E5F1F4F0C0D1D1D08
:103B800020E030E02BBFF801079116910596800FD9
:103B9000911F8C0120E030E02BBFF8016791C70135
:103BA0000E94182E07C00F5F1F4F86E0A80EB11CA1
:103BB00087CF8FEF0F900F900F90DF91CF911F91D4
:103BC0000F91FF90EF90DF90CF90BF90AF909F90BC
:103BD00008952F923F924F925F926F927F928F92B1
:103BE0009F92AF92BF92CF92DF92EF92FF920F938C
:103BF0001F93CF93DF93CDB7DEB762970FB6F894DC
:103C0000DEBF0FBECDBF662E7A01DC0112968C900E
:103C1000BE016B5F7F4F882DB8DE882309F481C217
:103C2000BE016D5F7F4F882D0E94BC27EB81FC8118
:103C30000190F081E02D408051801F861E861D86F8
:103C40001C861B86E62DF0E0F98BE88B55248091CD
:103C5000A6089091A708AC85BD85A817B90708F0FC
:103C60005EC22091AA083091AB084E855F85240F73
:103C7000351FC9010496A0E0B0E0ABBFFC018791FD
:103C8000861140C2C9010296A0E0B0E0ABBFFC01C2
:103C9000879196914D815E818417950709F032C214
:103CA000C9010596A0E0B0E0ABBFFC014791569179
:103CB000C9010796A0E0B0E0ABBFFC019790A090CF
:103CC000A808B090A908C5010296440F551F5A874D
:103CD0004987840F951FA0E0B0E0ABBFFC0187913E
:103CE00096915FEFA51AB50AA80EB91EC501A0E00E
:103CF000B0E0ABBFFC01A790B690212C312C188608
:103D00001F82BB24C090A808D090A908C6010296C3
:103D1000A985BA858A0F9B1FA0E0B0E0ABBFFC016C
:103D200087919691AC014C0D5D1D60E070E06BBF1A
:103D3000FA01479150E0EF81F885E417F5070CF0A0
:103D4000E1C1A6014B5F5F4F420D531D480F591F44
:103D500060E070E06BBFFA0177900B811C81A3E0FB
:103D6000CA0ED11CC20CD31CC80ED91EC601A0E0BD
:103D7000B0E0ABBFFC01C790D69006DEC816D906EE
:103D800009F067C0BE016F5F7F4F872D0E94BC277F
:103D900081115DC010923C1310923B1320913B1394
:103DA00030913C138091390B90913A0B28173907C9
:103DB00094F4A5E4B2E0BF93AF930E947D09809193
:103DC0003B1390913C13019690933C1380933B13CB
:103DD0000F900F90E3CFD70111968C9111978F938D
:103DE0008C918F931F929F921F927F921F926F923E
:103DF0001F928F92A7EAB6E0BF93AF930E947D090E
:103E0000D801ED91FC9128893989E20FF31F438590
:103E100050E04F730FB6F894DEBF0FBECDBF89815F
:103E20009A814130510531F4D7012C9141E0692D3F
:103E300011D7D7C0F70120813181452B21F441E012
:103E4000692DBDD6CEC041E0692D4CD7CAC080E0F7
:103E5000C8C010923C1310923B13F1E0CF16D1046E
:103E600009F061C020913B1330913C138091390BD4
:103E700090913A0B2817390794F4A5E4B2E0BF9368
:103E8000AF930E947D0980913B1390913C13019662
:103E900090933C1380933B130F900F90E3CFD70187
:103EA00011968C9111978F938C918F931F929F9263
:103EB0001F927F921F92B1E0BF931F926F921F9249
:103EC0008F92A7EEB6E0BF93AF930E947D09D80111
:103ED000ED91FC9128893989E20FF31F838590E0E9
:103EE0008F730FB6F894DEBF0FBECDBF8130910542
:103EF00049F4D7012C91482DB20181E090E00E9455
:103F0000D52D6FC0F70120813181482DB201892B59
:103F100029F481E090E00E94B42D63C081E090E03C
:103F20000E94F62D5EC020913B1330913C1380918E
:103F3000390B90913A0B2817390794F4A5E4B2E0B5
:103F4000BF93AF930E947D0980913B1390913C13E6
:103F5000019690933C1380933B130F900F90E3CF07
:103F6000D70111968C9111978F938C918F931F92FB
:103F70009F921F927F92DF92CF921F926F921F9219
:103F80008F92ADE2B7E0BF93AF930E947D09D80155
:103F9000ED91FC9128893989E20FF31F838590E028
:103FA0008F730FB6F894DEBF0FBECDBF8130910581
:103FB00049F4D7010C919501492D672DC6010E9446
:103FC0005F2D0FC0F701008111819501492D672DEB
:103FD000892B21F4C6010E94332D03C0C6010E9423
:103FE0008B2D10923C1310923B1340913B13509138
:103FF0003C132091390B30913A0B42175307ACF424
:10400000A5E4B2E0BF93AF938A8B0E947D09209113
:104010003B1330913C132F5F3F4F30933C13209361
:104020003B130F900F908A89E0CF1F928F93A2E7E6
:10403000B7E0BF93AF938A8B0E947D098A895B8525
:10404000582B5B8710923C1310923B130F900F90EC
:104050000F900F9020913B1330913C138091390BBE
:1040600090913A0B2817390794F4A5E4B2E0BF9376
:10407000AF930E947D0980913B1390913C13019670
:1040800090933C1380933B130F900F90E3CF2091BC
:10409000A8083091A908C901029649855A85840F5C
:1040A000951FA0E0B0E0ABBFFC01879196912D5F1A
:1040B0003F4F220D331D280F391FC901A0E0B0E08A
:1040C000ABBFFC01879196911F925B855F939F9395
:1040D0008F9388858F939F819F93A6E8B7E0BF93C6
:1040E000AF930E947D092F8138852F5F3F4F38871E
:1040F0002F8333E0230E311C0FB6F894DEBF0FBEC2
:10410000CDBF00CE2C853D852F5F3F4F3D872C874F
:104110004E855F854A5F5F4F5F874E8798CD8B8561
:1041200001C080E062960FB6F894DEBF0FBECDBF2F
:10413000DF91CF911F910F91FF90EF90DF90CF9083
:10414000BF90AF909F908F907F906F905F904F90B7
:104150003F902F900895FF920F931F93CF93DF937B
:1041600000D0CDB7DEB7BE016D5F7F4FCE010196A7
:104170000E946F298823F1F06B8189819A810E94C6
:10418000FA298C01FC01208189819A8124FF06C0D3
:10419000A8014F5F5F4F6B811CDD04C06B81FC0188
:1041A000828177DCF82EC801F11002C029D6DBCF5E
:1041B00007D68F2D0F900F900F90DF91CF911F9109
:1041C0000F91FF9008950F931F93CF93DF9320914A
:1041D000A4083091A5082817390708F43CC0C091FD
:1041E000A808D091A908DC01AA0FBB1F8E010E5FA1
:1041F0001F4F0A0F1B1F20E030E02BBFF801079173
:104200001691CE010396800F911F8C0120E030E0C3
:104210002BBFF80107911691FB01118300832091B8
:10422000A8083091A908C90102968A0F9B1FA0E037
:10423000B0E0ABBFFC01879196912B5F3F4F280FF9
:10424000391FC901A0E0B0E0ABBFFC018791FA01C2
:10425000808380E001C08FE0DF91CF911F910F91AB
:1042600008954091A8085091A9089A012E5F3F4FE8
:10427000880F991F280F391FC901A0E0B0E0ABBF1C
:10428000FC01879196919A012D5F3F4F280F391FAE
:10429000C901A0E0B0E0ABBFFC018791969121E09D
:1042A0008617970709F020E0822F0895BF92CF92DA
:1042B000DF92EF92FF920F931F93CF93DF931F92A2
:1042C0001F92CDB7DEB7B62EBE016F5F7F4F5DDBAD
:1042D000C980DA802091AA083091AB082B5F3F4F4C
:1042E000E090A608F090A70800E010E040E050E061
:1042F0004E155F0509F42FC0C9010296A0E0B0E099
:10430000ABBFFC0187918B111FC0C901A0E0B0E0D9
:10431000ABBFFC01879196918C159D05A9F434DB08
:104320004091AA085091AB084E5F5F4F400F511F5C
:1043300060E070E06BBFFA0147915691BC01CA0181
:1043400090DF91E0982708C04F5F5F4F0A5F1F4FD3
:104350002A5F3F4FCDCF90E0892F0F900F90DF91D4
:10436000CF911F910F91FF90EF90DF90CF90BF9072
:1043700008958F929F92AF92BF92DF92EF92FF9239
:104380000F931F93CF93DF931F921F92CDB7DEB78A
:104390009093A9088093A808A0E0B0E0ABBFFC010F
:1043A000879196919093A5088093A40800E010E06F
:1043B0008091A4089091A5080817190708F05AC021
:1043C0007801EE0CFF1CD12C2091A8083091A9088F
:1043D000C90102968E0D9F1DA0E0B0E0ABBFFC01AD
:1043E00047915691CA01820F931FA0E0B0E0ABBF86
:1043F000FC018791D81608F03AC083E0D89E50019E
:1044000011242D5F3F4F2A0D3B1D240F351FC9017D
:10441000A0E0B0E0ABBFFC0187909690B5DA8816BB
:10442000990619F52091A8083091A908C9010296AA
:104430008E0D9F1DA0E0B0E0ABBFFC01879196916F
:104440002B5F3F4F2A0D3B1D280F391FC901A0E0EC
:10445000B0E0ABBFFC018791BE016F5F7F4F8CD591
:10446000811103C089819A81DDD7D394ADCF0F5FCD
:104470001F4F9ECF80E00F900F90DF91CF911F9143
:104480000F91FF90EF90DF90BF90AF909F908F9033
:1044900008959093AB088093AA08A0E0B0E0ABBF6A
:1044A000FC01879196919093A7088093A60880E0DD
:1044B00008958F929F92AF92BF92DF92EF92FF92F8
:1044C0000F931F93CF93DF9300D01F92CDB7DEB72A
:1044D000E12CF12C8091A4089091A508E816F9062A
:1044E00008F0ADC08701000F111FD12C2091A80842
:1044F0003091A908C9010296800F911FA0E0B0E099
:10450000ABBFFC0147915691CA01820F931FA0E0F7
:10451000B0E0ABBFFC018791D81608F08CC083E0F7
:10452000D89E500111242D5F3F4F2A0D3B1D240FB3
:10453000351FC901A0E0B0E0ABBFFC0187909690A9
:1045400023DA8816990609F074C02091A8083091E2
:10455000A908C9010296800F911FA0E0B0E0ABBF8F
:10456000FC01879196912F5F3F4F280F391FC9019A
:10457000A0E0B0E0ABBFFC0187919691BE016D5FFA
:104580007F4F4DD481115CC0EB81FC81848195818A
:10459000892B09F44EC02091A8083091A908C901BF
:1045A0000296800F911FA0E0B0E0ABBFFC018791A5
:1045B00096912B5F3F4F2A0D3B1D280F391FC901D4
:1045C000A0E0B0E0ABBFFC018791BE016F5F7F4F01
:1045D000D3D48B809C80813049F0E981FA8180813D
:1045E00091818815990529F186E02AC02091A808B3
:1045F0003091A908C9010296800F911FA0E0B0E098
:10460000ABBFFC01879196912B5F3F4F2A0D3B1D5D
:10461000280F391FC901A0E0B0E0ABBFFC016791D2
:1046200020E040E050E0F4018081918120D78111A9
:1046300007C0D3945BCFFFEFEF1AFF0A4BCF80E0A8
:104640000F900F900F900F90DF91CF911F910F91CE
:10465000FF90EF90DF90BF90AF909F908F90089564
:104660002F923F924F925F926F927F928F929F9282
:10467000AF92BF92CF92DF92EF92FF920F931F9370
:10468000CF93DF93CDB7DEB728970FB6F894DEBF90
:104690000FBECDBF4C01A12CB12CABBEF401879055
:1046A00096905C0122E0A20EB11CE12CF12CE814E2
:1046B000F90409F4B0C0850120E030E02BBFF80117
:1046C00007911691250132E0430E511C612C712C8B
:1046D0006BBEF2014790A5014D5F5F4F60E070E057
:1046E0006BBFFA0187918B83A4E0AA0EB11C000F67
:1046F000111F512C642C712CC501A0E0B0E0ABBFA0
:10470000FC0127912C83ABBFFC01C790D6903C2CB9
:104710002D2C2091A8083091A908C9010296800F7C
:10472000911FA0E0B0E0ABBFFC0187919691AC0176
:10473000420F531F60E070E06BBFFA0147915416BF
:1047400008F062C063E0569EA00111242D5F3F4F28
:10475000240F351F280F391FC901A0E0B0E0ABBFFF
:10476000FC01279136912F8338874D835E830CD9C6
:104770002F8138854D815E812817390709F042C0A5
:104780002091A8083091A908C9010296800F911FB5
:10479000A0E0B0E0ABBFFC0167917691C90105963E
:1047A000840F951F860F971FA0E0B0E0ABBFFC0100
:1047B0008791BE016F5F7F4FDFD381112DC089814B
:1047C0009A81DC01ED91FC91E60DF71D23852F7395
:1047D000213071F040F02230A9F4232D322D41E038
:1047E000642D80D20DC0960141E0642DE8D108C04F
:1047F00021E0BC81B11101C020E041E0642D2AD24A
:1048000081110AC0539485CF2B81A20EB11C3FEFBA
:10481000E31AF30A4CCF80E028960FB6F894DEBF77
:104820000FBECDBFDF91CF911F910F91FF90EF9001
:10483000DF90CF90BF90AF909F908F907F906F90C0
:104840005F904F903F902F9008952F923F924F92FC
:104850005F926F927F928F929F92AF92BF92CF9210
:10486000DF92EF92FF920F931F93CF93DF931F92EC
:104870001F92CDB7DEB78C01962EE12CF12C8091E2
:104880003E1390913F130E94A70990E0E816F906A5
:104890009CF46E2D80913E1390913F130E94B909B4
:1048A0000197A0E0B0E0ABBFFC018791843039F004
:1048B0006FEFE61AF60AE3CFEE24EA94FE2CBE016F
:1048C0006F5F7F4FF801828160D87E2C6E2D8091C2
:1048D0003E1390913F130E94B9099C01A0E0B0E003
:1048E000ABBFFC0187919691A981BA8140E050E06D
:1048F00062E0E62EF12C6901F2E0CF0ED11C5901E5
:1049000063E0A60EB11C4817590709F434C017011B
:10491000220E331E412C512C4BBEF1016791769132
:1049200016012E0C3F1C412C512C4BBEF1016790FF
:1049300015012E0C3F1C412C512C4BBEF1018790D0
:10494000E4E0EE0EF11CA617B70781F496100EC036
:10495000692DC8014FD58C01B701872D31D6B8011B
:104960006F5F7F4F882D9AD606D705C0E80CF11CE3
:104970004F5F5F4FC8CF0F900F90DF91CF911F9186
:104980000F91FF90EF90DF90CF90BF90AF909F90EE
:104990008F907F906F905F904F903F902F900895F1
:1049A0009F92AF92BF92CF92DF92EF92FF920F93BE
:1049B0001F93CF93DF938C01B12CA12C912CC801B4
:1049C0000E94A709B816F8F46B2DC8010E94B90916
:1049D000EC016C0181E0C81AD108E12CF12CEBBE8E
:1049E000F6018791823021F4CE0153DD992493940E
:1049F000EBBEF6018791833021F4CE01BADCAA2404
:104A0000A394B394DCCF992011F0A11011C06FE6EC
:104A100070E080E090E0DF91CF911F910F91FF90C7
:104A2000EF90DF90CF90BF90AF909F900C94EE0CE2
:104A3000DF91CF911F910F91FF90EF90DF90CF907A
:104A4000BF90AF909F9008950F931F93CF93DF93E4
:104A5000EC012FDD882331F06EE670E080E090E01D
:104A60000E94EE0C10E000E0CE010E94A70918178A
:104A700090F4612FCE010E94B909AC014150510957
:104A800060E070E06BBFFA014791443011F4E8DD5B
:104A900001E01F5FE9CF01110AC06FE670E080E01E
:104AA00090E0DF91CF911F910F910C94EE0CDF916C
:104AB000CF911F910F910895CF93DF931F921F9273
:104AC000CDB7DEB71A82198260E070E0809162088B
:104AD000909163080E94D90C80913D138130A1F719
:104AE0003ADBCE01019620D3882371F389819A8124
:104AF0000F900F90DF91CF910895CF93DF93EC014A
:104B00004FDFCE01DF91CF919FCFCF93DF93EC01A9
:104B100047DFCE0199DFDF91CF91CECFFB0120811E
:104B20002F732061208341117DC208950F931F933D
:104B3000DC01ED91FC9186816817B0F4E60FF11D60
:104B40008385222349F0403819F487FF0FC004C041
:104B5000403411F486FF0CC010E090E08F7308170A
:104B6000190741F089E007C082E005C085E003C075
:104B700084E001C080E01F910F910895EF92FF92B1
:104B80000F931F93CF93DF93EC01162F790100E071
:104B9000242F40E8CBDF082F811109C0612FCE01FF
:104BA00029D4FC0121813281F70131832083802FB8
:104BB000DF91CF911F910F91FF90EF900895DF92B9
:104BC000EF92FF920F931F93CF93DF93EC01D62EBA
:104BD000142F790100E0242F40E4A8DF811113C0D5
:104BE0006D2DCE0107D4111106C0FC0161817281C7
:104BF0006E157F0539F0FC01F282E182412FBC0184
:104C0000CE018CDF80E0DF91CF911F910F91FF905B
:104C1000EF90DF900895EF92FF920F931F93CF9341
:104C2000DF93EC01162F790101E0242F40E87EDFAD
:104C3000082F811107C0612FCE01DCD3FC018181D7
:104C4000F7018083802FDF91CF911F910F91FF900B
:104C5000EF900895EF92FF920F931F93CF93DF93FE
:104C6000EC01E62E142FF22E01E0242F40E45EDF4B
:104C7000811110C06E2DCE01BDD3111104C0FC01F5
:104C800021812F1531F0FC01F182412FBC01CE01B1
:104C900045DF80E0DF91CF911F910F91FF90EF9062
:104CA0000895EF92FF920F931F93CF93DF93EC0140
:104CB000162F790102E0242F40E838DF082F8111F8
:104CC00009C0612FCE0196D3FC0121813281F70109
:104CD00031832083802FDF91CF911F910F91FF901F
:104CE000EF900895DF92EF92FF920F931F93CF936F
:104CF000DF93EC01162FD42E790102E0242F40E43B
:104D000015DF811116C0612FCE0174D38C01D11033
:104D100006C0FC01818192818E159F0549F0F80142
:104D2000F282E182CE018FD14D2DB801CE01F6DEA7
:104D300080E0DF91CF911F910F91FF90EF90DF9076
:104D40000895CF93DF93EA0155D3009729F0FC0132
:104D50008081888380E001C082E0DF91CF91089557
:104D6000DC01ED91FC912681621778F443D3FC01BC
:104D7000009769F0808186FD02C087FF02C08062D3
:104D800001C080E3808380E0089582E008958FEF82
:104D900008950F93082F807571F0802F8C7069F043
:104DA0000E94CC09E02FE1700E700E9479392170C9
:104DB00081E0E21719F080E001C081E00F910895D1
:104DC0000F93CF93DF93EC0128812E7030E035955F
:104DD0002795022F273011F001E0020F0E94CC0925
:104DE000E02FEE0FF881F07FEF2B000F0E94793952
:104DF0002F5F2170E22BE883DF91CF910F9108950F
:104E0000FC01808184FF02C0807C02C0807B8068BE
:104E100080830895FC012081206420830895DB01B4
:104E20002091AC083091AD0811963C932E93ED91F2
:104E3000FC911197309741F0208131812817390773
:104E400029F021853285F0CF83E0089580E0089530
:104E50000F931F93CF93DF931F921F92CDB7DEB7AF
:104E60008C01BE016F5F7F4FFC0180819181D7DF94
:104E7000882359F08091AC089091AD08F801928791
:104E800081871093AD080093AC080F900F90DF91CD
:104E9000CF911F910F910895FB012091AC083091A3
:104EA000AD0831832083A081B181882341F0309700
:104EB00031F0815019962D913C911A97F2CFAB2B7E
:104EC00011F080E0089583E00895E091AC08F0913E
:104ED000AD0880E090E0309729F001960184F285DA
:104EE000E02DF9CF0895DC0116964C91169750E00D
:104EF00020E030E080E0241735076CF4FD01E20F7C
:104F0000F31FE385F0E0EF73E65FFD4F9081890FBB
:104F10002F5F3F4FF0CF08950F931F93CF93DF93F1
:104F2000C091B208D091B308209769F09A81981384
:104F30000AC08E859F859093B3088093B208CE01F6
:104F40000E94000A10C0209789F0EE85FF853097F7
:104F500061F092819813F9CF06851785CF010E94E1
:104F6000000A1F870E8780E002C0FFCF81E0DF913B
:104F7000CF911F910F910895DB012091B2083091DC
:104F8000B30811963C932E93ED91FC9111973097B5
:104F900031F09281981729F026853785F2CF81E08C
:104FA000089580E00895FB012091B2083091B30884
:104FB00031832083A081B181882341F0309731F083
:104FC00081501E962D913C911F97F2CF81E0AB2B23
:104FD00009F080E00895DB012091B2083091B30818
:104FE00011963C932E93ED91FC911197309741F0DF
:104FF000238134812817390729F026853785F0CF9A
:1050000081E0089580E00895E091B208F091B3083E
:1050100080E090E0309729F001960684F785E02D36
:10502000F9CF0895DC0113962D913C911497232B11
:1050300031F4ED91FC910480F581E02D199421E08B
:10504000FC01258708958F929F92AF92BF92CF92D5
:10505000DF92EF92FF920F931F93CF93DF931F92F4
:105060001F92CDB7DEB74C01DC01ED91FC9186813A
:1050700090E060E070E0681779070CF046C0DF014F
:10508000A60FB71F1B962C912F732230D9F59E01C6
:105090002F5F3F4F40E0C40104DE89819A81892B54
:1050A00051F4F40115821682178210861186128639
:1050B000138614862AC00E94CC09BA80A9801B2DB1
:1050C000110F110BC12ED12EE12EF12E012F0E94B6
:1050D0009539D40115962C93159716963C931697EF
:1050E00017964C93179718965C93189719966C938C
:1050F00019971A967C931A971B968C931B971C965C
:105100009C9303C06F5F7F4FB6CF0F900F90DF91DE
:10511000CF911F910F91FF90EF90DF90CF90BF90B4
:10512000AF909F908F9008952F923F924F925F92F1
:105130006F927F928F929F92AF92BF92CF92DF92A7
:10514000EF92FF920F931F93CF93DF931F921F92C3
:10515000CDB7DEB73C018091B2089091B308892B9E
:1051600011F480E0A7C0BE016F5F7F4F8091B0084F
:105170001ADF813051F48091B2089091B3089A837C
:1051800089831092B1081092B0088090B008909076
:10519000B108E981FA81868597859A8389832FEF03
:1051A000821A920A892B41F48091B2089091B30837
:1051B0009A838983812C912CE981FA81E580F6809C
:1051C0000781108521843284438454849701A80187
:1051D000B101C201A0E00E94B03931F4E981FA8145
:1051E0008585811114C05DC00E94CC0959016A01F6
:1051F000B62FA72FF82FE92F9701A801B101C201FF
:10520000EB2EFA2E0F2F1E2F0E94A73938F7E981B7
:10521000FA811586E580F680078110852184328425
:10522000438454849701A801B101C201A0E00E9407
:10523000B039B1F00E94CC0959016A01B62FA72FED
:10524000F82FE92F9701A801B101C201EB2EFA2E28
:105250000F2F1E2F0E94A73918F489819A81F3DE3F
:10526000E981FA8183819481892B91F4CE010196A1
:105270000E94300A89819A81DC01ED91FC910480C1
:10528000F581E02D1995CE0101960E94580A09C0BA
:10529000D301ED93FC939092B1088092B00881E025
:1052A00009C08091B0089091B1088816990609F05C
:1052B00070CF57CF0F900F90DF91CF911F910F912B
:1052C000FF90EF90DF90CF90BF90AF909F908F9026
:1052D0007F906F905F904F903F902F9008957F92B6
:1052E0008F929F92AF92BF92CF92DF92EF92FF92F6
:1052F0000F931F93CF93DF931F921F92CDB7DEB70B
:105300006C015B018091B2089091B308892B11F474
:1053100080E060C0BE016F5F7F4F8091AE0843DECA
:10532000813051F48091B2089091B3089A838983B7
:105330001092AF081092AE080091AE081091AF081D
:10534000E981FA81868597859A8389830F5F1F4F4C
:10535000892B41F48091B2089091B3089A83898394
:1053600000E010E0E981FA8180809180E12CF12C4D
:10537000712CF401868190E0E816F90614F5E981B4
:10538000FA81E70DF11D808904DD882361F0109317
:10539000AF080093AE0829813A81F601318320835A
:1053A000F501E08217C0F401EE0DFF1DE385F0E08A
:1053B000EF73E65FFD4F8081780EFFEFEF1AFF0A73
:1053C000D8CF8091AE089091AF080817190709F05F
:1053D000B7CF9ECF0F900F90DF91CF911F910F917C
:1053E000FF90EF90DF90CF90BF90AF909F908F9005
:1053F0007F900895FC014081518120E0662361F097
:105400006150FA01E60FF11DE385F0E0EF73E65F0E
:10541000FD4F3081230FF2CF30E0205F3F4F820FEE
:10542000931F0895FF920F931F93CF93DF938C01E7
:10543000DC011296FC90C0E0D0E0D801ED91FC9127
:10544000268130E0C217D30764F46C2F8F2D0E94A1
:105450005621882321F06C2FC801CCDFDBDC21969C
:10546000ECCFDF91CF911F910F91FF900895EF92B4
:10547000FF920F931F93CF93DF9300D000D0CDB74F
:10548000DEB78C01F62E5E834D83E22EBE016D5F8A
:105490007F4F8F2D71DD813009F06FC0BE016F5FCE
:1054A0007F4FC801BCDC811171C009811A81F801EC
:1054B000808580FD03C0EE2009F461C0F80184817D
:1054C0009581892B61F42D813E81232B09F459C0EC
:1054D000C80109DD082F10E0005F1F4F09C0C80197
:1054E00002DDF801078110E0005F1F4F080F111D5A
:1054F000CE0105960E94300ACE0101960E94300A24
:1055000069E070E0C8010E94F30B9C838B83CE019D
:1055100005960E94580ACE0101960E94580A8B8176
:105520009C81009781F1A80160E070E00E94D6396B
:10553000EB81FC8129813A8131832083F2828D8144
:105540009E819483838315868091B2089091B308DD
:1055500097878687F093B308E093B208CF0162DFA4
:10556000E981FA8184819581892B79F00280F38128
:10557000E02D8B819C81199508C086E007C084E1ED
:1055800005C08BE003C088E001C080E026960FB61E
:10559000F894DEBF0FBECDBFDF91CF911F910F9169
:1055A000FF90EF900895CF93DF93EC01888199816C
:1055B0009ADC90E040968C0F9D1FDF91CF9108956B
:1055C000FF920F931F93CF93DF93F82EEB01682F79
:1055D00080913E1390913F130E94B9098C018091F4
:1055E0003E1390913F130E94A709F816E0F4A8011A
:1055F0004350510960E070E06BBFFA01479156914A
:10560000C417D50780F480913E1390913F139E01FB
:10561000281B390BC901800F911FDF91CF911F917A
:105620000F91FF900AC080E0DF91CF911F910F9101
:10563000FF90089580E091E0089520E030E0392F58
:1056400040E052E060E070E0420F531F611D711DA9
:105650004093B6085093B7086093B8087093B908A0
:1056600099279093B5088093B408A9E8B3E18757C8
:105670009C4EA817B90749F06BBFFA0127912D93EB
:105680004F5F5F4F6F4F7F4FF4CF81E0089580E110
:105690008093600088E080936000FFCFCF92DF921C
:1056A000EF92FF920F931F93CF93DF93D82E7B013E
:1056B0004091B6085091B7086091B8087091B90848
:1056C000452B462B472B09F44DC0DD2009F44AC079
:1056D0000091B4081091B508C8018D0D911D81305D
:1056E000914018F0C02EC19401C0CD2CCC2DD0E03B
:1056F000AE01B701C80187579C4E0E94BC390C0F00
:105700001D1F01151140F9F46091B6087091B7089A
:105710008091B8089091B90849E853E10F9400F8D6
:105720000091B6081091B7082091B8083091B908D7
:105730001F5F2F4F3F4F0093B6081093B708209379
:10574000B8083093B9082091B4083091B5082C0FEF
:105750003D1F33273093B5082093B408DC18EC0EB6
:10576000FD1EB3CFDF91CF911F910F91FF90EF906E
:10577000DF90CF9008958F929F92AF92BF92CF9279
:10578000DF92EF92FF920F931F93CF93DF93C0911D
:10579000B408D091B508209779F16091B60870915E
:1057A000B7088091B8089091B90800E010E098011E
:1057B0004E01AA2497FCA094BA2C860E971EA81E10
:1057C000B91ECF3FD10509F09CF475016401C00EEC
:1057D000D11EE21EF31EEBBEF601C790FE01E75795
:1057E000FC4EC08221960F5F1F4F2F4F3F4FE9CFD6
:1057F00049E853E10F9400F81092B6081092B708E8
:105800001092B8081092B908DF91CF911F910F91B3
:10581000FF90EF90DF90CF90BF90AF909F908F90D0
:10582000089503D003D0B6D487C4089583EC9CE1D7
:1058300090937D1380937C136CE773E182E698E08C
:105840000E94970C0C94961BAF92BF92CF92EF924E
:10585000FF920F931F93CF93DF9300D01F92CDB78A
:10586000DEB731E0360F39833FEA3A83FE013396E3
:105870005F0132E0C32EFE0131967F0108EE13E096
:105880000E94ED1B81110AC0EB81FC8184818F3A5B
:1058900049F40580F681E02D808107C0843021F431
:1058A0008DE003C080E001C08CE00F900F900F905E
:1058B0000F90DF91CF911F910F91FF90EF90CF90BC
:1058C000BF90AF9008956F927F928F929F92AF9208
:1058D000BF92CF92DF92EF92FF920F931F93CF93DD
:1058E000DF934C01662E8A01722E10923C131092A7
:1058F0003B13C5E4D2E020913B1330913C138091DF
:10590000390B90913A0B2817390784F4DF93CF9322
:105910000E947D0980913B1390913C1301969093D6
:105920003C1380933B130F900F90E5CF9F928F9283
:105930008FEA97E09F938F930E947D090F900F90BD
:105940000F900F90E801A72CB12C45E4E42E42E023
:10595000F42E59EDC52E57E0D52ECE01801B910BAC
:1059600010923C1310923B138A159B0544F520912D
:105970003B1330913C138091390B90913A0B2817CF
:1059800039078CF4FF92EF920E947D0940913B13FE
:1059900050913C134F5F5F4F50933C1340933B1328
:1059A0000F900F90E4CF89911F928F93DF92CF9247
:1059B0000E947D090F900F900F900F90CECFC5E4FD
:1059C000D2E020913B1330913C138091390B9091A0
:1059D0003A0B281739078CF4DF93CF930E947D0987
:1059E00040913B1350913C134F5F5F4F50933C13DA
:1059F00040933B130F900F90E4CF8EEA95E09F9376
:105A00008F930E947D090F900F90272DA801662D7E
:105A1000C401DF91CF911F910F91FF90EF90DF9024
:105A2000CF90BF90AF909F908F907F906F900C948D
:105A3000D21BCF93DF9300D000D0CDB7DEB730E2DA
:105A4000398331E03A832B8343E0BE016F5F7F4FA0
:105A50000E94991B26960FB6F894DEBF0FBECDBFED
:105A6000DF91CF9108950F931F93CF93DF93CDB71D
:105A7000DEB727970FB6F894DEBF0FBECDBF522F0B
:105A8000732F9801603418F0652FD3DF0DC0698340
:105A90007A835B834C831D823E830F8327E0AE01B4
:105AA0004F5F5F4F66E9D0DE27960FB6F894DEBFF2
:105AB0000FBECDBFDF91CF911F910F9108950F932E
:105AC000CF93DF9300D000D0CDB7DEB7522F732F26
:105AD000603450F0002319F02FEF30E002C020E0D6
:105AE00030E0652FA6DF0DC069833A832B834C839A
:105AF00021E02D830E8326E0AE014F5F5F4F66E904
:105B0000A3DE26960FB6F894DEBF0FBECDBFDF91A1
:105B1000CF910F9108950F931F93CF93DF93CDB73C
:105B2000DEB728970FB6F894DEBF0FBECDBF603446
:105B300078F469833A832B834C8322E02D831E8380
:105B40000F8327E0AE014F5F5F4F66E97DDE01C046
:105B50008FEA28960FB6F894DEBF0FBECDBFDF9157
:105B6000CF911F910F910895CF93DF9300D000D074
:105B7000CDB7DEB78034910570F479836A834B83A7
:105B80001C823D832E8326E0AE014F5F5F4F65EBA5
:105B90009ADE80E001C08FEA26960FB6F894DEBF49
:105BA0000FBECDBFDF91CF910895CF93DF9300D08B
:105BB0001F921F92CDB7DEB78034910570F47983C0
:105BC0006A834B8331E03C832D8325E0AE014F5F38
:105BD0005F4F65EB78DE80E001C08FEA0F900F9099
:105BE0000F900F900F90DF91CF910895CF93DF9397
:105BF00000D000D0CDB7DEB78034910578F479833A
:105C00006A834B8342E04C833D832E8326E0AE01C2
:105C10004F5F5F4F65EB57DE80E001C08FEA26964D
:105C20000FB6F894DEBF0FBECDBFDF91CF910895C0
:105C3000CF93DF931F921F92CDB7DEB769834A835C
:105C400022E0AE014F5F5F4F68E9FEDD0F900F90DD
:105C5000DF91CF910895AF92BF92CF92DF92EF92F2
:105C6000FF920F931F93CF93DF9300D000D0CDB757
:105C7000DEB76C01DC011596ED90FC9016978091D3
:105C80003D13823009F4C9C114960C9110E0F8015B
:105C9000E059F109E131F10508F0BFC1E658FF4FC5
:105CA0000C946D3948E2F7016081C701D7D1282FE4
:105CB0006BE9ABC1D70111964C9111976C91C7015B
:105CC0000296BCD1811102C06DE901C06FEAF701F3
:105CD000808397C1B12C00E010E08B2D00D2882387
:105CE00031F00F5F1F4FF701E00FF11FB082B39447
:105CF000F5E0BF12F2CFD7010C9321E0200F6FE93E
:105D000084C161E0F7018381811101C060E0D701A6
:105D100012968C91BDD1882309F47CC1F70182834E
:105D20006FC1D3D899E3899F912D11249695282F7F
:105D3000F9E09F9F2019112421119F5FD701AC909A
:105D400029E0A29EA02C112411969C9311971296E3
:105D50008C93982F9A199A3008F099E087010B5F7D
:105D60001F4FB12CB91669F1BE016F5F7F4F8B2DAC
:105D70008A0D9E8391D8E981FA818181F801329759
:105D80008083E981FA818081F80131978083E981FC
:105D9000FA818085248135819E8180FF08C0232B74
:105DA00011F483E001C082E0F801808306C081E045
:105DB000232B09F080E0D8018C93B3940D5F1F4F23
:105DC000D1CF4B2D50E04F5F5F4F242F220F240F78
:105DD00061E91BC119D929E3829F212D1124269540
:105DE000982FB9E02B9F9019112491112F5FF70183
:105DF000A08099E0A99EA02C112421838283982F52
:105E00009A199A3008F099E087010A5F1F4FB12C68
:105E1000B91689F1BE016F5F7F4F8B2D8A0D9E836E
:105E2000C2D8E981FA818281F80133978083E981C0
:105E3000FA810190F081E02D8181F8013297808311
:105E4000E981FA810190F081E02D8081F80131979C
:105E50008083E981FA810190F081E02D81E0448125
:105E600055819E81452B09F080E0D8018C93B39435
:105E70000C5F1F4FCDCF2B2D220F220F2D5F63E91B
:105E8000C4C0F701B380BE016D5F7F4F808174D8BD
:105E9000882321F0D70112968C93B2C0AE014B5FDC
:105EA0005F4F6B2D8B819C810E94A1268B819C81F1
:105EB0000B2D10E0DC01ED91FC91E00FF11F23852B
:105EC00030E02F732115310541F49E012F5F3F4FC4
:105ED00041E06B2D0E94BE252BC021303105E9F435
:105EE0009E012F5F3F4F41E06B2D0E940B26EB81FF
:105EF000FC810190F081E02DE00FF11F93859F73ED
:105F0000D70114969C9314979D8115969C93159791
:105F1000998116969C9327E01DC02230310509F027
:105F20005AC09E012F5F3F4F41E06B2D0E945126CA
:105F3000EB81FC810190F081E02DE00FF11F938552
:105F40009F73F70194839D81958399812A8126838C
:105F5000978328E0811152C065E957C0F70113818A
:105F6000BE016F5F7F4F808107D8811147C0F70165
:105F7000848181110EC0258130E0322F2227868155
:105F8000280F311D41E0612F89819A810E94DF2510
:105F90001EC0813061F421E08581811101C020E0C3
:105FA00041E0612F89819A810E942A2610C08230A7
:105FB00091F4F701258130E0322F22278681280FC6
:105FC000311D41E0612F89819A810E9472268111E1
:105FD00015C067E919C08FEF11C0F7011181BE012B
:105FE0006F5F7F4F80810E94BC27811107C0612FA6
:105FF00089819A810E94B026882329F0D7018C9349
:106000006FEA21E002C069E924E0A701C6010E940D
:10601000E21B03C061EA20E0F8CF26960FB6F894A1
:10602000DEBF0FBECDBFDF91CF911F910F91FF90CB
:10603000EF90DF90CF90BF90AF90089570E050E068
:106040009B01240F351F2138310534F46D5F7F4FDC
:106050000E945C3C80E0089580E10895CF93C42FB6
:10606000262F30E0F901E40FF11DE138F10534F09D
:1060700067FD03C0C0E8C61B01C0C0E04C2F50E064
:10608000B9016D5F7F4F0E943F3C8C2FCF910895E7
:10609000CF93C82F853000F582E090E0662359F059
:1060A0000E944F3C61E070E00C2E01C0660F0A9424
:1060B000EAF7682B0BC00E944F3C61E070E00C2EA9
:1060C00001C0660F0A94EAF76095682382E090E0C9
:1060D0000E94653C80E001C081E1CF910895CF939B
:1060E000C82F853090F482E090E00E944F3C282F2A
:1060F00030E041E050E002C0440F551FCA95E2F77E
:106100002423352381E0232B09F480E08170CF9193
:10611000089581E090E00C94573CBC0181E090E050
:106120000C94733C80E090E00C94573CBC0180E000
:1061300090E00C94733C089588ED90E39093921452
:106140008093911461E974E18AE698E00E94970CCB
:1061500088E091E390938E1480938D146DE874E140
:1061600086E698E00E94970C8BE29EE290938A1458
:106170008093891469E874E180EA98E00E94970CA2
:1061800015D0882331F063E070E080E090E00C945B
:10619000EE0C08958BE691E39093961480939514FA
:1061A00065E974E180EA98E00C94970C80E008952A
:1061B0000E943F0CE091AC08F091AD08309771F06F
:1061C00084819581892B31F4DF0116978C918C7F26
:1061D00082608C930184F285E02DF0CFE091B208CB
:1061E000F091B308309799F0DF0116978C918C7F6E
:1061F00082608C93A381B481109729F016978C91BB
:106200008C7F81608C930684F785E02DEBCF089519
:10621000CF93DF93ACEAB8E0ED91FC911197309702
:1062200081F084819581892B49F4EF0126978A8139
:106230009B819F01281B390B2D933C93DF011996FD
:10624000EBCFE2EBF8E0408151814115510509F4B3
:106250003FC0DA01CD91DC918C819D81892B89F43D
:10626000209751F0CE010697DC0112968D919C91FA
:106270001397C81BD90B02C0C0E0D0E0DA01CD9360
:10628000DC93C081D1818B819C81009759F09C0166
:1062900026503109D90112962D913C911397821BFA
:1062A000930B02C080E090E09C838B83808191817E
:1062B000009739F0EC0126972A813B81821B930BD2
:1062C00002C080E090E091838083FA013E96BBCFCC
:1062D000DF91CF9108958F929F92BF92CF92DF92DC
:1062E000EF92FF920F931F93CF93DF931F921F9212
:1062F000CDB7DEB77C01FC01858096808481823138
:10630000C1F118F48031E9F0ADC0843109F47AC0EC
:10631000863109F0A7C060E070E08091600890913C
:1063200061080E94D90C0F900F90DF91CF911F91BF
:106330000F91FF90EF90DF90CF90BF909F908F9044
:10634000A6C980E090E079D9882371F082E080933B
:106350003D131092BB081092BA086CD9F401108258
:106360008183928331E162C082E0F401808331E174
:1063700063C0F401018110E0102F00278081080F15
:10638000111DF701B780BA94BA9454D99C01CB2C53
:10639000D12CC801B90158D7FB01C8018C0D9D1D36
:1063A000B90152D74091BA085091BB08E617F707D8
:1063B00081F00417150729F4F401108233E121E07C
:1063C0000AC081E0F40180834183528333E123E0FA
:1063D00002C030E020E00417150781F5B4016E5FBC
:1063E0007F4F8B2D29833A8359D98091BA08909198
:1063F000BB088C0D9D1D9093BB088093BA08298122
:106400003A811CC08091BA089091BB08F4012181A7
:1064100030E0322F22274081240F311D2817390701
:1064200039F021E020838183928335E123E008C0A5
:10643000F4011082A0D935E121E002C0332391F0AC
:10644000A401632FC7010F900F90DF91CF911F918F
:106450000F91FF90EF90DF90CF90BF909F908F9023
:106460000C94E21B0F900F90DF91CF911F910F9131
:10647000FF90EF90DF90CF90BF909F908F90089506
:1064800026E040E052EC61E070E082E699E039D429
:106490000E9437096DE072E082E699E04BC60E94E7
:1064A000510982E699E021D3892B31F182E699E006
:1064B00035D320910802309109022130310529F4A9
:1064C0008432D1F482E090E013C022303105A1F48F
:1064D0008C3641F467E172E082E699E02BD60E94A7
:1064E0005E1104C08A3711F40E94A31081E090E08D
:1064F00090930902809308020895DC01ED91FC91CC
:106500000190F081E02D1994E4C012C1BC0182E633
:1065100099E0F6C5811106C0772767FD709582E680
:1065200099E017C0813031F4772767FD709585ECCD
:1065300098E00FC0823031F4772767FD70958CE9C1
:106540009AE007C0833031F4772767FD70958FEFAD
:1065500099E0D3CF0895CF92DF92EF92FF92CF933D
:10656000C82F6A017B016DE172E082E699E0C8D52F
:106570004AE050E06C2F82E699E04FD668E272E084
:1065800082E699E0BDD52AE030E0B701A60182E6B7
:1065900099E049D6C11106C026E0B701A60182E6FE
:1065A00099E017C0C13031F426E0B701A60185ECAF
:1065B00098E00FC0C23031F426E0B701A6018CE9A3
:1065C0009AE007C0C33059F426E0B701A6018FEF67
:1065D00099E0CF91FF90EF90DF90CF9092C3CF9151
:1065E000FF90EF90DF90CF900895811103C082E675
:1065F00099E00EC0813019F485EC98E009C0823032
:1066000019F48CE99AE004C0833019F48FEF99E013
:1066100085C20895811103C082E699E00EC08130E1
:1066200019F485EC98E009C0823019F48CE99AE0FD
:1066300004C0833019F48FEF99E057C208951F9278
:106640000F920FB60F9211242F933F938F939F9326
:10665000AF93BF938091BD089091BE08A091BF08F1
:10666000B091C0083091BC0823E0230F2D3720F4EF
:106670000196A11DB11D05C026E8230F0296A11D9C
:10668000B11D2093BC088093BD089093BE08A093D1
:10669000BF08B093C0088091C1089091C208A09132
:1066A000C308B091C4080196A11DB11D8093C10813
:1066B0009093C208A093C308B093C408BF91AF9150
:1066C0009F918F913F912F910F900FBE0F901F9030
:1066D00018952FB7F8946091BD087091BE0880910D
:1066E000BF089091C0082FBF08953FB7F8948091DC
:1066F000C1089091C208A091C308B091C40826B502
:10670000A89B05C02F3F19F00196A11DB11D3FBFE9
:106710006627782F892F9A2F620F711D811D911D79
:1067200042E0660F771F881F991F4A95D1F7089599
:10673000CF92DF92EF92FF92CF93DF936B017C01B8
:10674000D4DFEB01C114D104E104F10479F07BD56D
:10675000CCDF6C1B7D0B683E7340A0F381E0C81A50
:10676000D108E108F108C851DC4FECCFDF91CF919F
:10677000FF90EF90DF90CF900895789484B5826079
:1067800084BD84B5816084BD85B5826085BD85B5D5
:10679000816085BDEEE6F0E0808181608083E1E884
:1067A000F0E01082808182608083808181608083BC
:1067B000E0E8F0E0808181608083E1EBF0E08081BF
:1067C00084608083E0EBF0E0808181608083E1E998
:1067D000F0E0808182608083808181608083E0E955
:1067E000F0E0808181608083E1EAF0E08081826076
:1067F0008083808181608083E0EAF0E08081816035
:106800008083E1E2F1E08081826080838081816029
:106810008083E0E2F1E0808181608083EAE7F0E05C
:1068200080818460808380818260808380818160B8
:1068300080838081806880831092C10008951F92B8
:106840000F920FB60F9211240BB60F922F938F93C6
:106850009F93EF93FF93E091D508F091D608808144
:10686000E091DB08F091DC0882FD12C090818091FC
:10687000DE088F5F8F732091DF08821751F0E0915F
:10688000DE08F0E0EB53F74F958F8093DE0801C0F0
:106890008081FF91EF919F918F912F910F900BBE6F
:1068A0000F900FBE0F901F9018951F920F920FB66A
:1068B0000F9211240BB60F922F933F934F935F9338
:1068C0006F937F938F939F93AF93BF93EF93FF93B8
:1068D00085EC98E070D1FF91EF91BF91AF919F91BE
:1068E0008F917F916F915F914F913F912F910F9079
:1068F0000BBE0F900FBE0F901F90189585EC98E07F
:10690000F4D021E0892B09F420E0822F0895109221
:10691000C8081092C70888EE93E0A0E0B0E080932A
:10692000C9089093CA08A093CB08B093CC0883E31E
:1069300092E09093C6088093C5088DEC90E0909308
:10694000D2088093D1088CEC90E09093D408809387
:10695000D30888EC90E09093D6088093D50889EC12
:1069600090E09093D8088093D7088AEC90E09093B9
:10697000DA088093D9088EEC90E09093DC0880933D
:10698000DB081092DE081092DF081092E0081092E7
:10699000E10808951F920F920FB60F9211240BB6C3
:1069A0000F922F938F939F93EF93FF93E091720930
