:100000000C9484090C94B5090C94B5090C94B509A9
:100010000C94B5090C94B5090C94B5090C94B50968
:100020000C94B5090C94B5090C94B5090C94B50958
:100030000C94B5090C94B5090C94B5090C94B50948
:100040000C94B5090C94B5090C94B5090C94B50938
:100050000C94B5090C94B5090C94B5090C9423368D
:100060000C94B5090C94C1390C94F7390C94B5096A
:100070000C94B5090C94B5090C94B5090C94B50908
:100080000C94B5090C94B5090C94B5090C94B509F8
:100090000C94E43B0C941A3C0C94B5090C94B509EF
:1000A0000C94B5090C94B5090C94B5090C94B509D8
:1000B0000C94B5090C94B5090C94B5090C94B509C8
:1000C0000C94B5090C94B5090C94B5090C94D83767
:1000D0000C940E380C94B5090C942D370C9463379E
:1000E0000C94B5092D3530351F3523352935673545
:1000F000343538353E35423546354C355035543536
:1001000067355A355E356235840DAA0DDB0D010E5B
:10011000270E4D0E730E990E452FC1309E2FC13004
:10012000F52FC1306230C130A130C130062FC1304F
:100130000E2FC1301E2FC130352F00000A0B0209CF
:100140000C0D0E0807030401000000000000000071
:10015000000000000000000000000000000000009F
:10016000000000000000121110000000000000005C
:10017000000000000000000000000000000000007F
:1001800001021020200808102040102040800201A9
:10019000020108040201010204081020408080408E
:1001A000201008040201800402018040201008048D
:1001B000020108040201010204081020408001022B
:1001C00004081020408005050505070508080808F3
:1001D000020202020A0A08080404040401010101DF
:1001E00001010101030303030303030304070707DA
:1001F0000C0C0C0C0C0C0C0C02020202060606067F
:10020000060606060B0B0B0B0B0B0B0B000020005E
:100210002300260029002C002F00320000010000DE
:1002200003010601090100002200250028002B001F
:100230002E003100340002010000050108010B010D
:1002400000002100240027002A002D003000330088
:1002500001010000040107010A0100000000000084
:10026000000000000000000000000000000000008E
:10027000000000000000000000000000000000007E
:10028000000000000000000000000000000000006E
:10029000000000000000000000000000000000005E
:1002A000000000000000000000000000000000004E
:1002B000000000000000000000000000000000003E
:1002C000000000000000000000000000000000002E
:1002D000000000000000000000000000000000001E
:1002E000000000000000000000000000000000000E
:1002F00000000000000000000000000000000000FE
:10030000D70001070F001E002F0033009C00A20041
:10031000BF0000010001776B656D707479617070CA
:10032000000101040000000119FF000000010100AC
:100330000000040201000203080018005D00000034
:100340000000010200000500219D016C9B000100DE
:100350000100010502003A00590104A00121469D57
:1003600001AF1500019C0178019E02107B9C017D6C
:10037000009C0116009C0111019E020B9E00029E32
:10038000020C9E020D3122840008229C020000947F
:10039000FFF300000000000001020001009B0003C9
:1003A000000000000006020007000F0006004F4298
:1003B0004A4543540C004D79206E6F646520696492
:1003C0003A20050205000A006261736500776B70D0
:1003D000665F7669727475616C000200020000024B
:1003E0000003000002000400000000000000000004
:1003F00000000000000000000000000000000000FD
:1004000000000000000000000000000000000000EC
:1004100000000000000000000000000000000000DC
:1004200000000000000000000000000000000000CC
:1013000095374038293A4C3C11241FBECFEFD1E22B
:10131000DEBFCDBF00E00CBF1AE0A0E0B2E0E4E128
:10132000F1E800E00BBF02C007900D92AA3AB107A6
:10133000D9F727E1AAEABAE001C01D92AF36B20799
:10134000E1F713E1C8E0D3E100E006C0229701090C
:10135000FE010BBF0E94DF3CC030D10780E00807D0
:10136000A9F70E94D93B0C9488400C94000080E0BF
:1013700093E0909315168093141660E072EC81E070
:1013800090E02ED040E058E060E070E081E19EE027
:1013900041D081E080931316089580E093E00C948F
:1013A0002F26CF93DF931F921F92CDB7DEB71A82FD
:1013B000198260E070E080912C0B90912D0B79D315
:1013C00080911316813031F40E944A21CE0101969A
:1013D0000E9446290F900F90DF91CF9108950895B4
:1013E00008959B01AC0160E870E08AEA9AE00E94EF
:1013F000853D8AEA9AE00C947C34CF93DF93CDB795
:10140000DEB7FE01369681919191BF01EADFDF914F
:10141000CF910895CF93DF9300D000D0CDB7DEB742
:101420004B835C836D837E8389839A8334D04B8125
:101430005C81BA0189819A8140D026960FB6F894D2
:10144000DEBF0FBECDBFDF91CF910C94C62C20E044
:10145000AC0160E070E06BBFFA0147915691411515
:10146000510529F0840F951F03962F5FF1CF822F2E
:101470000895262F222369F0AC0160E070E06BBF75
:10148000FA01479156914D5F5F4F840F951F215090
:10149000F1CF03960895A3CFCF93DF930E947A34C0
:1014A000DC01CB019C01AD0160E070E080E090E0E8
:1014B000DF91CF9108950C947B349093450B8093EA
:1014C000440B7093430B6093420B10923B0B1092B2
:1014D0003A0B10923D0B10923C0B10923F0B109266
:1014E0003E0B1092410B1092400B9093390B80935E
:1014F000380B860F971F9093370B8093360B089508
:10150000FC0136972081269526953181432F4295FF
:10151000440F440F407C842F822B932F96959695F1
:101520008E0F9F1F2091380B3091390B28173907E8
:1015300029F4F093390BE093380B08951482089541
:101540008091420B9091430B08958091360B9091BE
:10155000370B2091380B3091390B821B930B089578
:10156000EAE3FBE020E030E041915191452B41F46A
:10157000F901EE0FFF1FE65CF44F9183808308951D
:101580002F5F3F4F2430310579F76AE070E080E04B
:1015900090E0A4C2EAE3FBE080E090E02191319189
:1015A000232B09F001962BE0E234F207B9F70895F6
:1015B000EAE3FBE0208131812817390711F4118219
:1015C000108232962BE0E234F207A1F708950F93D0
:1015D0001F93CF93DF93E091440BF091450BA091C3
:1015E000380BB091390BAC01460F571F11E0EA17C9
:1015F000FB0700F5248130E08217930720F42417BD
:10160000350708F414834217530718F42481261B66
:101610002483C081C695C695D1810D2F0295000FF8
:10162000000F007C202F2C2B3D2F36953695E20F96
:10163000F31FDDCFDF91CF911F910F91089580911E
:10164000440B9091450B0895FC01408146954695C9
:101650005181652F6295660F660F607C262F242BC3
:10166000352F36953695280F391F8091380B90917C
:10167000390B2817390718F080E090E00895C90168
:101680000895CF92DF92EF92FF920F931F93CF9323
:10169000DF93E091440BF091450B2091380B309192
:1016A000390BC12CD12C7601E217F30738F5848170
:1016B00050814181811111C0742F7295770F770F7E
:1016C000707C652F66956695872F862B942F96954F
:1016D0009695C80ED91EE11CF11CD382C282569584
:1016E0005695642F6295660F660F607C862F852B5A
:1016F000942F96959695E80FF91FD6CFEAE3FBE075
:10170000A191B191109781F08D919C9111970097C3
:1017100039F0EC0126972A813B81821B930B02C092
:1017200080E090E08D939C932BE0E234F20741F748
:1017300060E070E08091300B9091310BBAD1C09194
:10174000440BD091450B8091380B9091390BC81701
:10175000D907F0F48881869586959981292F22955D
:10176000220F220F207C022F082B192F1695169579
:101770008C81882351F08A819B81A801BE019E0142
:10178000281B390BC9010E94313DC00FD11FDBCF8F
:101790008C199D099093390B8093380BDF91CF9171
:1017A0001F910F91FF90EF90DF90CF9008950F93CE
:1017B0001F93CF93DF93E091440BF091450B209161
:1017C000380B3091390BE217F307D0F4848186305F
:1017D00010F482E001C080E040814C7F482B4083C0
:1017E000469546955181652F6295660F660F607C20
:1017F000862F842B952F96959695E80FF91FE3CFAA
:1018000060E070E08091340B9091350B52D1EAE3A7
:10181000FBE0A191B191109769F00D90BC91A02DC2
:10182000109741F016978C91982F937019F48C7F34
:1018300081608C938BE0E234F80759F7C091440B38
:10184000D091450B00E010E02091380B3091390B1E
:10185000C217D307E8F488818370813041F4BE0158
:101860008091320B9091330B24D10F5F1F4F288151
:10187000269526953981432F4295440F440F407C8D
:10188000842F822B932F96959695C80FD91FDCCF66
:10189000012BA1F6E091440BF091450BE217F30701
:1018A000B0F44081842F837009F41482542F56952C
:1018B00056954181642F6295660F660F607C862F76
:1018C000852B942F96959695E80FF91FE7CFD9DED3
:1018D00060E070E080912E0B90912F0BDF91CF9103
:1018E0001F910F91E6C00F931F93CF93DF931F9229
:1018F000CDB7DEB780FD01968C010A5F1F4F809146
:10190000360B9091370B2091380B3091390B821B9D
:10191000930B8017910718F4698349DF6981E0917F
:10192000380BF091390B8091360B9091370B8E1B51
:101930009F0B80179107D8F0902F990F990F8081F6
:101940008370892B8083912F990F990F802F829517
:10195000869586958370892B818364830E0F1F1F64
:101960001093390B0093380BCF01069602C080E02C
:1019700090E00F90DF91CF911F910F910895BF924A
:10198000CF92DF92EF92FF920F931F93CF93DF934B
:1019900000D01F921F92CDB7DEB70091440B10917B
:1019A000450B39E0E32E35E0F32E45E0B42ECE01B1
:1019B00001966C018091380B9091390B081719072B
:1019C00038F5F8018481893078F01F928F93FF9267
:1019D000EF921F92BF92DF92CF920E94493D0FB6C5
:1019E000F894DEBF0FBECDBFF80120812695269565
:1019F0003181432F4295440F440F407C842F822B2A
:101A0000932F96959695009719F0080F191FD2CF2E
:101A10000F900F900F900F900F90DF91CF911F912B
:101A20000F91FF90EF90DF90CF90BF900895CF93EC
:101A3000DF93DC019C9111968C911197E92FF82F7F
:101A4000309779F1E617F70741F5109212161092C8
:101A50001116CFE0D5E02091111630911216809129
:101A60000F0E9091100E281739077CF4DF93CF9357
:101A7000C4DC809111169091121601969093121663
:101A8000809311160F900F90E6CF83E195E09F931E
:101A90008F93B3DC0F900F9009C00280F381E02D8B
:101AA000CFCFFB01928383836D937C93DF91CF91A2
:101AB00008950F931F93CF93DF93EC018B01209731
:101AC00041F0E881F981C80119950A80DB81C02DB8
:101AD000F6CFDF91CF911F910F910895CF93DF93B0
:101AE00000D01F92CDB7DEB7FB013397E830F10588
:101AF00008F045C1EC57FF4F1092121610921116C4
:101B00000FE015E00C94D93C40911116509112163B
:101B100020910F0E3091100E42175307C4F41F93FB
:101B20000F9369837A838B839C8367DC20911116E2
:101B3000309112162F5F3F4F3093121620931116DB
:101B40000F900F909C818B817A816981DDCF26E394
:101B500035E025C0409111165091121620910F0EBC
:101B60003091100E42175307C4F41F930F936983EB
:101B70007A838B839C8341DC20911116309112165D
:101B80002F5F3F4F30931216209311160F900F9036
:101B90009C818B817A816981DDCF2DE435E03F9393
:101BA0002F9369837A838B839C8327DC0F900F901C
:101BB00069817A8122C140911116509112162091AB
:101BC0000F0E3091100E42175307C4F41F930F935A
:101BD00069837A838B839C8310DC2091111630916A
:101BE00012162F5F3F4F30931216209311160F904D
:101BF0000F909C818B817A816981DDCF2DE635E064
:101C0000CECF409111165091121620910F0E3091A7
:101C1000100E42175307C4F41F930F9369837A83FE
:101C20008B839C83EADB20911116309112162F5F73
:101C30003F4F30931216209311160F900F909C81F6
:101C40008B817A816981DDCF2CE835E0A8CF409186
:101C500011165091121620910F0E3091100E42174E
:101C60005307C4F41F930F9369837A838B839C83F8
:101C7000C4DB20911116309112162F5F3F4F309325
:101C80001216209311160F900F909C818B817A81F0
:101C90006981DDCF28EA35E082CF4091111650915D
:101CA000121620910F0E3091100E42175307C4F4F4
:101CB0001F930F9369837A838B839C839EDB209190
:101CC0001116309112162F5F3F4F3093121620934A
:101CD00011160F900F909C818B817A816981DDCFE5
:101CE00022EC35E05CCF40911116509112162091F4
:101CF0000F0E3091100E42175307C4F41F930F9329
:101D000069837A838B839C8378DB209111163091D1
:101D100012162F5F3F4F30931216209311160F901B
:101D20000F909C818B817A816981DDCF2EED35E02A
:101D300036CF409111165091121620910F0E30910E
:101D4000100E42175307C4F41F930F9369837A83CD
:101D50008B839C8352DB20911116309112162F5FDA
:101D60003F4F30931216209311160F900F909C81C5
:101D70008B817A816981DDCF28EF35E010CF109219
:101D80001216109211160FE015E0409111165091A5
:101D9000121620910F0E3091100E42175307C4F403
:101DA0001F930F9369837A838B839C8326DB209117
:101DB0001116309112162F5F3F4F30931216209359
:101DC00011160F900F909C818B817A816981DDCFF4
:101DD0009F938F937F936F9327E136E03F932F93E9
:101DE00069837A838B839C8308DB0F900F900F901D
:101DF0000F900F900F907A816981209113162330F4
:101E000050F46093131660E070E080912C0B909179
:101E10002D0B4FDEF8CFCB010E94884080915D0BE7
:101E200008952F923F924F925F926F927F928F927E
:101E30009F92AF92BF92CF92DF92EF92FF920F9359
:101E40001F93CF93DF93CDB7DEB72B970FB6F894E0
:101E5000DEBF0FBECDBF60E070E082E00E940035C3
:101E60008823C9F3FF24F39485E0E82E1E0188E05F
:101E7000280E311C0FE015E097E4492E97E0592E0B
:101E800020EAA22E26E0B22E39E6832E36E0932EEB
:101E900046E3642E46E0742E60E070E082E00E942B
:101EA0000035882309F4B6C182E00E94EB3490919A
:101EB00008029111A3C0863039F4F0920802F09222
:101EC0000102F0925A0BE8CF853161F58091010251
:101ED000803819F0880F8093010210921216109228
:101EE0001116209111163091121680910F0E9091BB
:101EF000100E281739077CF41F930F937EDA809118
:101F00001116909112160196909312168093111645
:101F10000F900F90E6CF809101021F928F937F92D6
:101F20006F922DC08831D9F580910102803819F067
:101F3000880F8093010210921216109211162091B0
:101F400011163091121680910F0E9091100E2817D5
:101F500039077CF41F930F9350DA809111169091FA
:101F60001216019690931216809311160F900F90EF
:101F7000E6CF809101021F928F939F928F923DDA5C
:101F80006091010270E080E090E095DAF092080242
:101F900010925A0B0F900F900F900F907DCF8130C1
:101FA00031F482E08093080210924C1675CF1092A3
:101FB000121610921116409111165091121620917E
:101FC0000F0E3091100E4217530794F41F930F9386
:101FD0008B8713DA20911116309112162F5F3F4F25
:101FE00030931216209311160F900F908B85E3CF2C
:101FF0001F928F93BF92AF9200DACCCF913009F04D
:1020000055C0813071F2883131F51092121610925C
:102010001116209111163091121680910F0E909189
:10202000100E281739077CF41F930F93E6D980917F
:102030001116909112160196909312168093111614
:102040000F900F90E6CFAAECB6E0BF93AF93D5D92F
:102050001092080228C0863009F01ECF1092121686
:1020600010921116209111163091121680910F0EB8
:102070009091100E281739077CF41F930F93BDD948
:1020800080911116909112160196909312168093DA
:1020900011160F900F90E6CFACE0B7E0BF93AF936F
:1020A000ACD9F0925A0B0F900F90F6CE923029F4E3
:1020B000835080934C1683E024C0933021F48093A6
:1020C000461684E01EC0943041F480934D1686E09D
:1020D0008093080210921616DFCE9630A9F4E09194
:1020E000161691E09E0F90931616F0E0E95EF94EF9
:1020F000808380914C16815080934C168111CCCEF8
:1021000087E080930802C8CE973009F0C5CE66E01C
:1021100082E00E948034F09208028091461681117C
:1021200017C080914D16833141F48091181690E0CC
:102130009093590B8093580B0BC0843049F4409115
:10214000161644506BE176E1809118160E94141C1B
:1021500080914D16803271F580915C0B811107C022
:1021600080911B1680935D0BF0925C0B23C0109244
:10217000121610921116209111163091121680919C
:102180000F0E9091100E281739077CF41F930F93B0
:1021900034D98091111690911216019690931216CF
:1021A000809311160F900F90E6CF5F924F9225D932
:1021B0000F900F9090914D16903509F06DCE809153
:1021C0001816813019F48093570B66CE863009F0CB
:1021D00063CEF982EA821B829C831D8280914B161A
:1021E0008E839AEA98279F838F5F80934B16CE0148
:1021F00001966C01D6016D916D0182E00E948034E0
:10220000C214D304B9F71092530B1092570B1092CB
:10221000560B42CE2B960FB6F894DEBF0FBECDBF45
:10222000DF91CF911F910F91FF90EF90DF90CF90B2
:10223000BF90AF909F908F907F906F905F904F90E6
:102240003F902F900895EF92FF920F931F93CF939B
:10225000DF93CDB7DEB72A970FB6F894DEBF0FBE77
:10226000CDBF81E0898384E08A831B8282E48C83F2
:1022700080914B168D8399EB98279E838F5F809377
:102280004B168E010F5F1F4F7E0188E0E80EF11C98
:10229000F80161918F0182E00E9480340E151F05C4
:1022A000B9F71092560B2A960FB6F894DEBF0FBE00
:1022B000CDBFDF91CF911F910F91FF90EF900895C7
:1022C000BF92CF92DF92EF92FF920F931F93CF9323
:1022D000DF93CDB7DEB72A970FB6F894DEBF0FBEF7
:1022E000CDBFD82EC62EB42E81E0898388E08A83A4
:1022F0001B8283E08C83DD826E834F8318868091FE
:102300004B16898794EF9827942796279D259A87BF
:102310008F5F80934B168E010F5F1F4F7E018BE006
:10232000E80EF11CF80161918F0182E00E94803477
:102330000E151F05B9F71092560B10921216109237
:1023400011160FE015E0E0911116F0911216209190
:102350000F0E3091100EE217F30784F41F930F93C2
:102360004CD820911116309112162F5F3F4F3093A9
:102370001216209311160F900F90E5CF1F92BF9267
:102380001F92CF921F92DF9285E797E09F938F93E2
:1023900034D80FB6F894DEBF0FBECDBF2A960FB665
:1023A000F894DEBF0FBECDBFDF91CF911F910F918B
:1023B000FF90EF90DF90CF90BF9008952F923F92C3
:1023C0004F925F926F927F928F929F92AF92BF9245
:1023D000CF92DF92EF92FF920F931F93CF93DF93F1
:1023E000CDB7DEB72A970FB6F894DEBF0FBECDBFCC
:1023F0008091530B882329F14FD8C0904716D09075
:102400004816E0904916F0904A1616012701560129
:102410006201E12CF12C00E010E00E940A3D203D19
:10242000374041055105610571058105910509F0A8
:1024300008F47EC010921216109211160FE015E0EB
:102440002DC02AD82093471630934816409349163A
:1024500050934A1681E08093530B898395E09A83C9
:102460001B8290E59C838D8380914B168E839BEA23
:1024700098279F838F5F80934B168E010F5F1F4FAE
:102480004E01F8E08F0E911CF80161918F0182E0FE
:102490000E94803408151905B9F7AECF20911116A6
:1024A0003091121680910F0E9091100E2817390757
:1024B00084F41F930F930E94FD098091111690914F
:1024C0001216019690931216809311160F900F908A
:1024D000E5CF86E997E09F938F930E94FD0981E005
:1024E000898385E08A831B8280E58C831D828091AD
:1024F0004B168E839AEA98279F838F5F80934B16A3
:102500008E010F5F1F4F4E01F8E08F0E911C0F9050
:102510000F90F80161918F0182E00E9480340815CC
:102520001905B9F71092530B1092570B1092560BD6
:102530002A960FB6F894DEBF0FBECDBFDF91CF91C4
:102540001F910F91FF90EF90DF90CF90BF90AF90D1
:102550009F908F907F906F905F904F903F902F90C3
:1025600008958091560B882321F08091530B882386
:1025700091F1C9D78091540B882369F18091470B61
:102580009091480BA091490BB0914A0B40914B0B95
:1025900050914C0B60914D0B70914E0B841B950B21
:1025A000A60BB70B88389341A105B10578F480914B
:1025B000530B882349F01092471610924816109238
:1025C000491610924A1605C081E001C082E080934E
:1025D000560B1092540B8091560B813011F4EEDEA5
:1025E00004C0823011F41092560B8091530B81116C
:1025F000E5DE60E070E082E00E940035882319F09B
:1026000081E090E00ECC08952F923F924F925F921E
:102610006F927F928F929F92AF92BF92CF92DF92F2
:10262000EF92FF920F931F93CF93DF931F92CDB73B
:10263000DEB78C016B01E5E0EE2EF12CF0EA2F2ED7
:10264000F7E03F2E44244394460E842D80958983E1
:102650004B019FEF891A990AA8E16A2EA8E07A2E09
:1026600060E070E082E00E940035882319F080E08D
:1026700090E0D7DB80910802813009F45CC01092B1
:102680001216109211162091111630911216809187
:102690000F0E9091100E2817390794F4AFE0B5E0B3
:1026A000BF93AF930E94FD0980911116909112166D
:1026B000019690931216809311160F900F90E3CF0E
:1026C000809108021F928F933F922F920E94FD09E2
:1026D00010921216109211160F900F900F900F90EB
:1026E000209111163091121680910F0E9091100EBC
:1026F0002817390794F4AFE0B5E0BF93AF930E9479
:10270000FD09809111169091121601969093121660
:10271000809311160F900F90E3CFA5EDB7E0BF9314
:10272000AF930E94FD0964E670E080E090E00E94B3
:102730005B0A0F900F9061E082E00E948034642D6C
:1027400082E00E94803459805801C501801B910BA2
:102750008C159D0544F4D5016D915D01562682E0EE
:102760000E948034F2CF652D82E00E948034109266
:102770001216109211162091111630911216809196
:102780000F0E9091100E2817390794F4AFE0B5E0C2
:10279000BF93AF930E94FD0980911116909112167C
:1027A000019690931216809311160F900F90E3CF1D
:1027B0009F928F92ABE0B8E0BF93AF930E94FD0968
:1027C0000F900F900F900F905801C501801B910B37
:1027D00010921216109211168C159D056CF5209111
:1027E00011163091121680910F0E9091100E28172D
:1027F000390794F4AFE0B5E0BF93AF930E94FD09B1
:102800008091111690911216019690931216809352
:1028100011160F900F90E3CFD5018D915D011F929E
:102820008F93A4E1B8E0BF93AF930E94FD090F908E
:102830000F900F900F90C9CF209111163091121662
:1028400080910F0E9091100E2817390794F4AFE085
:10285000B5E0BF93AF930E94FD098091111690914E
:102860001216019690931216809311160F900F90E6
:10287000E3CF1F925F927F926F920E94FD091092A8
:10288000080210925A0B68EE73E082E00E94003555
:102890000F900F900F900F908823D9F162DE8091F6
:1028A0005A0B813009F44FC1109212161092111672
:1028B000209111163091121680910F0E9091100EEA
:1028C0002817390794F4AFE0B5E0BF93AF930E94A7
:1028D000FD0980911116909112160196909312168F
:1028E000809311160F900F90E3CF80915A0B1F9297
:1028F0008F93809108021F928F93A0E2B8E0BF935C
:10290000AF930E94FD090F900F900F900F900F90C2
:102910000F908091080281112CC081E08093080201
:102920001092121610921116209111163091121653
:1029300080910F0E9091100E2817390794F4AFE094
:10294000B5E0BF93AF930E94FD098091111690915D
:102950001216019690931216809311160F900F90F5
:10296000E3CF83E498E09F938F930E94FD090F903B
:102970000F90F1E0EF1AF108109212161092111652
:102980008FEFE816F80609F0B4C07FE0E72E75E097
:10299000F72E209111163091121680910F0E909102
:1029A000100E2817390784F4FF92EF920E94FD0958
:1029B00080911116909112160196909312168093A1
:1029C00011160F900F90E5CF8CE598E09F938F93B1
:1029D0000E94FD090F900F9048015FE0E52E55E041
:1029E000F52E64E1A62E68E0B62EC401801B910B83
:1029F00010921216109211168C159D054CF520910F
:102A000011163091121680910F0E9091100E28170A
:102A1000390784F4FF92EF920E94FD09809111160C
:102A200090911216019690931216809311160F90A2
:102A30000F90E5CFD4018D914D011F928F93BF92DE
:102A4000AF920E94FD090F900F900F900F90CDCF85
:102A50000FE015E0209111163091121680910F0EA3
:102A60009091100E2817390784F41F930F930E943A
:102A7000FD098091111690911216019690931216ED
:102A8000809311160F900F90E5CF88E798E09F9301
:102A90008F930E94FD0910921216109211160F903A
:102AA0000F900FE015E020911116309112168091D1
:102AB0000F0E9091100E2817390784F41F930F936F
:102AC0000E94FD0980911116909112160196909323
:102AD0001216809311160F900F90E5CF80E798E0C3
:102AE0009F938F930E94FD090F900F908FEF9FEFA0
:102AF0002CC0209111163091121680910F0E9091DA
:102B0000100E2817390794F4AFE0B5E0BF93AF93E8
:102B10000E94FD09809111169091121601969093D2
:102B20001216809311160F900F90E3CFFF92EF9241
:102B30008AE798E09F938F930E94FD090F900F9072
:102B40000F900F908DCD80E090E00F90DF91CF91AE
:102B50001F910F91FF90EF90DF90CF90BF90AF90BB
:102B60009F908F907F906F905F904F903F902F90AD
:102B70000895FF920F931F93CF93DF9300D01F927E
:102B8000CDB7DEB740E052EC61E070E082E00E9439
:102B9000A13499D410921216109211160FE015E07C
:102BA000209111163091121680910F0E9091100EF7
:102BB0002817390784F41F930F930E94FD09809111
:102BC0001116909112160196909312168093111679
:102BD0000F900F90E5CF8EE998E09F938F930E941E
:102BE000FD0965E182E00E94803410921216109275
:102BF00011160F900F900FE015E0209111163091F3
:102C0000121680910F0E9091100E2817390784F438
:102C10001F930F930E94FD09809111169091121637
:102C2000019690931216809311160F900F90E5CF96
:102C30008BEA98E09F938F930E94FD090F900F906D
:102C400066E970E082E00E940035882321F082E08E
:102C50000E94EB34F5CF8AE280934B1681E080939B
:102C600008021B8280E28C837CDC10921216109288
:102C700011160FE015E02091111630911216809177
:102C80000F0E9091100E2817390784F41F930F939D
:102C90000E94FD0980911116909112160196909351
:102CA0001216809311160F900F90E5CF8FEB98E0DE
:102CB0009F938F930E94FD090F900F9000E01AE000
:102CC000B8E0FB2E80915C0B811126C080915C0BDB
:102CD00081111BC0112309F463C062E070E0CE01D2
:102CE000039692DC66E970E082E00E94003588235A
:102CF00049F061E070E082E00E940035882311F025
:102D000030DCF7CF1150E2CF1AE080915D0B8013D9
:102D100010925C0B082FD6CF10921216109211163B
:102D20000FE015E0209111163091121680910F0ED0
:102D30009091100E2817390784F41F930F930E9467
:102D4000FD0980911116909112160196909312161A
:102D5000809311160F900F90E5CF80915D0B1F921D
:102D60008F9389ED98E09F938F930E94FD09609166
:102D7000000270E080E090E00E945B0A40E06FEFAC
:102D800080E09EDA0F900F900F900F900F900F90B1
:102D90000F900F90DF91CF911F910F91FF900895A9
:102DA0001982FA8262E070E0CE0101962DDC66E9BC
:102DB00070E082E00E940035882309F4A5CF82E00C
:102DC0000E94EB34F4CFEF92FF920F931F93CF93B7
:102DD000DF93CDB7DEB7E2970FB6F894DEBF0FBE34
:102DE000CDBFEFEFFFEFF093590BE093580B198233
:102DF00093E19A838B8381E0840F8C8388E88D83B1
:102E0000FE013696DB011E2F3F2F50E0CD01861BC1
:102E1000970B841795071CF48D918193F7CFE12FC1
:102E2000F32FE40FF51F208380914B1691E0980F4C
:102E300090934B16FE01E40FF51F8783BA01695F7B
:102E40007F4FCE010196E0DB8C01009709F04BC06B
:102E500089EEE82E83E0F82E8091580B9091590B63
:102E60008F3F2FEF920761F481E0E81AF10851F0EB
:102E700078DB61E070E080E090E00E945B0AECCFDC
:102E8000892B99F110921216109211160FE015E08D
:102E9000209111163091121680910F0E9091100E04
:102EA0002817390784F41F930F930E94FD0980911E
:102EB0001116909112160196909312168093111686
:102EC0000F900F90E5CF8091590B8F938091580B05
:102ED0008F938FEE98E09F938F930E94FD090F9040
:102EE0000F900F900F900FEF1FEFC801E2960FB6F3
:102EF000F894DEBF0FBECDBFDF91CF911F910F9130
:102F0000FF90EF9008958F929F92AF92BF92CF92D1
:102F1000DF92EF92FF920F931F93CF93DF93882E50
:102F2000EB01942E10921216109211160FE015E07C
:102F3000209111163091121680910F0E9091100E63
:102F40002817390784F41F930F930E94FD0980917D
:102F500011169091121601969093121680931116E5
:102F60000F900F90E5CFE92CF12C1F928F921F92BA
:102F70009F9280E399E09F938F930E94FD090F90A9
:102F80000F900F900F900F900F908E013FE0C32E87
:102F900035E0D32E42E9A42E47E0B42EC8018C1BA5
:102FA0009D0B10921216109211168E159F054CF55E
:102FB000209111163091121680910F0E9091100EE3
:102FC0002817390784F4DF92CF920E94FD0980917F
:102FD0001116909112160196909312168093111665
:102FE0000F900F90E5CFF80181918F011F928F9381
:102FF000BF92AF920E94FD090F900F900F900F901B
:10300000CDCF0FE015E0209111163091121680916E
:103010000F0E9091100E2817390784F41F930F9309
:103020000E94FD09809111169091121601969093BD
:103030001216809311160F900F90E5CF88E798E055
:103040009F938F930E94FD091092121610921116F1
:103050000F900F900FE015E020911116309112168D
:1030600080910F0E9091100E2817390784F41F934A
:103070000F930E94FD0980911116909112160196EE
:1030800090931216809311160F900F90E5CF1F9218
:103090008F921F929F9289E499E09F938F930E9451
:1030A000FD090F900F900F900F900F900F908E01D1
:1030B0009FE0C92E95E0D92E2EE5A22E29E0B22E52
:1030C000C8018C1B9D0B8E159F056CF51092121676
:1030D00010921116209111163091121680910F0E38
:1030E0009091100E2817390784F4DF92CF920E9436
:1030F000FD09809111169091121601969093121667
:10310000809311160F900F90E5CFF80181918F01F8
:103110001F928F93BF92AF920E94FD090F900F9064
:103120000F900F90CDCF25E0492DBE01882D4BDEAD
:10313000DF91CF911F910F91FF90EF90DF90CF9093
:10314000BF90AF909F908F900895EF92FF920F9352
:103150001F93CF93DF93CDB7DEB7E2970FB6F89406
:10316000DEBF0FBECDBFEFEFFFEFF093590BE09343
:10317000580B198293E19A838B834C83FE01359619
:10318000DB011E2F3F2F50E0CD01861B970B8417CC
:1031900095071CF48D918193F7CFE12FF32FE40F66
:1031A000F51F208380914B1691E0980F90934B165A
:1031B000FE01E40FF51F8683BA016A5F7F4FCE01DF
:1031C000019622DA8C01009709F04BC059EEE52EEA
:1031D00053E0F52E8091580B9091590B8F3F2FEFB4
:1031E000920761F481E0E81AF10851F0BAD961E080
:1031F00070E080E090E00E945B0AECCF892B99F1AF
:1032000010921216109211160FE015E0209111166F
:103210003091121680910F0E9091100E28173907D9
:1032200084F41F930F930E94FD09809111169091D1
:103230001216019690931216809311160F900F900C
:10324000E5CF8091590B8F938091580B8F938FEE20
:1032500098E09F938F930E94FD090F900F900F901D
:103260000F900FEF1FEFC801E2960FB6F894DEBF84
:103270000FBECDBFDF91CF911F910F91FF90EF90C7
:1032800008958F929F92AF92BF92CF92DF92EF926A
:10329000FF920F931F93CF93DF93882EEB01942E11
:1032A00010921216109211160FE015E020911116CF
:1032B0003091121680910F0E9091100E2817390739
:1032C00084F41F930F930E94FD0980911116909131
:1032D0001216019690931216809311160F900F906C
:1032E000E5CFE92CF12C1F928F921F929F9280E3E1
:1032F00099E09F938F930E94FD090F900F900F907C
:103300000F900F900F908E01EFE0CE2EE5E0DE2EB5
:10331000F2E9AF2EF7E0BF2EC8018C1B9D0B109277
:103320001216109211168E159F054CF5209111164C
:103330003091121680910F0E9091100E28173907B8
:1033400084F4DF92CF920E94FD0980911116909132
:103350001216019690931216809311160F900F90EB
:10336000E5CFF80181918F011F928F93BF92AF92A9
:103370000E94FD090F900F900F900F90CDCF0FE09E
:1033800015E0209111163091121680910F0E909138
:10339000100E2817390784F41F930F930E94FD091C
:1033A00080911116909112160196909312168093A7
:1033B00011160F900F90E5CF88E798E09F938F93B9
:1033C0000E94FD0910921216109211160F900F9084
:1033D0000FE015E0209111163091121680910F0E1A
:1033E0009091100E2817390784F41F930F930E94B1
:1033F000FD09809111169091121601969093121664
:10340000809311160F900F90E5CF1F928F921F920D
:103410009F9289E499E09F938F930E94FD090F90FA
:103420000F900F900F900F900F908E016FE0C62EAF
:1034300065E0D62E7EE5A72E79E0B72EC8018C1B5D
:103440009D0B8E159F056CF5109212161092111699
:10345000209111163091121680910F0E9091100E3E
:103460002817390784F4DF92CF920E94FD098091DA
:1034700011169091121601969093121680931116C0
:103480000F900F90E5CFF80181918F011F928F93DC
:10349000BF92AF920E94FD090F900F900F900F9076
:1034A000CDCF25E0492DBE01882D4FDEDF91CF9194
:1034B0001F910F91FF90EF90DF90CF90BF90AF9052
:1034C0009F908F900895CF93DF936C98749A9D98F6
:1034D000A59AC8E0D1E08FE08883E7E0F1E0808141
:1034E0008068808388818F77888364E670E080E0DD
:1034F00090E00E945B0A8881806888830998119A0D
:10350000DF91CF9108952F923F924F925F926F92E9
:103510007F928F929F92AF92BF92CF92DF92EF9263
:10352000FF920F931F93CF93DF934091660B5091BF
:10353000670B6091680B7091690B8091620B9091A1
:10354000630BA091640BB091650B452B462B472B69
:1035500009F06BC00097A105B10509F066C0959907
:103560001CC00E944C0A2093660B3093670B40935B
:10357000680B5093690B0E944C0A20934B0B3093BD
:103580004C0B40934D0B50934E0B81E08093550BA9
:10359000809108018E7F809308016499FEC00E948B
:1035A0004C0A2093620B3093630B4093640B50934F
:1035B000650B0E944C0A20934B0B30934C0B4093AD
:1035C0004D0B50934E0B81E08093550B8091080179
:1035D0008E7F809308011092121610921116CFE080
:1035E000D5E0209111163091121680910F0E909116
:1035F000100E2817390784F4DF93CF930E94FD093A
:103600008091111690911216019690931216809344
:1036100011160F900F90E5CF84E699E09F938F935A
:103620000E94FD090F900F90B8C0892B8A2B8B2B1D
:1036300009F470C0649BB1C00E944C0AC090620B38
:10364000D090630BE090640BF090650BE4E6CE0E37
:10365000D11CE11CF11C1601270156016201E12C6D
:10366000F12C00E010E00E94133D09F008F447C07F
:10367000C1E0C093540B0E944C0A2093470B309337
:10368000480B4093490B50934A0B1092550BC09333
:10369000540B20935E0B30935F0B4093600B509361
:1036A000610B809108018E7F8093080110921216A1
:1036B00010921116CFE0D5E020911116309112161C
:1036C00080910F0E9091100E2817390784F4DF9324
:1036D000CF930E94FD0980911116909112160196C8
:1036E00090931216809311160F900F90E5CF8BE6F2
:1036F00099E09F938F930E94FD090F900F90109275
:10370000620B1092630B1092640B1092650B109277
:10371000550B43C0959B41C00E944C0AC090660B5C
:10372000D090670BE090680BF090690BE4E6CE0E4A
:10373000D11CE11CF11C1601270156016201E12C8C
:10374000F12C00E010E00E94133D39F130F1C1E0AE
:10375000C093540B0E944C0A2093470B3093480BA4
:103760004093490B50934A0B1092660B1092670BD3
:103770001092680B1092690B1092550BC093540B6A
:1037800020935E0B30935F0B4093600B5093610B63
:10379000809108018E7F8093080180915E0B90914B
:1037A0005F0BA091600BB091610B892B8A2B8B2B47
:1037B00019F10E944C0AC0905E0BD0905F0BE09014
:1037C000600BF090610B1601270156016201E12C9C
:1037D000F12C00E010E00E94133D71F068F0809140
:1037E000080181608093080110925E0B10925F0BBC
:1037F0001092600B1092610BDF91CF911F910F918E
:10380000FF90EF90DF90CF90BF90AF909F908F9000
:103810007F906F905F904F903F902F900895089504
:1038200090E0089570CB2DCD90E0CCC00E940E0F9B
:1038300090E008959EC90C94B112F5DF90E00895D0
:10384000EF92FF920F931F93CF93DF93CDB7DEB725
:10385000AC970FB6F894DEBF0FBECDBF7C01CA0196
:103860002932A8F469830A831B83422F50E0BC01EC
:10387000CE0104962CA70E94283D2CA543E0420FC0
:10388000BE016F5F7F4FC701CDDF90E002C083E0D4
:1038900090E0AC960FB6F894DEBF0FBECDBFDF91BF
:1038A000CF911F910F91FF90EF9008950F931F9369
:1038B00000916C0B10916D0B0F5F1F4F10936D0BF0
:1038C00000936C0BBDDF1F910F9108950F931F9311
:1038D000FC010281138180819181B2DF1F910F91E0
:1038E00008952F923F924F925F926F927F928F92A4
:1038F0009F92AF92BF92CF92DF92EF92FF920F937F
:103900001F93CF93DF931801E501F0924F16E092D9
:103910004E16C092561610925B1600916C0B1091C9
:103920006D0B0F5F1F4F10936D0B00936C0B10937B
:1039300051160093501684DF882321F0992787FDC4
:1039400090952DC00E944C0A5101C12CD12CE12C24
:10395000F12C00E010E00E94013D19012A013B0119
:103960004C0169DF80915B16882349F087E596E179
:10397000998388831092561680E090E010C00E94D0
:103980004C0A59016A017B018C019101A201B3012A
:10399000C4010E94133D09F020F784E090E0DF911C
:1039A000CF911F910F91FF90EF90DF90CF90BF903C
:1039B000AF909F908F907F906F905F904F903F90CF
:1039C0002F900895CF93DF93CDB7DEB728970FB62A
:1039D000F894DEBF0FBECDBFFB0150E0242F30E0D6
:1039E000652F772767FD70956217730714F45F5F83
:1039F000F7CF9A83898350815D83828190E0982FED
:103A000088272181820F911D9C838B833396FF83AE
:103A1000EE834350488720915616211112C0BE01F3
:103A20006F5F7F4F80916A0B90916B0B0E94590DD5
:103A300028960FB6F894DEBF0FBECDBFDF91CF91B1
:103A4000089520916C0B30916D0B8217930739F715
:103A500080E090E048E02091561630E0821793070E
:103A6000F4F6E0914E16F0914F16E80FF91F208101
:103A700052130BC0FE013196A7E5B6E1242F019049
:103A80000D922A95E1F7109256160196E4CFD3CE07
:103A9000CDCE4F925F926F927F929F92AF92BF92E4
:103AA000CF92DF92EF92FF920F931F93CF93DF930A
:103AB000982E6B01C0E0D0E080916E0B90916F0B5F
:103AC000C817D90708F060C05E01AA0CBB1C00E053
:103AD00010E0E12CF12CA091720BB091730BAD01B1
:103AE0004E5F5F4F4A0D5B1D60E070E06BBFFA01F7
:103AF000279136912A0F3B1F2901612C712C6BBE37
:103B0000F2014790512CE414F5040CF03BC06BBF5C
:103B1000FA0147915691CD010396800F911F840FB2
:103B2000951FA0E0B0E0ABBFFC0167907690B0DFDE
:103B30006816790609F52091720B3091730BC90153
:103B400002968A0D9B1DA0E0B0E0ABBFFC018791FF
:103B500096912B5F3F4F200F311F280F391FC9014E
:103B6000A0E0B0E0ABBFFC018791891105C0F60170
:103B7000D183C08381E009C0FFEFEF1AFF0A0D5F18
:103B80001F4FA9CF219698CF80E0DF91CF911F9151
:103B90000F91FF90EF90DF90CF90BF90AF909F90EC
:103BA0007F906F905F904F9008959F92AF92BF92D9
:103BB000CF92DF92EF92FF920F931F93CF93DF93F9
:103BC00000D0CDB7DEB7962EBE016F5F7F4F61DFAD
:103BD000A12CB12C00E010E08091700B9091710B42
:103BE0000817190708F071C04091740B5091750BBC
:103BF0004A0D5B1DCA010796A0E0B0E0ABBFFC0117
:103C0000879189115CC0CA010596A0E0B0E0ABBF06
:103C1000FC018791969129813A818217930709F0D7
:103C20004EC06A0182E0C80ED11CE12CF12CEBBE23
:103C3000F601C790D6904C5F5F4F60E070E06BBFBD
:103C4000FA0147912091720B3091730BCC0CDD1C63
:103C5000C90102968C0D9D1DA0E0B0E0ABBFFC0138
:103C6000879196912D5F3F4F280F391FC901A0E022
:103C7000B0E0ABBFFC01E790F6904B8309DF4B81CE
:103C8000E816F906E1F08091720B9091730B8C01AC
:103C90000E5F1F4F0C0D1D1D20E030E02BBFF80103
:103CA000079116910596800F911F8C0120E030E05E
:103CB0002BBFF8016791C7010E94CC2E07C00F5F90
:103CC0001F4F86E0A80EB11C87CF8FEF0F900F908B
:103CD0000F90DF91CF911F910F91FF90EF90DF90A8
:103CE000CF90BF90AF909F9008952F923F924F92A8
:103CF0005F926F927F928F929F92AF92BF92CF927C
:103D0000DF92EF92FF920F931F93CF93DF93CDB784
:103D1000DEB762970FB6F894DEBF0FBECDBF662E3A
:103D20007A01DC0112968C90BE016B5F7F4F882D6B
:103D3000B0DE882309F494C2BE016D5F7F4F882DE9
:103D40000E946E28EB81FC810190F081E02D408083
:103D500051801F861E861D861C861986E62DF0E082
:103D6000F98BE88B55248091700B9091710B4C85E9
:103D70005D854817590708F071C22091740B309186
:103D8000750B4E855F85240F351FC9010496A0E091
:103D9000B0E0ABBFFC018791861154C2C901029605
:103DA000A0E0B0E0ABBFFC01879196914D815E81B0
:103DB0008417950709F046C2C9010596A0E0B0E056
:103DC000ABBFFC01479156915B874A87A901495FC8
:103DD0005F4F60E070E06BBFFA019790A090720BAC
:103DE000B090730BABBFFC018791969195012E5F4C
:103DF0003F4F880F991F280F391FC901A0E0B0E07D
:103E0000ABBFFC01879196915FEFA51AB50AA80E8A
:103E1000B91EC501A0E0B0E0ABBFFC01A790B69011
:103E20008A859B85880F991F9B878A87212C312C37
:103E300018861F82BB24C090720BD090730BA60112
:103E40004E5F5F4F8A859B85480F591F60E070E089
:103E50006BBFFA01879196918C0D9D1DA0E0B0E09B
:103E6000ABBFFC01879190E0AF81B885A817B90777
:103E70000CF0E8C16BBFFA018791969196012B5F18
:103E80003F4F220D331D280F391FC901A0E0B0E0BC
:103E9000ABBFFC0177900B811C816BBFFA0147918E
:103EA0005691C6010396820D931D840F951FA0E0C5
:103EB000B0E0ABBFFC01C790D690EADDC816D906CA
:103EC00009F067C0BE016F5F7F4F872D0E946E288B
:103ED00081115DC0109212161092111620911116C8
:103EE0003091121680910F0E9091100E28173907FD
:103EF00094F4AFE0B5E0BF93AF930E94FD098091C9
:103F00001116909112160196909312168093111625
:103F10000F900F90E3CFD70111968C9111978F934B
:103F20008C918F931F929F921F927F921F926F92FC
:103F30001F928F92A1E7B9E0BF93AF930E94FD0952
:103F4000D801ED91FC9128893989E20FF31F43854F
:103F500050E04F730FB6F894DEBF0FBECDBF89811E
:103F60009A814130510531F4D7012C9141E0692DFE
:103F700023D7D7C0F70120813181452B21F441E0BF
:103F8000692DCFD6CEC041E0692D5ED7CAC080E092
:103F9000C8C01092121610921116F1E0CF16D1047B
:103FA00009F061C0209111163091121680910F0E08
:103FB0009091100E2817390794F4AFE0B5E0BF9345
:103FC000AF930E94FD0980911116909112160196EF
:103FD00090931216809311160F900F90E3CFD70194
:103FE00011968C9111978F938C918F931F929F9222
:103FF0001F927F921F92B1E0BF931F926F921F9208
:104000008F92A1EBB9E0BF93AF930E94FD09D80155
:10401000ED91FC9128893989E20FF31F838590E0A7
:104020008F730FB6F894DEBF0FBECDBF8130910500
:1040300049F4D7012C91482DB20181E090E00E9413
:10404000892E6FC0F70120813181482DB201892B63
:1040500029F481E090E00E94682E63C081E090E046
:104060000E94AA2E5EC020911116309112168091E6
:104070000F0E9091100E2817390794F4AFE0B5E0B9
:10408000BF93AF930E94FD09809111169091121673
:10409000019690931216809311160F900F90E3CF14
:1040A000D70111968C9111978F938C918F931F92BA
:1040B0009F921F927F92DF92CF921F926F921F92D8
:1040C0008F92A7EFB9E0BF93AF930E94FD09D8018B
:1040D000ED91FC9128893989E20FF31F838590E0E7
:1040E0008F730FB6F894DEBF0FBECDBF8130910540
:1040F00049F4D7010C919501492D672DC6010E9405
:10410000132E0FC0F701008111819501492D672DF4
:10411000892B21F4C6010E94E72D03C0C6010E942D
:104120003F2E1092121610921116409111165091B6
:10413000121620910F0E3091100E42175307ACF457
:10414000AFE0B5E0BF93AF938A8B0E94FD09209149
:104150001116309112162F5F3F4F30931216209395
:1041600011160F900F908A89E0CF1F928F93ACE3C6
:10417000BAE0BF93AF938A8B0E94FD098A89598563
:10418000582B598710921216109211160F900F90FB
:104190000F900F90209111163091121680910F0EF2
:1041A0009091100E2817390794F4AFE0B5E0BF9353
:1041B000AF930E94FD0980911116909112160196FD
:1041C00090931216809311160F900F90E3CF2091C9
:1041D000720B3091730BC90102964A855B85840F7F
:1041E000951FA0E0B0E0ABBFFC01879196912D5FD9
:1041F0003F4F220D331D280F391FC901A0E0B0E049
:10420000ABBFFC01879196911F9259855F939F9355
:104210008F9388858F939F819F93A0E5BAE0BF938A
:10422000AF930E94FD092F8138852F5F3F4F38875C
:104230002F8333E0230E311C0FB6F894DEBF0FBE80
:10424000CDBFF9CDEC85FD853196FD87EC872E85B8
:104250003F852A5F3F4F3F872E8785CD898501C0E7
:1042600080E062960FB6F894DEBF0FBECDBFDF913F
:10427000CF911F910F91FF90EF90DF90CF90BF9063
:10428000AF909F908F907F906F905F904F903F90F6
:104290002F900895FF920F931F93CF93DF9300D039
:1042A000CDB7DEB7BE016D5F7F4FCE0101960E9494
:1042B000212A8823F1F06B8189819A810E94AC2A9E
:1042C0008C01FC01208189819A8124FF06C0A8010C
:1042D0004F5F5F4F6B8109DD04C06B81FC01828100
:1042E00064DCF82EC801F11002C03CD6DBCF1AD630
:1042F0008F2D0F900F900F90DF91CF911F910F9105
:10430000FF9008950F931F93CF93DF9320916E0B2F
:1043100030916F0B2817390708F43CC0C091720B1D
:10432000D091730BDC01AA0FBB1F8E010E5F1F4FD4
:104330000A0F1B1F20E030E02BBFF80107911691F8
:10434000CE010396800F911F8C0120E030E02BBF3F
:10435000F80107911691FB01118300832091720BE4
:104360003091730BC90102968A0F9B1FA0E0B0E049
:10437000ABBFFC01879196912B5F3F4F280F391FF0
:10438000C901A0E0B0E0ABBFFC018791FA018083D6
:1043900080E001C08FE0DF91CF911F910F910895D0
:1043A0004091720B5091730B9A012E5F3F4F880F13
:1043B000991F280F391FC901A0E0B0E0ABBFFC0175
:1043C000879196919A012D5F3F4F280F391FC901A0
:1043D000A0E0B0E0ABBFFC018791969121E0861789
:1043E000970709F020E0822F0895BF92CF92DF92C5
:1043F000EF92FF920F931F93CF93DF931F921F9221
:10440000CDB7DEB7B62EBE016F5F7F4F42DBC980EE
:10441000DA802091740B3091750B2B5F3F4FE09049
:10442000700BF090710B00E010E040E050E04E1592
:104430005F0509F42FC0C9010296A0E0B0E0ABBF50
:10444000FC0187918B111FC0C901A0E0B0E0ABBF98
:10445000FC01879196918C159D05A9F419DB40917B
:10446000740B5091750B4E5F5F4F400F511F60E012
:1044700070E06BBFFA0147915691BC01CA0190DF11
:1044800091E0982708C04F5F5F4F0A5F1F4F2A5F78
:104490003F4FCDCF90E0892F0F900F90DF91CF91BC
:1044A0001F910F91FF90EF90DF90CF90BF900895F4
:1044B0008F929F92AF92BF92DF92EF92FF920F93F3
:1044C0001F93CF93DF931F921F92CDB7DEB79093C8
:1044D000730B8093720BA0E0B0E0ABBFFC0187913F
:1044E000969190936F0B80936E0B00E010E080919B
:1044F0006E0B90916F0B0817190708F05DC07801DB
:10450000EE0CFF1CD12C2091720B3091730BC90162
:1045100002968E0D9F1DA0E0B0E0ABBFFC0147915D
:104520005691420F531F60E070E06BBFFA01479154
:10453000D41608F03EC0ABBFFC018791969143E0D2
:10454000D49E500111242D5F3F4F2A0D3B1D280F93
:10455000391FC901A0E0B0E0ABBFFC018790969085
:1045600097DA8816990619F52091720B3091730B22
:10457000C90102968E0D9F1DA0E0B0E0ABBFFC010B
:10458000879196912B5F3F4F2A0D3B1D280F391FB6
:10459000C901A0E0B0E0ABBFFC018791BE016F5F35
:1045A0007F4F9CD5811103C089819A81EDD7D39427
:1045B000AACF0F5F1F4F9BCF80E00F900F90DF912E
:1045C000CF911F910F91FF90EF90DF90BF90AF9030
:1045D0009F908F9008959093750B8093740BA0E03B
:1045E000B0E0ABBFFC01879196919093710B8093E3
:1045F000700B80E008958F929F92AF92BF92DF92EE
:10460000EF92FF920F931F93CF93DF9300D01F92EF
:10461000CDB7DEB7E12CF12C80916E0B90916F0B32
:10462000E816F90608F0B0C08701000F111FD12C61
:104630002091720B3091730BC9010296800F911F6C
:10464000A0E0B0E0ABBFFC0147915691420F531F71
:1046500060E070E06BBFFA014791D41608F090C09B
:10466000ABBFFC018791969143E0D49E5001112489
:104670002D5F3F4F2A0D3B1D280F391FC901A0E0B8
:10468000B0E0ABBFFC018790969002DA88169906DD
:1046900009F074C02091720B3091730BC90102961E
:1046A000800F911FA0E0B0E0ABBFFC018791969115
:1046B0002F5F3F4F280F391FC901A0E0B0E0ABBF0B
:1046C000FC0187919691BE016D5F7F4F5AD4811195
:1046D0005CC0EB81FC8184819581892B09F44EC0FB
:1046E0002091720B3091730BC9010296800F911FBC
:1046F000A0E0B0E0ABBFFC01879196912B5F3F4FEC
:104700002A0D3B1D280F391FC901A0E0B0E0ABBF47
:10471000FC018791BE016F5F7F4FE0D48B809C804E
:10472000813049F0E981FA8180819181881599056C
:1047300029F186E02AC02091720B3091730BC901D8
:104740000296800F911FA0E0B0E0ABBFFC01879103
:1047500096912B5F3F4F2A0D3B1D280F391FC90132
:10476000A0E0B0E0ABBFFC01679120E040E050E08A
:10477000F401808191812DD7811107C0D39458CF46
:10478000FFEFEF1AFF0A48CF80E00F900F900F90D5
:104790000F90DF91CF911F910F91FF90EF90DF90DD
:1047A000BF90AF909F908F9008952F923F924F921D
:1047B0005F926F927F928F929F92AF92BF92CF92B1
:1047C000DF92EF92FF920F931F93CF93DF93CDB7BA
:1047D000DEB727970FB6F894DEBF0FBECDBFAC0192
:1047E00060E070E06BBFFA01A790B6906C0122E028
:1047F000C20ED11CE12CF12CEA14FB0409F4B1C067
:10480000860120E030E02BBFF801079116911601D8
:1048100082E0280E311CC101A0E0B0E0ABBFFC017A
:104820002790A6014D5F5F4F60E070E06BBFFA011B
:10483000A791AB83B4E0CB0ED11C000F111F312C1C
:10484000822C912C2601612C712C2091720B3091BD
:10485000730BA9014E5F5F4F400F511F60E070E086
:104860006BBFFA0187919691820F931FA0E0B0E091
:10487000ABBFFC018791381608F06CC06BBFFA0122
:104880006791769183E0389EA0011124C9010396B7
:10489000840F951F860F971FA0E0B0E0ABBFFC010F
:1048A000279136912E833F834C835D83F1D82E81EF
:1048B0003F814C815D812817390709F049C020915B
:1048C000720B3091730BC9010296800F911FA0E00B
:1048D000B0E0ABBFFC0167917691C9010596840FEA
:1048E000951F860F971FA0E0B0E0ABBFFC0187913A
:1048F000BE016F5F7F4FF2D3811134C089819A81ED
:10490000DC01ED91FC91E80DF91D23852F73213019
:1049100099F050F02230E1F46BBEF201279136910C
:1049200041E0622D91D212C06BBEF2012791369107
:1049300041E0622DF6D10AC06BBEF201379121E051
:10494000311101C020E041E0622D36D281110AC050
:1049500033947BCFBB81CB0ED11C2FEFE21AF20A2E
:104960004BCF80E027960FB6F894DEBF0FBECDBFC9
:10497000DF91CF911F910F91FF90EF90DF90CF903B
:10498000BF90AF909F908F907F906F905F904F906F
:104990003F902F9008952F923F924F925F926F9287
:1049A0007F928F929F92AF92BF92CF92DF92EF92BF
:1049B000FF920F931F93CF93DF931F921F92CDB758
:1049C000DEB78C01962EE12CF12C8091141690917B
:1049D00015160E94270A90E0E816F9069CF46E2D41
:1049E00080911416909115160E94390A0197A0E043
:1049F000B0E0ABBFFC018791843039F06FEFE61A6D
:104A0000F60AE3CFEE24EA94FE2CBE016F5F7F4FDF
:104A1000F80182813ED87E2C6E2D809114169091E3
:104A200015160E94390A9C01A0E0B0E0ABBFFC0162
:104A300087919691A981BA8140E050E062E0E62E2C
:104A4000F12C6901F2E0CF0ED11C590163E0A60EF2
:104A5000B11C4817590709F434C01701220E331E40
:104A6000412C512C4BBEF1016791769116012E0C11
:104A70003F1C412C512C4BBEF101679015012E0CAF
:104A80003F1C412C512C4BBEF1018790E4E0EE0E0F
:104A9000F11CA617B70781F496100EC0692DC80146
:104AA0005BD58C01B701872D3DD6B8016F5F7F4F75
:104AB000882DA6D612D705C0E80CF11C4F5F5F4FBA
:104AC000C8CF0F900F90DF91CF911F910F91FF9062
:104AD000EF90DF90CF90BF90AF909F908F907F909E
:104AE0006F905F904F903F902F9008959F92AF925C
:104AF000BF92CF92DF92EF92FF920F931F93CF93CB
:104B0000DF938C01B12CA12C912CC8010E94270AA3
:104B1000B816F8F46B2DC8010E94390AEC016C013B
:104B200081E0C81AD108E12CF12CEBBEF601879187
:104B3000823021F4CE014FDD99249394EBBEF6012F
:104B40008791833021F4CE01B3DCAA24A394B394DB
:104B5000DCCF992011F0A11011C06FE670E080E069
:104B600090E0DF91CF911F910F91FF90EF90DF9038
:104B7000CF90BF90AF909F900C946E0DDF91CF912E
:104B80001F910F91FF90EF90DF90CF90BF90AF906B
:104B90009F9008950F931F93CF93DF93EC012BDD2C
:104BA000882331F06EE670E080E090E00E946E0DA8
:104BB00010E000E0CE010E94270A181790F4612F40
:104BC000CE010E94390AAC014150510960E070E009
:104BD0006BBFFA014791443011F4E7DD01E01F5F3C
:104BE000E9CF01110AC06FE670E080E090E0DF914C
:104BF000CF911F910F910C946E0DDF91CF911F916A
:104C00000F910895CF93DF931F921F92CDB7DEB718
:104C10001A8219822FE088E190E00FB6F894A895E7
:104C2000809360000FBE20936000A89560E070E064
:104C300080912C0B90912D0B0E94590D8091131691
:104C4000813099F727DBCE01019620D3882369F3C1
:104C500089819A810F900F90DF91CF910895CF9322
:104C6000DF93EC0143DFCE01DF91CF9193CFCF9360
:104C7000DF93EC013BDFCE018DDFDF91CF91C2CF1F
:104C8000FB0120812F732061208341117DC2089593
:104C90000F931F93DC01ED91FC9186816817B0F4AE
:104CA000E60FF11D8385222349F0403819F487FF70
:104CB0000FC004C0403411F486FF0CC010E090E037
:104CC0008F730817190741F089E007C082E005C01B
:104CD00085E003C084E001C080E01F910F9108953A
:104CE000EF92FF920F931F93CF93DF93EC01162F58
:104CF000790100E0242F40E8CBDF082F811109C0A3
:104D0000612FCE0129D4FC0121813281F701318349
:104D10002083802FDF91CF911F910F91FF90EF9013
:104D20000895DF92EF92FF920F931F93CF93DF933B
:104D3000EC01D62E142F790100E0242F40E4A8DFE7
:104D4000811113C06D2DCE0107D4111106C0FC01D5
:104D5000618172816E157F0539F0FC01F282E1827A
:104D6000412FBC01CE018CDF80E0DF91CF911F91FC
:104D70000F91FF90EF90DF900895EF92FF920F93C5
:104D80001F93CF93DF93EC01162F790101E0242FBD
:104D900040E87EDF082F811107C0612FCE01DCD3F0
:104DA000FC018181F7018083802FDF91CF911F91DA
:104DB0000F91FF90EF900895EF92FF920F931F9342
:104DC000CF93DF93EC01E62E142FF22E01E0242F77
:104DD00040E45EDF811110C06E2DCE01BDD31111F4
:104DE00004C0FC0121812F1531F0FC01F182412F1B
:104DF000BC01CE0145DF80E0DF91CF911F910F9183
:104E0000FF90EF900895EF92FF920F931F93CF932F
:104E1000DF93EC01162F790102E0242F40E838DF00
:104E2000082F811109C0612FCE0196D3FC01218189
:104E30003281F70131832083802FDF91CF911F9141
:104E40000F91FF90EF900895DF92EF92FF920F93F2
:104E50001F93CF93DF93EC01162FD42E790102E03C
:104E6000242F40E415DF811116C0612FCE0174D3C9
:104E70008C01D11006C0FC01818192818E159F05A5
:104E800049F0F801F282E182CE018FD14D2DB801B7
:104E9000CE01F6DE80E0DF91CF911F910F91FF9060
:104EA000EF90DF900895CF93DF93EA0155D30097F9
:104EB00029F0FC018081888380E001C082E0DF91DD
:104EC000CF910895DC01ED91FC912681621778F471
:104ED00043D3FC01009769F0808186FD02C087FF03
:104EE00002C0806201C080E3808380E0089582E098
:104EF00008958FEF08950F93082F807571F0802F1C
:104F00008C7069F00E944C0AE02FE1700E700E94D4
:104F1000E53C217081E0E21719F080E001C081E0FA
:104F20000F9108950F93CF93DF93EC0128812E709A
:104F300030E035952795022F273011F001E0020F60
:104F40000E944C0AE02FEE0FF881F07FEF2B000F4C
:104F50000E94E53C2F5F2170E22BE883DF91CF9127
:104F60000F910895FC01808184FF02C0807C02C003
:104F7000807B806880830895FC01208120642083E9
:104F80000895DB012091760B3091770B11963C93BD
:104F90002E93ED91FC911197309741F02081318152
:104FA0002817390729F021853285F0CF83E008954D
:104FB00080E008950F931F93CF93DF931F921F926A
:104FC000CDB7DEB78C01BE016F5F7F4FFC018081E2
:104FD0009181D7DF882359F08091760B9091770BE0
:104FE000F801928781871093770B0093760B0F90CF
:104FF0000F90DF91CF911F910F910895FB012091A8
:10500000760B3091770B31832083A081B181882387
:1050100041F0309731F0815019962D913C911A97BB
:10502000F2CFAB2B11F080E0089583E00895E0917A
:10503000760BF091770B80E090E0309729F00196A5
:105040000184F285E02DF9CF0895DC0116964C918C
:10505000169750E020E030E080E0241735076CF42C
:10506000FD01E20FF31FE385F0E0EF73EC55FB4F1A
:105070009081890F2F5F3F4FF0CF08950F931F93BB
:10508000CF93DF93C0917C0BD0917D0B209769F07B
:105090009A8198130AC08E859F8590937D0B80938B
:1050A0007C0BCE010E94800A10C0209789F0EE850B
:1050B000FF85309761F092819813F9CF06851785A7
:1050C000CF010E94800A1F870E8780E002C0FFCFB9
:1050D00081E0DF91CF911F910F910895DB01209125
:1050E0007C0B30917D0B11963C932E93ED91FC91AE
:1050F0001197309731F09281981729F026853785DE
:10510000F2CF81E0089580E00895FB0120917C0BAF
:1051100030917D0B31832083A081B181882341F0C0
:10512000309731F081501E962D913C911F97F2CF10
:1051300081E0AB2B09F080E00895DB0120917C0B2E
:1051400030917D0B11963C932E93ED91FC9111972C
:10515000309741F0238134812817390729F02685BB
:105160003785F0CF81E0089580E00895E0917C0BD1
:10517000F0917D0B80E090E0309729F00196068455
:10518000F785E02DF9CF0895DC0113962D913C9120
:105190001497232B31F4ED91FC910480F581E02DDF
:1051A000199421E0FC01258708958F929F92AF9278
:1051B000BF92CF92DF92EF92FF920F931F93CF9304
:1051C000DF931F921F92CDB7DEB74C01DC01ED914A
:1051D000FC91868190E060E070E0681779070CF040
:1051E00046C0DF01A60FB71F1B962C912F732230EC
:1051F000D9F59E012F5F3F4F40E0C40104DE898155
:105200009A81892B51F4F401158216821782108637
:1052100011861286138614862AC00E944C0ABA8010
:10522000A9801B2D110F110BC12ED12EE12EF12EB5
:10523000012F0E94013DD40115962C9315971696C7
:105240003C93169717964C93179718965C9318975C
:1052500019966C9319971A967C931A971B968C93B0
:105260001B971C969C9303C06F5F7F4FB6CF0F9028
:105270000F90DF91CF911F910F91FF90EF90DF90F2
:10528000CF90BF90AF909F908F9008952F923F92B4
:105290004F925F926F927F928F929F92AF92BF9246
:1052A000CF92DF92EF92FF920F931F93CF93DF93F2
:1052B0001F921F92CDB7DEB73C0180917C0B90917D
:1052C0007D0B892B11F480E0A7C0BE016F5F7F4F7B
:1052D00080917A0B1ADF813051F480917C0B909190
:1052E0007D0B9A83898310927B0B10927A0B8090AE
:1052F0007A0B90907B0BE981FA81868597859A835A
:1053000089832FEF821A920A892B41F480917C0BBA
:1053100090917D0B9A838983812C912CE981FA816C
:10532000E580F6800781108521843284438454848B
:105330009701A801B101C201A0E00E941C3D31F417
:10534000E981FA818585811114C05DC00E944C0AF3
:1053500059016A01B62FA72FF82FE92F9701A8014D
:10536000B101C201EB2EFA2E0F2F1E2F0E94133D0A
:1053700038F7E981FA811586E580F6800781108586
:1053800021843284438454849701A801B101C2016D
:10539000A0E00E941C3DB1F00E944C0A59016A0134
:1053A000B62FA72FF82FE92F9701A801B101C2014D
:1053B000EB2EFA2E0F2F1E2F0E94133D18F4898119
:1053C0009A81F3DEE981FA8183819481892B91F4BA
:1053D000CE0101960E94B00A89819A81DC01ED918B
:1053E000FC910480F581E02D1995CE0101960E9473
:1053F000D80A09C0D301ED93FC9390927B0B809265
:105400007A0B81E009C080917A0B90917B0B881612
:10541000990609F070CF57CF0F900F90DF91CF9181
:105420001F910F91FF90EF90DF90CF90BF90AF90C2
:105430009F908F907F906F905F904F903F902F90B4
:1054400008957F928F929F92AF92BF92CF92DF92F8
:10545000EF92FF920F931F93CF93DF931F921F92B0
:10546000CDB7DEB76C015B0180917C0B90917D0B19
:10547000892B11F480E060C0BE016F5F7F4F809187
:10548000780B43DE813051F480917C0B90917D0B41
:105490009A8389831092790B1092780B0091780B84
:1054A0001091790BE981FA81868597859A838983A2
:1054B0000F5F1F4F892B41F480917C0B90917D0BE6
:1054C0009A83898300E010E0E981FA8180809180ED
:1054D000E12CF12C712CF401868190E0E816F9069C
:1054E00014F5E981FA81E70DF11D808904DD882337
:1054F00061F01093790B0093780B29813A81F601C2
:1055000031832083F501E08217C0F401EE0DFF1D09
:10551000E385F0E0EF73EC55FB4F8081780EFFEFF1
:10552000EF1AFF0AD8CF8091780B9091790B08176A
:10553000190709F0B7CF9ECF0F900F90DF91CF9151
:105540001F910F91FF90EF90DF90CF90BF90AF90A1
:105550009F908F907F900895FC014081518120E0C1
:10556000662361F06150FA01E60FF11DE385F0E07A
:10557000EF73EC55FB4F3081230FF2CF30E0205F0B
:105580003F4F820F931F0895FF920F931F93CF9366
:10559000DF938C01DC011296FC90C0E0D0E0D801D2
:1055A000ED91FC91268130E0C217D30764F46C2F93
:1055B0008F2D0E94F521882321F06C2FC801CCDFAC
:1055C000DBDC2196ECCFDF91CF911F910F91FF9003
:1055D0000895EF92FF920F931F93CF93DF9300D024
:1055E00000D0CDB7DEB78C01F62E5E834D83E22E60
:1055F000BE016D5F7F4F8F2D71DD813009F06FC06F
:10560000BE016F5F7F4FC801BCDC811171C0098191
:105610001A81F801808580FD03C0EE2009F461C085
:10562000F80184819581892B61F42D813E81232BA2
:1056300009F459C0C80109DD082F10E0005F1F4FB1
:1056400009C0C80102DDF801078110E0005F1F4FAB
:10565000080F111DCE0105960E94B00ACE010196D9
:105660000E94B00A69E070E0C8010E94730C9C833C
:105670008B83CE0105960E94D80ACE0101960E9426
:10568000D80A8B819C81009781F1A80160E070E0CD
:105690000E94423DEB81FC8129813A813183208344
:1056A000F2828D819E8194838383158680917C0B09
:1056B00090917D0B97878687F0937D0BE0937C0B11
:1056C000CF0162DFE981FA8184819581892B79F0AC
:1056D0000280F381E02D8B819C81199508C086E0C2
:1056E00007C084E105C08BE003C088E001C080E012
:1056F00026960FB6F894DEBF0FBECDBFDF91CF91D7
:105700001F910F91FF90EF900895CF93DF93EC01DD
:10571000888199819ADC90E040968C0F9D1FDF91E3
:10572000CF910895FF920F931F93CF93DF93F82E9D
:10573000EB01682F80911416909115160E94390A7A
:105740008C0180911416909115160E94270AF81664
:10575000E0F4A8014350510960E070E06BBFFA012A
:1057600047915691C417D50780F4809114169091F3
:1057700015169E01281B390BC901800F911FDF915F
:10578000CF911F910F91FF900AC080E0DF91CF91E0
:105790001F910F91FF90089580E091E0089520E01F
:1057A00030E0392F40E053E060E070E0420F531FDB
:1057B000611D711D4093800B5093810B6093820B90
:1057C0007093830B992790937F0B80937E0BAFE5AB
:1057D000B6E1815A994EA817B90749F06BBFFA0193
:1057E00027912D934F5F5F4F6F4F7F4FF4CF81E035
:1057F000089580E18093600088E080936000FFCF8F
:10580000CF92DF92EF92FF920F931F93CF93DF938C
:10581000D82E7B014091800B5091810B6091820BBF
:105820007091830B452B462B472B09F44DC0DD208F
:1058300009F44AC000917E0B10917F0BC8018D0DB9
:10584000911D8130914018F0C02EC19401C0CD2C23
:10585000CC2DD0E0AE01B701C801815A994E0E940B
:10586000283D0C0F1D1F01151140F9F46091800BAC
:105870007091810B8091820B9091830B4FE556E1E3
:105880000F9400F80091800B1091810B2091820BF6
:105890003091830B1F5F2F4F3F4F0093800B10936E
:1058A000810B2093820B3093830B20917E0B3091E0
:1058B0007F0B2C0F3D1F332730937F0B20937E0BE4
:1058C000DC18EC0EFD1EB3CFDF91CF911F910F912D
:1058D000FF90EF90DF90CF9008958F929F92AF92BC
:1058E000BF92CF92DF92EF92FF920F931F9360913E
:1058F000800B7091810B8091820B9091830B6115CD
:10590000710581059105B9F140917E0B50917F0B96
:105910004115510541F100E010E098016A01EE24C3
:10592000D7FCE094FE2CC60ED71EE81EF91E4F3F92
:10593000510509F0A4F446015701800E911EA21EE4
:10594000B31EABBEF4018790FA01E15AF94E808292
:105950004F5F5F4F0F5F1F4F2F4F3F4FE8CF4FE518
:1059600056E10F9400F81092800B1092810B109268
:10597000820B1092830B1F910F91FF90EF90DF909D
:10598000CF90BF90AF909F908F90089503D003D099
:10599000B5D486C4089587E49DE19093531680930F
:1059A000521662E576E18CE29BE00E94170D0C94A2
:1059B0001A1CAF92BF92CF92EF92FF920F931F9358
:1059C000CF93DF9300D01F92CDB7DEB731E0360F13
:1059D00039833FEA3A83FE0133965F0132E0C32EFA
:1059E00032977F0108EE13E00E94711C81110AC0FA
:1059F000EB81FC8184818F3A49F40580F681E02DAA
:105A0000808107C0843021F48DE003C080E001C0B4
:105A10008CE00F900F900F900F90DF91CF911F911E
:105A20000F91FF90EF90CF90BF90AF9008956F923D
:105A30007F928F929F92AF92BF92CF92DF92EF921E
:105A4000FF920F931F93CF93DF934C01662E8A0131
:105A5000722E1092121610921116CFE0D5E02091FE
:105A600011163091121680910F0E9091100E28177A
:105A7000390784F4DF93CF930E94FD0980911116BA
:105A800090911216019690931216809311160F9012
:105A90000F90E5CF9F928F9289E79AE09F938F9323
:105AA0000E94FD090F900F900F900F90E801A72C16
:105AB000B12C4FE0E42E45E0F42E53EAC52E5AE017
:105AC000D52ECE01801B910B10921216109211163A
:105AD0008A159B0544F5209111163091121680917C
:105AE0000F0E9091100E281739078CF4FF92EF9249
:105AF0000E94FD0940911116509112164F5F5F4FA1
:105B000050931216409311160F900F90E4CF899185
:105B10001F928F93DF92CF920E94FD090F900F90FA
:105B20000F900F90CECFCFE0D5E02091111630919D
:105B3000121680910F0E9091100E281739078CF4D1
:105B4000DF93CF930E94FD094091111650911216D8
:105B50004F5F5F4F50931216409311160F900F90A6
:105B6000E4CF88E798E09F938F930E94FD090F9000
:105B70000F90272DA801662DC401DF91CF911F91B1
:105B80000F91FF90EF90DF90CF90BF90AF909F90DC
:105B90008F907F906F900C94561CCF93DF9300D022
:105BA00000D0CDB7DEB730E2398331E03A832B83C2
:105BB00043E0BE016F5F7F4F0E941D1C26960FB60B
:105BC000F894DEBF0FBECDBFDF91CF9108950F9344
:105BD0001F93CF93DF93CDB7DEB727970FB6F89417
:105BE000DEBF0FBECDBF522F732F9801603418F067
:105BF000652FD3DF0DC069837A835B834C831D825D
:105C00003E830F8327E0AE014F5F5F4F66E9D1DE31
:105C100027960FB6F894DEBF0FBECDBFDF91CF91B0
:105C20001F910F9108950F93CF93DF9300D000D071
:105C3000CDB7DEB7522F732F603450F0002319F028
:105C40002FEF30E002C020E030E0652FA6DF0DC06E
:105C500069833A832B834C8321E02D830E8326E0D6
:105C6000AE014F5F5F4F66E9A4DE26960FB6F8944B
:105C7000DEBF0FBECDBFDF91CF910F9108950F937F
:105C80001F93CF93DF93CDB7DEB728970FB6F89465
:105C9000DEBF0FBECDBF603478F469833A832B83B7
:105CA0004C8322E02D831E830F8327E0AE014F5FDC
:105CB0005F4F66E97EDE01C08FEA28960FB6F89442
:105CC000DEBF0FBECDBFDF91CF911F910F91089521
:105CD000CF93DF9300D000D0CDB7DEB780349105ED
:105CE00070F479836A834B831C823D832E8326E084
:105CF000AE014F5F5F4F65EB9ADE80E001C08FEA37
:105D000026960FB6F894DEBF0FBECDBFDF91CF91C0
:105D10000895CF93DF9300D01F921F92CDB7DEB7C7
:105D20008034910570F479836A834B8331E03C833E
:105D30002D8325E0AE014F5F5F4F65EB78DE80E09D
:105D400001C08FEA0F900F900F900F900F90DF918E
:105D5000CF910895CF93DF9300D000D0CDB7DEB7B9
:105D60008034910578F479836A834B8342E04C83D5
:105D70003D832E8326E0AE014F5F5F4F65EB57DE1C
:105D800080E001C08FEA26960FB6F894DEBF0FBE02
:105D9000CDBFDF91CF910895CF93DF931F921F92D4
:105DA000CDB7DEB769834A8322E0AE014F5F5F4F14
:105DB00068E9FFDD0F900F90DF91CF910895AF92CA
:105DC000BF92CF92DF92EF92FF920F931F93CF93E8
:105DD000DF9300D000D0CDB7DEB76C01DC011596A3
:105DE000ED90FC90169780911316823009F4C9C18A
:105DF00014960C9110E0F801E059F109E131F10538
:105E000008F0BFC1E457FF4F0C94D93C48E2F701BA
:105E10006081C701D7D1282F6BE9ABC1D70111969B
:105E20004C9111976C91C7010296BCD1811102C0AF
:105E30006DE901C06FEAF701808397C1B12C00E0E2
:105E400010E08B2D00D2882331F00F5F1F4FF70138
:105E5000E00FF11FB082B394F5E0BF12F2CFD7018B
:105E60000C9321E0200F6FE984C161E0F701838189
:105E7000811101C060E0D70112968C91BDD18823B9
:105E800009F47CC1F70182836FC1D1D899E3899F5E
:105E9000912D11249695282FF9E09F9F2019112408
:105EA00021119F5FD701AC9029E0A29EA02C112464
:105EB00011969C93119712968C93982F9A199A3059
:105EC00008F099E087010B5F1F4FB12CB91669F1FB
:105ED000BE016F5F7F4F8B2D8A0D9E838FD8E98126
:105EE000FA818181F80132978083E981FA8180818A
:105EF000F80131978083E981FA8180852481358199
:105F00009E8180FF08C0232B11F483E001C082E052
:105F1000F801808306C081E0232B09F080E0D801DE
:105F20008C93B3940D5F1F4FD1CF4B2D50E04F5F3B
:105F30005F4F242F220F240F61E91BC117D929E3DA
:105F4000829F212D11242695982FB9E02B9F90191F
:105F5000112491112F5FF701A08099E0A99EA02C38
:105F6000112421838283982F9A199A3008F099E09E
:105F700087010A5F1F4FB12CB91689F1BE016F5F0F
:105F80007F4F8B2D8A0D9E83C0D8E981FA81828153
:105F9000F80133978083E981FA810190F081E02D47
:105FA0008181F80132978083E981FA810190F08143
:105FB000E02D8081F80131978083E981FA81019099
:105FC000F081E02D81E0448155819E81452B09F0CF
:105FD00080E0D8018C93B3940C5F1F4FCDCF2B2D55
:105FE000220F220F2D5F63E9C4C0F701B380BE0109
:105FF0006D5F7F4F808172D8882321F0D701129680
:106000008C93B2C0AE014B5F5F4F6B2D8B819C8137
:106010000E9453278B819C810B2D10E0DC01ED91B8
:10602000FC91E00FF11F238530E02F73211531051E
:1060300041F49E012F5F3F4F41E06B2D0E9470267F
:106040002BC021303105E9F49E012F5F3F4F41E025
:106050006B2D0E94BD26EB81FC810190F081E02D2B
:10606000E00FF11F93859F73D70114969C931497AB
:106070009D8115969C931597998116969C9327E080
:106080001DC02230310509F05AC09E012F5F3F4FDD
:1060900041E06B2D0E940327EB81FC810190F08190
:1060A000E02DE00FF11F93859F73F70194839D818D
:1060B000958399812A812683978328E0811152C094
:1060C00065E957C0F7011381BE016F5F7F4F808183
:1060D00005D8811147C0F701848181110EC0258147
:1060E00030E0322F22278681280F311D41E0612FB9
:1060F00089819A810E9491261EC0813061F421E03D
:106100008581811101C020E041E0612F89819A8160
:106110000E94DC2610C0823091F4F701258130E026
:10612000322F22278681280F311D41E0612F89817E
:106130009A810E942427811115C067E919C08FEF49
:1061400011C0F7011181BE016F5F7F4F80810E94F6
:106150006E28811107C0612F89819A810E94622770
:10616000882329F0D7018C936FEA21E002C069E906
:1061700024E0A701C6010E94661C03C061EA20E07A
:10618000F8CF26960FB6F894DEBF0FBECDBFDF91D5
:10619000CF911F910F91FF90EF90DF90CF90BF9024
:1061A000AF90089570E050E09B01240F351F213817
:1061B000310534F46D5F7F4F0E94C83F80E0089541
:1061C00080E10895CF93C42F262F30E0F901E40F2A
:1061D000F11DE138F10534F067FD03C0C0E8C61BCE
:1061E00001C0C0E04C2F50E0B9016D5F7F4F0E94AD
:1061F000AB3F8C2FCF910895CF93C82F853000F5FA
:1062000082E090E0662359F00E94BB3F61E070E0BD
:106210000C2E01C0660F0A94EAF7682B0BC00E948F
:10622000BB3F61E070E00C2E01C0660F0A94EAF7F4
:106230006095682382E090E00E94D13F80E001C039
:1062400081E1CF910895CF93C82F853090F482E0FB
:1062500090E00E94BB3F282F30E041E050E002C0B8
:10626000440F551FCA95E2F72423352381E0232BE1
:1062700009F480E08170CF91089581E090E00C9462
:10628000C33FBC0181E090E00C94DF3F80E090E0F0
:106290000C94C33FBC0180E090E00C94DF3F089574
:1062A0008CE891E3909368178093671767E677E12E
:1062B00084E39BE00E94170D8CEB91E390936417AD
:1062C0008093631763E677E180E39BE00E94170DFC
:1062D0008FED9EE29093601780935F176FE577E1F3
:1062E0008AE69BE00E94170D15D0882331F063E009
:1062F00070E080E090E00C946E0D08958FE192E3E1
:1063000090936C1780936B176BE677E18AE69BE0BE
:106310000C94170D80E008950E94BF0CE091760B5D
:10632000F091770B309771F084819581892B31F44E
:10633000DF0116978C918C7F82608C930184F285AB
:10634000E02DF0CFE0917C0BF0917D0B309799F030
:10635000DF0116978C918C7F82608C93A381B4812E
:10636000109729F016978C918C7F81608C9306840E
:10637000F785E02DEBCF0895CF93DF93A6E7BBE041
:10638000ED91FC911197309781F084819581892B53
:1063900049F4EF0126978A819B819F01281B390BC5
:1063A0002D933C93DF011996EBCFECE7FBE04081A6
:1063B00051814115510509F43FC0DA01CD91DC91BD
:1063C0008C819D81892B89F4209751F0CE0106970D
:1063D000DC0112968D919C911397C81BD90B02C0BA
:1063E000C0E0D0E0DA01CD93DC93C081D1818B8114
:1063F0009C81009759F09C0126503109D9011296D1
:106400002D913C911397821B930B02C080E090E08A
:106410009C838B8380819181009739F0EC012697D2
:106420002A813B81821B930B02C080E090E0918324
:106430008083FA013E96BBCFDF91CF9108958F9272
:106440009F92BF92CF92DF92EF92FF920F931F9392
:10645000CF93DF931F921F92CDB7DEB77C01FC0173
:106460008580968084818231C1F118F48031E9F011
:10647000AFC0843109F47CC0863109F0A9C060E066
:1064800070E080912A0B90912B0B0E94590D0F9078
:106490000F90DF91CF911F910F91FF90EF90DF90C0
:1064A000CF90BF909F908F90A4C980E090E077D963
:1064B000882371F082E0809313161092850B10925E
:1064C000840B6AD9F40110828183928331E164C024
:1064D00082E0F401808331E165C0F401018110E0C4
:1064E000102F00278081080F111DF701B780BA9483
:1064F000BA9452D99C01CB2CD12CC801B9010E946D
:10650000903CFB01C8018C0D9D1DB9010E94903C7F
:106510004091840B5091850BE617F70781F0041723
:10652000150729F4F401108233E121E00AC081E06B
:10653000F40180834183528333E123E002C030E0E1
:1065400020E00417150781F5B4016E5F7F4F8B2D96
:1065500029833A8355D98091840B9091850B8C0DBA
:106560009D1D9093850B8093840B29813A811CC0DB
:106570008091840B9091850BF401218130E0322FC2
:1065800022274081240F311D2817390739F021E0D7
:1065900020838183928335E123E008C0F4011082D7
:1065A0009CD935E121E002C0332391F0A401632F8F
:1065B000C7010F900F90DF91CF911F910F91FF9026
:1065C000EF90DF90CF90BF909F908F900C94661CBF
:1065D0000F900F90DF91CF911F910F91FF90EF904F
:1065E000DF90CF90BF909F908F90089508950F9364
:1065F0001F93CF93DF938C01C1E0D0E021E040E016
:1066000050E06C2FC8010E94E92A882311F02196DE
:10661000F5CFCE01DF91CF911F910F9108950F9388
:106620001F93CF93DF9300D0CDB7DEB78C0167EA1D
:1066300074E085ED9CE0A5D59E012D5F3F4F40E0C5
:1066400060E0C8010E94BD266B8170E04AE050E026
:1066500085ED9CE05ED68B8180938B0B9E012F5F36
:106660003F4F40E061E0C8010E94702689819A8115
:10667000AA2797FDA095BA2F8093870B9093880B3C
:10668000A093890BB0938A0B65EB74E085ED9CE0D9
:1066900078D54091870B5091880B6091890B709150
:1066A0008A0B2AE030E085ED9CE05BD60F900F90DE
:1066B0000F90DF91CF911F910F910895CF93DF93AA
:1066C000EC016BEB74E085ED9CE075D585E06ED256
:1066D00021E0892B09F420E08091860B2817A9F08E
:1066E0002093860B222319F060EC74E002C069EC61
:1066F00074E085ED9CE05FD52091860B40E061E081
:10670000CE01DF91CF910C94DC26DF91CF910895DB
:106710000F931F93CF93DF938C0188E36FD262E3D3
:1067200070E00E94A43C82E3869FE001879FD00D29
:1067300011244AE050E0BE0185ED9CE0EAD59E01BF
:1067400040E062E0C801DF91CF911F910F910C945E
:106750009126EAE0F2E020E030E0408151814115ED
:106760005105C1F073964817590789F443E1429FD8
:10677000C001439F900D1124865F9D4FFC017583DE
:10678000648321E020870E94DA2781E008952F5F4B
:106790003F4FE3CF80E00895CF93DF931F921F9286
:1067A000CDB7DEB726E040E052EC61E070E085ED69
:1067B0009CE09ED70E94B70966ED74E085ED9CE0F1
:1067C000FAD46EE573E38AE090E0C3DF68E873E330
:1067D0008FE090E0BEDF8AE090E009DF9093910BBC
:1067E0008093900B8FE090E002DF90938D0B80936D
:1067F0008C0BBE016F5F7F4F8091900B0E946E28C3
:10680000811108C028EE33E040E060E089819A8180
:106810000E9424276FE073E38CEC90E09ADF8CEC0D
:1068200090E0E5DE90938F0B80938E0B60E085E027
:106830004FD161E085E085D161ED74E085ED9CE0AC
:10684000BAD461E086E044D10E94CD096BED74E0DA
:1068500085ED9CE0B0D40F900F90DF91CF9108951B
:1068600085ED9CE039D6892B31F185ED9CE04DD644
:1068700020910802309109022130310529F4843237
:10688000D1F482E090E013C022303105A1F48C36BF
:1068900041F461EE74E085ED9CE08DD40E94DE1140
:1068A00004C0823711F40E94231181E090E090939C
:1068B00009028093080208950E94D10980918B0BF0
:1068C000882381F061E086E03CD18091870B909134
:1068D000880B57D260E086E034D18091870B90918D
:1068E000880B4FD2BDCFDC01ED91FC910190F0817E
:1068F000E02D1994F2C120C2BC0185ED9CE041C499
:10690000811106C0772767FD709585ED9CE017C063
:10691000813031F4772767FD709582E79DE00FC0E5
:10692000823031F4772767FD709588E39CE007C0DB
:10693000833031F4772767FD70958BE99BE0D3CFE7
:106940000895CF92DF92EF92FF92CF93C82F6A0102
:106950007B0167EE74E085ED9CE013D44AE050E0E3
:106960006C2F85ED9CE0F7D462EF74E085ED9CE040
:1069700008D42AE030E0B701A60185ED9CE0F1D40F
:10698000C11106C026E0B701A60185ED9CE017C045
:10699000C13031F426E0B701A60182E79DE00FC0C7
:1069A000C23031F426E0B701A60188E39CE007C0BD
