:100000000C9485090C94B6090C94B6090C94B609A5
:100010000C94B6090C94B6090C94B6090C94B60964
:100020000C94B6090C94B6090C94B6090C94B60954
:100030000C94B6090C94B6090C94B6090C94B60944
:100040000C94B6090C94B6090C94B6090C94B60934
:100050000C94B6090C94B6090C94B6090C94E83CBF
:100060000C94B6090C94933E0C94C93E0C94B609BA
:100070000C94B6090C94B6090C94B6090C94B60904
:100080000C94B6090C94B6090C94B6090C94B609F4
:100090000C94E83D0C941E3E0C94B6090C94B609E1
:1000A0000C94B6090C94B6090C94B6090C94B609D4
:1000B0000C94B6090C94B6090C94B6090C94B609C4
:1000C0000C94B6090C94B6090C94B6090C945541DD
:1000D0000C948B410C94B6090C94AA400C94E0400B
:1000E0000C94B609173C1A3C093C0D3C133C513C9E
:1000F0001E3C223C283C2C3C303C363C3A3C3E3CAE
:10010000513C443C483C4C3C850DAB0DDC0D020E93
:10011000280E4E0E740E9A0EC00E1034A5366B3497
:10012000A536BD34A5362B35A536CB35A536F633E9
:10013000A536FF33A536A536A536A536A536E13555
:10014000A5361D3600000A0B02090C0D0E08070328
:10015000040100000000000000000000000000009A
:10016000000000000000000000000000000000008F
:10017000121110000000000000000000000000004C
:100180000000000000000000000001021020200814
:1001900008102040102040800201020108040201E2
:1001A0000102040810204080804020100804020151
:1001B00080040201804020100804020108040201AA
:1001C0000102040810204080010204081020408031
:1001D00005050505070508080808020202020A0AC3
:1001E00008080404040401010101010101010303E1
:1001F000030303030303040707070C0C0C0C0C0C8C
:100200000C0C0202020206060606060606060B0B88
:100210000B0B0B0B0B0B000020002300260029000A
:100220002C002F003200000100000301060109012B
:1002300000002200250028002B002E003100340091
:1002400002010000050108010B010000210024004B
:1002500027002A002D0030003300010100000401B6
:1002600007010A010000000000000000000000007B
:10027000000000000000000000000000000000007E
:10028000000000000000000000000000000000006E
:10029000000000000000000000000000000000005E
:1002A000000000000000000000000000000000004E
:1002B000000000000000000000000000000000003E
:1002C000000000000000000000000000000000002E
:1002D000000000000000000000000000000000001E
:1002E000000000000000000000000000000000000E
:1002F00000000000000000000000000000000000FE
:10030000D70001070F001E002F0033009C00A20041
:10031000BF0000010001776B656D707479617070CA
:10032000000101040000000119FF000000010100AC
:100330000000040201000203080018005D00000034
:100340000000010200000500219D016C9B000100DE
:100350000100010502003A00590104A00121469D57
:1003600001AF1500019C0178019E02127B9C017D6A
:10037000009C0116009C0111019E020B9E00029E32
:10038000020C9E020D3122840008229C020000947F
:10039000FFF300000000000001020001009B0003C9
:1003A000000000000006020007000F0006004F4298
:1003B0004A4543540C004D79206E6F646520696492
:1003C0003A20050205000A006261736500776B70D0
:1003D000665F7669727475616C000200020000024B
:1003E0000003000002000400000000000000000004
:1003F00000000000000000000000000000000000FD
:1004000000000000000000000000000000000000EC
:1004100000000000000000000000000000000000DC
:1004200000000000000000000000000000000000CC
:10130000FB3A503EFB3E1241BD4111241FBECFEFC0
:10131000D1E2DEBFCDBF00E00CBF1BE0A0E0B2E039
:10132000E0EDFFE800E00BBF02C007900D92AC3289
:10133000B107D9F728E1ACE2BBE001C01D92AB30A8
:10134000B207E1F713E1CAE0D3E100E006C022975B
:101350000109FE010BBF0E941F44C030D10780E08D
:101360000807A9F70E9401420C94E6470C9400007C
:1013700080E093E090939D1680939C1660E072EC61
:1013800081E090E02ED040E058E060E070E089E934
:101390009EE041D081E080939B16089580E093E029
:1013A0000C94E529CF93DF931F921F92CDB7DEB740
:1013B0001A82198260E070E08091AE0B9091AF0BC1
:1013C00079D380919B16813031F40E941123CE0194
:1013D00001960E94FC2C0F900F90DF91CF91089501
:1013E000089508959B01AC0160E870E08CE29BE0F9
:1013F0000E94D4448CE29BE00C943A3BCF93DF9361
:10140000CDB7DEB7FE01369681919191BF01EADF3B
:10141000DF91CF910895CF93DF9300D000D0CDB767
:10142000DEB74B835C836D837E8389839A8334D05C
:101430004B815C81BA0189819A8140D026960FB692
:10144000F894DEBF0FBECDBFDF91CF910C947D30FD
:1014500020E0AC0160E070E06BBFFA01479156916B
:101460004115510529F0840F951F03962F5FF1CF89
:10147000822F0895262F222369F0AC0160E070E0EE
:101480006BBFFA01479156914D5F5F4F840F951FD7
:101490002150F1CF03960895A3CFCF93DF930E94FD
:1014A000383BDC01CB019C01AD0160E070E080E0E5
:1014B00090E0DF91CF9108950C94393B9093C70B46
:1014C0008093C60B7093C50B6093C40B1092BD0B39
:1014D0001092BC0B1092BF0B1092BE0B1092C10B5E
:1014E0001092C00B1092C30B1092C20B9093BB0BC7
:1014F0008093BA0B860F971F9093B90B8093B80B0C
:101500000895FC0136972081269526953181432F39
:101510004295440F440F407C842F822B932F969545
:1015200096958E0F9F1F2091BA0B3091BB0B2817F9
:10153000390729F4F093BB0BE093BA0B089514829A
:1015400008958091C40B9091C50B08958091B80BBC
:101550009091B90B2091BA0B3091BB0B821B930B6E
:101560000895ECEBFBE020E030E041915191452BF8
:1015700041F4F901EE0FFF1FE454F44F918380838F
:1015800008952F5F3F4F2430310579F76AE070E00E
:1015900080E090E0A4C2ECEBFBE080E090E02191E1
:1015A0003191232B09F001962BE0E43CF207B9F7C7
:1015B0000895ECEBFBE0208131812817390711F405
:1015C0001182108232962BE0E43CF207A1F70895D5
:1015D0000F931F93CF93DF93E091C60BF091C70B4E
:1015E000A091BA0BB091BB0BAC01460F571F11E095
:1015F000EA17FB0700F5248130E08217930720F4F7
:101600002417350708F414834217530718F424816C
:10161000261B2483C081C695C695D1810D2F0295C6
:10162000000F000F007C202F2C2B3D2F3695369578
:10163000E20FF31FDDCFDF91CF911F910F9108953E
:101640008091C60B9091C70B0895FC01408146958F
:1016500046955181652F6295660F660F607C262F37
:10166000242B352F36953695280F391F8091BA0BCC
:101670009091BB0B2817390718F080E090E008958F
:10168000C9010895CF92DF92EF92FF920F931F93BB
:10169000CF93DF93E091C60BF091C70B2091BA0B6B
:1016A0003091BB0BC12CD12C7601E217F30738F532
:1016B000848150814181811111C0742F7295770FFF
:1016C000770F707C652F66956695872F862B942FF4
:1016D00096959695C80ED91EE11CF11CD382C28244
:1016E00056955695642F6295660F660F607C862F1F
:1016F000852B942F96959695E80FF91FD6CFECEB96
:10170000FBE0A191B191109781F08D919C9111977F
:10171000009739F0EC0126972A813B81821B930BBD
:1017200002C080E090E08D939C932BE0E43CF207B4
:1017300041F760E070E08091B20B9091B30BBAD1A9
:10174000C091C60BD091C70B8091BA0B9091BB0B87
:10175000C817D907F0F48881869586959981292F35
:101760002295220F220F207C022F082B192F16956D
:1017700016958C81882351F08A819B81A801BE0136
:101780009E01281B390BC9010E948044C00FD11F44
:10179000DBCF8C199D099093BB0B8093BA0BDF9123
:1017A000CF911F910F91FF90EF90DF90CF90089510
:1017B0000F931F93CF93DF93E091C60BF091C70B6C
:1017C0002091BA0B3091BB0BE217F307D0F4848160
:1017D000863010F482E001C080E040814C7F482BCD
:1017E0004083469546955181652F6295660F660F39
:1017F000607C862F842B952F96959695E80FF91F80
:10180000E3CF60E070E08091B60B9091B70B52D1BE
:10181000ECEBFBE0A191B191109769F00D90BC91B8
:10182000A02D109741F016978C91982F937019F472
:101830008C7F81608C938BE0E43CF80759F7C09172
:10184000C60BD091C70B00E010E02091BA0B30918D
:10185000BB0BC217D307E8F488818370813041F451
:10186000BE018091B40B9091B50B24D10F5F1F4F37
:101870002881269526953981432F4295440F440FA0
:10188000407C842F822B932F96959695C80FD91F55
:10189000DCCF012BA1F6E091C60BF091C70BE2174C
:1018A000F307B0F44081842F837009F41482542F1D
:1018B000569556954181642F6295660F660F607C40
:1018C000862F852B942F96959695E80FF91FE7CFD5
:1018D000D9DE60E070E08091B00B9091B10BDF91A8
:1018E000CF911F910F91E6C00F931F93CF93DF937A
:1018F0001F92CDB7DEB780FD01968C010A5F1F4FA6
:101900008091B80B9091B90B2091BA0B3091BB0B21
:10191000821B930B8017910718F4698349DF698153
:10192000E091BA0BF091BB0B8091B80B9091B90B81
:101930008E1B9F0B80179107D8F0902F990F990F4E
:1019400080818370892B8083912F990F990F802F2D
:101950008295869586958370892B818364830E0F8B
:101960001F1F1093BB0B0093BA0BCF01069602C04A
:1019700080E090E00F90DF91CF911F910F9108953B
:10198000BF92CF92DF92EF92FF920F931F93CF936C
:10199000DF9300D01F921F92CDB7DEB70091C60B28
:1019A0001091C70B3AE4E32E36E0F32E45E0B42E57
:1019B000CE0101966C018091BA0B9091BB0B081778
:1019C000190738F5F8018481893078F01F928F93D8
:1019D000FF92EF921F92BF92DF92CF920E949844A3
:1019E0000FB6F894DEBF0FBECDBFF801208126955B
:1019F00026953181432F4295440F440F407C842F1C
:101A0000822B932F96959695009719F0080F191F22
:101A1000D2CF0F900F900F900F900F90DF91CF913A
:101A20001F910F91FF90EF90DF90CF90BF9008959E
:101A3000CF93DF93DC019C9111968C911197E92F44
:101A4000F82F309779F1E617F70741F510929A16BB
:101A500010929916C0E5D6E02091991630919A1609
:101A60008091970E9091980E281739077CF4DF9398
:101A7000CF93C4DC8091991690919A160196909319
:101A80009A16809399160F900F90E6CF84E596E012
:101A90009F938F93B3DC0F900F9009C00280F38166
:101AA000E02DCFCFFB01928383836D937C93DF91F5
:101AB000CF9108950F931F93CF93DF93EC018B0188
:101AC000209741F0E881F981C80119950A80DB81EE
:101AD000C02DF6CFDF91CF911F910F910895CF9335
:101AE000DF9300D01F92CDB7DEB7FB013397E9300B
:101AF000F10508F06BC1EC57FF4F10929A16109247
:101B0000991600E516E00C940F44409199165091F7
:101B10009A162091970E3091980E42175307C4F4ED
:101B20001F930F9369837A838B839C8367DC209157
:101B3000991630919A162F5F3F4F30939A16209343
:101B400099160F900F909C818B817A816981DDCFEE
:101B500027E736E025C04091991650919A162091BA
:101B6000970E3091980E42175307C4F41F930F93AA
:101B700069837A838B839C8341DC20919916309111
:101B80009A162F5F3F4F30939A16209399160F9015
:101B90000F909C818B817A816981DDCF2EE836E0C0
:101BA0003F932F9369837A838B839C8327DC0F90E9
:101BB0000F9069817A8148C14091991650919A1687
:101BC0002091970E3091980E42175307C4F41F933B
:101BD0000F9369837A838B839C8310DC2091991601
:101BE00030919A162F5F3F4F30939A162093991693
:101BF0000F900F909C818B817A816981DDCF2EEAD5
:101C000036E0CECF4091991650919A162091970EBA
:101C10003091980E42175307C4F41F930F936983B2
:101C20007A838B839C83EADB2091991630919A16F4
:101C30002F5F3F4F30939A16209399160F900F9075
:101C40009C818B817A816981DDCF2DEC36E0A8CF34
:101C50004091991650919A162091970E3091980EB6
:101C600042175307C4F41F930F9369837A838B83BE
:101C70009C83C4DB2091991630919A162F5F3F4FB9
:101C800030939A16209399160F900F909C818B8118
:101C90007A816981DDCF29EE36E082CF40919916B5
:101CA00050919A162091970E3091980E4217530733
:101CB000C4F41F930F9369837A838B839C839EDB89
:101CC0002091991630919A162F5F3F4F30939A16B4
:101CD000209399160F900F909C818B817A81698156
:101CE000DDCF23E037E05CCF4091991650919A16F2
:101CF0002091970E3091980E42175307C4F41F930A
:101D00000F9369837A838B839C8378DB2091991668
:101D100030919A162F5F3F4F30939A162093991661
:101D20000F900F909C818B817A816981DDCF2FE1AB
:101D300037E036CF4091991650919A162091970E20
:101D40003091980E42175307C4F41F930F93698381
:101D50007A838B839C8352DB2091991630919A165B
:101D60002F5F3F4F30939A16209399160F900F9044
:101D70009C818B817A816981DDCF29E337E010CFA7
:101D80004091991650919A162091970E3091980E85
:101D900042175307C4F41F930F9369837A838B838D
:101DA0009C832CDB2091991630919A162F5F3F4F20
:101DB00030939A16209399160F900F909C818B81E7
:101DC0007A816981DDCF28E537E0EACE10929A1654
:101DD0001092991600E516E04091991650919A16C6
:101DE0002091970E3091980E42175307C4F41F9319
:101DF0000F9369837A838B839C8300DB20919916F0
:101E000030919A162F5F3F4F30939A162093991670
:101E10000F900F909C818B817A816981DDCF9F9398
:101E20008F937F936F932FE737E03F932F936983CF
:101E30007A838B839C83E2DA0F900F900F900F9040
:101E40000F900F907A81698120919B16233050F476
:101E500060939B1660E070E08091AE0B9091AF0BA9
:101E600029DEF8CFCB010E94E6478091DF0B089571
:101E70004F925F926F927F928F929F92AF92BF929A
:101E8000CF92DF92EF92FF920F931F93CF93DF9346
:101E9000CDB7DEB72A970FB6F894DEBF0FBECDBF21
:101EA00060E070E082E00E94BE3B8823C9F3992481
:101EB000939485E0882E9AEA792E5E0188E0A80E38
:101EC000B11C20E5E22E26E0F22E3EE9C32E37E0DB
:101ED000D32E47E0642E54E0552E63E0462E60E09A
:101EE00070E082E00E94BE3B882309F4F2C082E0E9
:101EF0000E94A93B90912F02911127C0863039F49E
:101F000090922F02909201029092DC0BE8CF8531E3
:101F100011F0883191F480910102803819F0880F16
:101F2000809301026091010270E080E090E0C4DAE9
:101F300090922F021092DC0BD2CF813081F682E09A
:101F400080932F021092D416CACF913069F4813059
:101F5000B1F3883119F410922F02C1CF863009F005
:101F6000BECF9093DC0BBBCF923031F48350809383
:101F7000D41640922F02B3CF933029F48093CE161B
:101F800050922F02ACCF943041F48093D51686E066
:101F900080932F0210929E16A2CF9630A1F4E0916A
:101FA0009E1691E09E0F90939E16F0E0E156F94E3A
:101FB00080838091D41681508093D41681118FCF65
:101FC00060922F028CCF973009F089CF66E082E0D3
:101FD0000E943E3B90922F028091CE16811117C035
:101FE0008091D516833141F48091A01690E09093B2
:101FF000DB0B8093DA0B0BC0843049F440919E16C2
:10200000445063EA76E18091A0160E94E31B809120
:10201000D516803271F58091DE0B811107C0809159
:10202000A3168093DF0B9092DE0B23C010929A16BA
:10203000109299162091991630919A168091970EC8
:102040009091980E281739077CF4FF92EF92D6D919
:102050008091991690919A16019690939A16809372
:1020600099160F900F90E6CFDF92CF92C7D90F90BD
:102070000F909091D516903509F031CF8091A01630
:10208000813019F48093D90B2ACF863009F027CFFD
:1020900099828A821B829C831D828091D3168E83B3
:1020A000982F97259F838F5F8093D3168E010F5FA4
:1020B0001F4FF80161918F0182E00E943E3B0A159B
:1020C0001B05B9F71092D50B1092D90B1092D80BB3
:1020D00006CF2A960FB6F894DEBF0FBECDBFDF91B4
:1020E000CF911F910F91FF90EF90DF90CF90BF9015
:1020F000AF909F908F907F906F905F904F900895DA
:10210000EF92FF920F931F93CF93DF93CDB7DEB77C
:102110002A970FB6F894DEBF0FBECDBF81E089834A
:1021200084E08A831B8282E48C838091D3168D8322
:1021300099EB98279E838F5F8093D3168E010F5F54
:102140001F4F7E0188E0E80EF11CF80161918F01BC
:1021500082E00E943E3B0E151F05B9F71092D80B86
:102160002A960FB6F894DEBF0FBECDBFDF91CF9198
:102170001F910F91FF90EF900895BF92CF92DF9241
:10218000EF92FF920F931F93CF93DF93CDB7DEB7FC
:102190002A970FB6F894DEBF0FBECDBFD82EC62E3D
:1021A000B42E81E0898388E08A831B8283E08C835C
:1021B000DD826E834F8318868091D316898794EFD2
:1021C0009827942796279D259A878F5F8093D3160B
:1021D0008E010F5F1F4F7E018BE0E80EF11CF801AE
:1021E00061918F0182E00E943E3B0E151F05B9F7F9
:1021F0001092D80B10929A161092991600E516E0DC
:10220000E0919916F0919A162091970E3091980EC0
:10221000E217F30784F41F930F93F0D820919916D7
:1022200030919A162F5F3F4F30939A16209399164C
:102230000F900F90E5CF1F92BF921F92CF921F92E7
:10224000DF928CEC97E09F938F93D8D80FB6F894D9
:10225000DEBF0FBECDBF2A960FB6F894DEBF0FBE0D
:10226000CDBFDF91CF911F910F91FF90EF90DF9045
:10227000CF90BF9008952F923F924F925F926F92AE
:102280007F928F929F92AF92BF92CF92DF92EF9206
:10229000FF920F931F93CF93DF93CDB7DEB72A97AB
:1022A0000FB6F894DEBF0FBECDBF8091D50B88234B
:1022B00029F1F3D8C090CF16D090D016E090D11667
:1022C000F090D2161601270156016201E12CF12C83
:1022D00000E010E00E944A44203D3740410551058E
:1022E000610571058105910509F008F47CC0109223
:1022F0009A161092991600E516E02DC0CED82093BC
:10230000CF163093D0164093D1165093D21681E059
:102310008093D50B898395E09A831B8290E59C83FB
:102320008D838091D3168E839BEA98279F838F5F3E
:102330008093D3168E010F5F1F4F4E01F8E08F0E72
:10234000911CF80161918F0182E00E943E3B0815CB
:102350001905B9F7AECF2091991630919A16809150
:10236000970E9091980E281739077CF41F930F93BE
:1023700045D88091991690919A16019690939A1645
:10238000809399160F900F90E6CF8DEE97E09F9374
:102390008F9334D881E0898385E08A831B8280E52E
:1023A0008C831D828091D3168E839AEA98279F830F
:1023B0008F5F8093D3168E010F5F1F4F4E01F8E0A1
:1023C0008F0E911C0F900F90F80161918F0182E0A8
:1023D0000E943E3B08151905B9F71092D50B1092D3
:1023E000D90B1092D80B2A960FB6F894DEBF0FBE09
:1023F000CDBFDF91CF911F910F91FF90EF90DF90B4
:10240000CF90BF90AF909F908F907F906F905F9094
:102410004F903F902F900895CF93DF938091D80BEA
:10242000882321F08091D50B882391F1A0D380914E
:10243000D60B882369F18091C90B9091CA0BA091AA
:10244000CB0BB091CC0B4091CD0B5091CE0B60914A
:10245000CF0B7091D00B841B950BA60BB70B883854
:102460009341A105B10578F48091D50B882349F0FB
:102470001092CF161092D0161092D1161092D2163A
:1024800005C081E001C082E08093D80B1092D60B8A
:102490008091D80B813011F4EEDE2DC0823059F5D9
:1024A00010929A1610929916C0E5D6E020919916CE
:1024B00030919A168091970E9091980E28173907AF
:1024C00084F4DF93CF930E94FE0980919916909136
:1024D0009A16019690939A16809399160F900F90E2
:1024E000E5CF87EF97E09F938F930E94FE091092AC
:1024F000D80B0F900F908091D50B8111BCDE60E05E
:1025000070E082E00E94BE3B882329F081E090E0E9
:10251000DF91CF91ADCCDF91CF9108959F92AF9293
:10252000BF92CF92DF92EF92FF920F931F93CF93C0
:10253000DF937C016B01C6E0D0E0AA24A394A60E31
:102540009A2C909460E070E082E00E94BE3B882369
:1025500019F080E090E08CDC80912F02813031F026
:1025600064E670E080E090E00E945C0A61E082E056
:102570000E943E3B6A2D82E00E943E3BB92C8701BF
:10258000C8018E199F098C159D0544F4F8016191CD
:102590008F01B62682E00E943E3BF2CF6B2D82E097
:1025A0000E943E3B10922F021092DC0B68EE73E00B
:1025B00082E00E94BE3B811108C080912F028111F0
:1025C0000CC081E080932F0208C026DF8091DC0BD5
:1025D000813099F780E090E006C02197209709F0BC
:1025E000B1CF8FEF9FEFDF91CF911F910F91FF90B0
:1025F000EF90DF90CF90BF90AF909F9008959F9203
:10260000AF92BF92CF92DF92EF92FF920F931F9300
:10261000CF93DF9300D01F921F92CDB7DEB740E07B
:1026200052EC61E070E082E00E945F3B80D2109249
:102630009A161092991600E516E02091991630919D
:102640009A168091970E9091980E2817390784F466
:102650001F930F930E94FE098091991690919A16EC
:10266000019690939A16809399160F900F90E5CF4C
:1026700083E198E09F938F930E94FE0965E182E0D9
:102680000E943E3B10929A16109299160F900F904E
:1026900000E516E02091991630919A168091970ED8
:1026A0009091980E2817390784F41F930F930E9476
:1026B000FE098091991690919A16019690939A1618
:1026C000809399160F900F90E5CF8DE298E09F933D
:1026D0008F930E94FE090F900F9000E516E080E2B4
:1026E000E82E88E0F82E66E970E082E00E94BE3BAA
:1026F000882381F182E00E94A93B10929A161092E1
:1027000099164091991650919A162091970E3091F2
:10271000980E421753079CF41F930F938D830E94CA
:10272000FE092091991630919A162F5F3F4F3093F2
:102730009A16209399160F900F908D81E2CF1F92D9
:102740008F93FF92EF920E94FE090F900F900F90CF
:102750000F90C9CF10929A161092991600E516E0C4
:102760002091991630919A168091970E9091980E1B
:102770002817390784F41F930F930E94FE09809154
:10278000991690919A16019690939A16809399169D
:102790000F900F90E5CF87E298E09F938F930E9470
:1027A000FE098AE28093D31681E080932F021B8278
:1027B00080E28C8331DE10929A16109299160F9057
:1027C0000F9000E516E02091991630919A168091AD
:1027D000970E9091980E2817390784F41F930F9342
:1027E0000E94FE098091991690919A1601969093F5
:1027F0009A16809399160F900F90E5CF81E498E098
:102800009F938F930E94FE090F900F90B12CEAE0E6
:102810009E2E00E516E0FBE5EF2EF8E0FF2EA8E087
:10282000AA2EB1E6CB2EB8E0DB2E8091DE0B811113
:102830004CC08091DE0B811141C0992009F461C028
:1028400010929A16109299162091991630919A1614
:102850008091970E9091980E2817390784F41F9352
:102860000F930E94FE098091991690919A160196F5
:1028700090939A16809399160F900F90E5CFFF9240
:10288000EF920E94FE0962E070E0CE01039646DE00
:1028900066E970E082E00E94BE3B0F900F908823B3
:1028A00049F061E070E082E00E94BE3B882311F0B5
:1028B000B3DDF7CF9A94BDCF7AE0972E8091DF0BEE
:1028C0008B111092DE0BB82EB0CF6091000270E039
:1028D00080E090E00E945C0A40E06FEF80E04DDC19
:1028E0000F900F900F900F900F90DF91CF911F914D
:1028F0000F91FF90EF90DF90CF90BF90AF909F909F
:1029000008951982AA8210929A161092991620910F
:10291000991630919A168091970E9091980E2817DB
:10292000390784F41F930F930E94FE098091991632
:1029300090919A16019690939A16809399160F90FB
:102940000F90E5CFDF92CF920E94FE0962E070E027
:10295000CE010196E3DD0F900F9066E970E082E012
:102960000E94BE3B882309F4A7CF82E00E94A93BC6
:10297000F4CF0F931F93CF93DF93CDB7DEB7E297DA
:102980000FB6F894DEBF0FBECDBFEFEFFFEFF093B1
:10299000DB0BE093DA0B198293E19A838B8381E05E
:1029A000840F8C8388E88D83FE013696DB011E2F11
:1029B0003F2F50E0CD01861B970B841795071CF421
:1029C0008D918193F7CFE12FF32FE40FF51F208333
:1029D0008091D31691E0980F9093D316FE01E40FE7
:1029E000F51F8783BA01695F7F4FCE01019696DD9F
:1029F000892B09F509EE13E02091DA0B3091DB0BFE
:102A00002F3F8FEF380769F40150110901151105A7
:102A100091F002DD61E070E080E090E00E945C0AED
:102A2000EBCF81E090E0232B11F480E090E09195D2
:102A30008195910902C08FEF9FEFE2960FB6F8944F
:102A4000DEBF0FBECDBFDF91CF911F910F910895D3
:102A500025E08FCF0F931F93CF93DF93CDB7DEB7D2
:102A6000E2970FB6F894DEBF0FBECDBFEFEFFFEFDA
:102A7000F093DB0BE093DA0B198293E19A838B835B
:102A80004C83FE013596DB011E2F3F2F50E0CD0118
:102A9000861B970B841795071CF48D918193F7CFB4
:102AA000E12FF32FE40FF51F20838091D31691E0DF
:102AB000980F9093D316FE01E40FF51F8683BA0199
:102AC0006A5F7F4FCE01019629DD892B09F509EE5A
:102AD00013E02091DA0B3091DB0B2F3F8FEF38079B
:102AE00069F4015011090115110591F095DC61E0BF
:102AF00070E080E090E00E945C0AEBCF81E090E023
:102B0000232B11F480E090E091958195910902C00A
:102B10008FEF9FEFE2960FB6F894DEBF0FBECDBFEA
:102B2000DF91CF911F910F91089525E093CFCF931F
:102B3000DF936C98749A9D98A59AC8E0D1E08FE0D5
:102B40008883E7E0F1E080818068808388818F77E7
:102B5000888364E670E080E090E00E945C0A8881EF
:102B6000806888830998119ADF91CF9108952F92F8
:102B70003F924F925F926F927F928F929F92AF920D
:102B8000BF92CF92DF92EF92FF920F931F93CF935A
:102B9000DF934091E80B5091E90B6091EA0B709143
:102BA000EB0B8091E40B9091E50BA091E60BB091BB
:102BB000E70B452B462B472B09F06BC00097A1056F
:102BC000B10509F066C095991CC00E944D0A20937A
:102BD000E80B3093E90B4093EA0B5093EB0B0E9408
:102BE0004D0A2093CD0B3093CE0B4093CF0B5093D7
:102BF000D00B81E08093D70B809108018E7F80936A
:102C000008016499FEC00E944D0A2093E40B3093A2
:102C1000E50B4093E60B5093E70B0E944D0A20937F
:102C2000CD0B3093CE0B4093CF0B5093D00B81E064
:102C30008093D70B809108018E7F809308011092BA
:102C40009A1610929916C0E5D6E020919916309107
:102C50009A168091970E9091980E2817390784F450
:102C6000DF93CF930E94FE098091991690919A1656
:102C7000019690939A16809399160F900F90E5CF36
:102C80008CE698E09F938F930E94FE090F900F901F
:102C9000B8C0892B8A2B8B2B09F470C0649BB1C000
:102CA0000E944D0AC090E40BD090E50BE090E60B3B
:102CB000F090E70BE4E6CE0ED11CE11CF11C1601EE
:102CC000270156016201E12CF12C00E010E00E9486
:102CD000534409F008F447C0C1E0C093D60B0E94EA
:102CE0004D0A2093C90B3093CA0B4093CB0B5093E2
:102CF000CC0B1092D70BC093D60B2093E00B3093E4
:102D0000E10B4093E20B5093E30B809108018E7F1F
:102D10008093080110929A1610929916C0E5D6E099
:102D20002091991630919A168091970E9091980E55
:102D30002817390784F4DF93CF930E94FE0980910E
:102D4000991690919A16019690939A1680939916D7
:102D50000F900F90E5CF83E798E09F938F930E94A9
:102D6000FE090F900F901092E40B1092E50B109259
:102D7000E60B1092E70B1092D70B43C0959B41C016
:102D80000E944D0AC090E80BD090E90BE090EA0B4E
:102D9000F090EB0BE4E6CE0ED11CE11CF11C160109
:102DA000270156016201E12CF12C00E010E00E94A5
:102DB000534439F130F1C1E0C093D60B0E944D0A63
:102DC0002093C90B3093CA0B4093CB0B5093CC0B81
:102DD0001092E80B1092E90B1092EA0B1092EB0B99
:102DE0001092D70BC093D60B2093E00B3093E10BDE
:102DF0004093E20B5093E30B809108018E7F809308
:102E000008018091E00B9091E10BA091E20BB09151
:102E1000E30B892B8A2B8B2B19F10E944D0AC09052
:102E2000E00BD090E10BE090E20BF090E30B160189
:102E3000270156016201E12CF12C00E010E00E9414
:102E4000534471F068F0809108018160809308011B
:102E50001092E00B1092E10B1092E20B1092E30B38
:102E6000DF91CF911F910F91FF90EF90DF90CF9066
:102E7000BF90AF909F908F907F906F905F904F909A
:102E80003F902F90089578C7862F08954091D616C9
:102E90005091D7166091D8167091D9164427482BB7
:102EA000CB01BA0108953F924F925F926F927F9249
:102EB0008F929F92AF92BF92CF92DF92EF92FF924A
:102EC0000F931F93CF93DF93CDB7DEB7AC970FB6B9
:102ED000F894DEBF0FBECDBF2B013C01BA014C827E
:102EE0005B826A8279824091D6163091D716909192
:102EF000D8168091D91648873F839E838D8383E0BF
:102F000089871A86422F50E0CE010B962CA70E948B
:102F100077442CA53AE0332E320E10929A16109276
:102F2000991600E516E02091991630919A16809135
:102F3000970E9091980E2817390784F41F930F93DA
:102F40000E94FE098091991690919A16019690938D
:102F50009A16809399160F900F90E5CF89E798E025
:102F60009F938F930E94FE09CE0101966C010F90F2
:102F70000F907C0100E516E08AEEA82E87E0B82EBF
:102F800092E5892E96E0992E8E2D8C1910929A1624
:102F900010929916831508F04EC020919916309121
:102FA0009A168091970E9091980E2817390784F4FD
:102FB0001F930F930E94FE098091991690919A1683
:102FC000019690939A16809399160F900F90E5CFE3
:102FD000F70181917F011F928F93BF92AF920E9460
:102FE000FE0910929A16109299160F900F900F905A
:102FF0000F902091991630919A168091970E90918A
:10300000980E2817390784F41F930F930E94FE0926
:103010008091991690919A16019690939A168093A2
:1030200099160F900F90E5CF9F928F920E94FE0904
:103030000F900F90A9CF00E516E0209199163091DE
:103040009A168091970E9091980E2817390784F45C
:103050001F930F930E94FE098091991690919A16E2
:10306000019690939A16809399160F900F90E5CF42
:103070008FE898E09F938F930E94FE098091D61667
:103080009091D716A091D816B091D9168425952580
:10309000A625B72588270F900F90892B8A2B8B2B7D
:1030A00029F4411451046104710441F44090DA168A
:1030B0005090DB166090DC167090DD1610929A1618
:1030C0001092991600E516E02091991630919A1603
:1030D0008091970E9091980E2817390784F41F93CA
:1030E0000F930E94FE098091991690919A1601966D
:1030F00090939A16809399160F900F90E5CF7F9238
:103100006F925F924F9282E998E09F938F930E9413
:10311000FE09432DB601842D9BDC0F900F900F907C
:103120000F900F900F90AC960FB6F894DEBF0FBEC5
:10313000CDBFDF91CF911F910F91FF90EF90DF9066
:10314000CF90BF90AF909F908F907F906F905F9047
:103150004F903F900895862FBA01422FE6CC2F92D0
:103160003F924F925F926F927F928F929F92AF9217
:10317000BF92CF92DF92EF92FF920F931F93CF9364
:10318000DF93CDB7DEB7A2970FB6F894DEBF0FBEC0
:10319000CDBF762E672E582E492E8A01322E1092E0
:1031A0009A161092991650E5E52E56E0F52E2091CC
:1031B000991630919A168091970E9091980E281733
:1031C000390784F4FF92EF920E94FE0980919916CC
:1031D00090919A16019690939A16809399160F9053
:1031E0000F90E5CF8FEA98E09F938F930E94FE099E
:1031F000202E0F900F90780120E5C22E26E0D22ECF
:103200003AEEA32E37E0B32E42E5842E46E0942E0C
:103210008E2D821910929A1610929916831508F025
:103220004EC02091991630919A168091970E9091E8
:10323000980E2817390784F4DF92CF920E94FE0976
:103240008091991690919A16019690939A16809370
:1032500099160F900F90E5CFF70181917F011F9292
:103260008F93BF92AF920E94FE0910929A1610920D
:1032700099160F900F900F900F9020919916309102
:103280009A168091970E9091980E2817390784F41A
:10329000DF92CF920E94FE098091991690919A1622
:1032A000019690939A16809399160F900F90E5CF00
:1032B0009F928F920E94FE090F900F90A9CF90E5E8
:1032C000E92E96E0F92E2091991630919A16809168
:1032D000970E9091980E2817390784F4FF92EF9279
:1032E0000E94FE098091991690919A1601969093EA
:1032F0009A16809399160F900F90E5CF4F925F9298
:103300006F927F9288EC98E09F938F930E94FE09C2
:103310000F900F900F900F900F900F90F9E0F31512
:1033200020F110929A161092991600E516E020915D
:10333000991630919A168091970E9091980E2817B1
:10334000390784F41F930F930E94FE098091991608
:1033500090919A16019690939A16809399160F90D1
:103360000F90E5CF83ED98E00FC2F801912CC12CAE
:10337000D12C7601FE2CED2CDC2CCC248191C82A9A
:10338000939484E09812F6CF10929A1610929916A0
:10339000B0E5AB2EB6E0BB2E2091991630919A166F
:1033A0008091970E9091980E2817390784F4BF9258
:1033B000AF920E94FE098091991690919A160196FB
:1033C00090939A16809399160F900F90E5CFFF92E5
:1033D000EF92DF92CF9289EF98E09F938F930E94B4
:1033E000FE09F80134960F900F900F900F900F90F8
:1033F0000F90412C512C3201762C652C542C4424F6
:103400008191482A939488E09812F6CF10929A16E8
:103410001092991670E5A72E76E0B72E2091991696
:1034200030919A168091970E9091980E281739072F
:1034300084F4BF92AF920E94FE09809199169091F8
:103440009A16019690939A16809399160F900F9062
:10345000E5CF7F926F925F924F9288E199E09F93C0
:103460008F930E94FE09F801908410929A16109290
:1034700099160F900F900F900F900F900F9060E59E
:10348000A62E66E0B62E2091991630919A1680915C
:10349000970E9091980E2817390784F4BF92AF9237
:1034A0000E94FE098091991690919A160196909328
:1034B0009A16809399160F900F90E5CF1F929F92C6
:1034C00086E399E09F938F930E94FE09F80181841F
:1034D00010929A16109299160F900F900F900F90CD
:1034E00050E5A52E56E0B52E2091991630919A16EA
:1034F0008091970E9091980E2817390784F4BF9207
:10350000AF920E94FE098091991690919A160196A9
:1035100090939A16809399160F900F90E5CF1F9273
:103520008F9285E599E09F938F930E94FE090F90FB
:103530000F900F900F90F1E09F12B5C082E08812BB
:10354000B2C0411451046104710409F0ACC010927E
:103550009A161092991600E516E02091991630916E
:103560009A168091970E9091980E2817390784F437
:103570001F930F930E94FE098091991690919A16BD
:10358000019690939A16809399160F900F90E5CF1D
:1035900087E799E09F938F930E94FE090F900F9009
:1035A0008091D6169091D716A091D816B091D916C1
:1035B000C816D906EA06FB0609F443C0C701B601DE
:1035C000DFD310929A161092991600E516E020911A
:1035D000991630919A168091970E9091980E28170F
:1035E000390784F41F930F930E94FE098091991666
:1035F00090919A16019690939A16809399160F902F
:103600000F90E5CFFF92EF92DF92CF9280EA99E0A0
:103610009F938F930E94FE09C092D616D092D71620
:10362000E092D816F092D916CC248091DA16C82AE6
:10363000C092DA16D092DB16E092DC16F092DD161C
:103640002BC010929A161092991600E516E0209160
:10365000991630919A168091970E9091980E28178E
:10366000390784F41F930F930E94FE0980919916E5
:1036700090919A16019690939A16809399160F90AE
:103680000F90E5CFFF92EF92DF92CF928BEB99E014
:103690009F938F930E94FE090F900F900F900F90B1
:1036A0000F900F9077C08091D6169091D716A09169
:1036B000D816B091D91610929A1610929916C8166B
:1036C000D906EA06FB0609F040C040E5E42E46E0D4
:1036D000F42E2091991630919A168091970E909120
:1036E000980E2817390784F4FF92EF920E94FE0982
:1036F0008091991690919A16019690939A168093BC
:1037000099160F900F90E5CF8BED99E09F938F93D3
:103710000E94FE090F900F90E3E09E123BC08110C3
:1037200039C026EF230D422F50E0B801665F7F4F6E
:10373000CE0101962AA30E9477442AA1AE014F5FD1
:103740005F4FC301B20144D225C000E516E02091CD
:10375000991630919A168091970E9091980E28178D
:10376000390784F41F930F930E94FE0980919916E4
:1037700090919A16019690939A16809399160F90AD
:103780000F90E5CF8FEF99E09F938F930E94FE09F2
:103790000F900F90A2960FB6F894DEBF0FBECDBF6C
:1037A000DF91CF911F910F91FF90EF90DF90CF901D
:1037B000BF90AF909F908F907F906F905F904F9051
:1037C0003F902F900895CF92DF92EF92FF92242F97
:1037D000C090D616D090D716E090D816F090D91693
:1037E000CC24C82AAB01C701B601FF90EF90DF904F
:1037F000CF90B5CCEAEDF6E180819181A281B381D1
:10380000816080839183A283B3830895CF93DF93F4
:10381000CDB7DEB728970FB6F894DEBF0FBECDBF89
:10382000FE013196A0EEB6E1CE01099621912D93CD
:10383000E817F907D9F728960FB6F894DEBF0FBE40
:10384000CDBFDF91CF9108950F931F93CF93DF9357
:10385000CDB7DEB762970FB6F894DEBF0FBECDBF0F
:1038600010929A161092991600E516E0209199167A
:1038700030919A168091970E9091980E28173907DB
:1038800084F41F930F930E94FE09809199169091E2
:103890009A16019690939A16809399160F900F900E
:1038A000E5CF8091D9168F938091D8168F93809110
:1038B000D7168F938091D6168F9385E29AE09F93C7
:1038C0008F930E94FE0919821A821B821C828FEF3D
:1038D0008D838E838F83888781E089871A8642E172
:1038E000BE016F5F7F4F8091DA16B2D80F900F90B4
:1038F0000F900F900F900F9062960FB6F894DEBF66
:103900000FBECDBFDF91CF911F910F910895CF933F
:10391000DF9310929A1610929916C0E5D6E0209186
:10392000991630919A168091970E9091980E2817BB
:10393000390784F4DF93CF930E94FE098091991692
:1039400090919A16019690939A16809399160F90DB
:103950000F90E5CF85E49AE09F938F930E94FE0934
:103960000BD26093D6167093D7168093D816909387
:10397000D916DC01CB0188278093DA169093DB16E9
:10398000A093DC16B093DD1641DF34DF6AE070E00F
:1039900080E090E00E945C0A0F900F90DF91CF9141
:1039A00053CFCF93DF9310929A1610929916C0E5D9
:1039B000D6E02091991630919A168091970E9091A9
:1039C000980E2817390784F4DF93CF930E94FE09DD
:1039D0008091991690919A16019690939A168093D9
:1039E00099160F900F90E5CF8BE59AE09F938F93F8
:1039F0000E94FE090E94FF120F900F90DF91CF915D
:103A000086CF0C940C12A7DB90E008958F929F92C2
:103A1000AF92BF92EF92FF920F93CF93DF93CDB708
:103A2000DEB7A1970FB6F894DEBF0FBECDBF4B0136
:103A30005C01B9010F3198F44983EA82FB82402F7F
:103A400050E0CE0104960E94774423E0200FAE019F
:103A50004F5F5F4FC501B40126DA90E002C083E0FA
:103A600090E0A1960FB6F894DEBF0FBECDBFDF91F8
:103A7000CF910F91FF90EF90BF90AF909F908F905C
:103A80000895EF92FF920F93E090EE0BF090EF0B02
:103A90005FEFE51AF50AF092EF0BE092EE0BB6DF5E
:103AA0000F91FF90EF900895EF92FF920F93E62F02
:103AB000DC011496ED90FC9015976D917D918D91A0
:103AC0009C91022F9A014E2FA1DF0F91FF90EF9052
:103AD00008952F923F924F925F926F927F928F92B2
:103AE0009F92AF92BF92CF92DF92EF92FF920F938D
:103AF0001F93CF93DF9300D01F92CDB7DEB737016E
:103B00009A828982D092E916C092E816A092F016A5
:103B10001092F716E090EE0BF090EF0B5FEFE51AC6
:103B2000F50AF092EF0BE092EE0BF092EB16E092BA
:103B3000EA166CDF882321F0992787FD909531C024
:103B40000E944D0A5301C12CD12CE12CF12C00E034
:103B500010E00E94414419012A013B018B839C83A0
:103B600050DF8091F716882359F081EF96E1E981C3
:103B7000FA81918380831092F01680E090E011C06A
:103B80000E944D0A59016A017B018C019101A20139
:103B9000B3018B819C810E94534409F008F784E0B3
:103BA00090E00F900F900F900F90DF91CF911F91A9
:103BB0000F91FF90EF90DF90CF90BF90AF909F90CC
:103BC0008F907F906F905F904F903F902F900895CF
:103BD000CF93DF93CDB7DEB72A970FB6F894DEBF49
:103BE0000FBECDBFFA0130E0422F50E0A32FBB271C
:103BF000A7FDB095A417B50714F43F5FF7CF69830D
:103C00007A838B839C8340814F83828190E0982FBD
:103C100088273181830F911D9E838D833396F98789
:103C2000E88723502A872091F016211112C0BE0187
:103C30006F5F7F4F8091EC0B9091ED0B0E945A0DBE
:103C40002A960FB6F894DEBF0FBECDBFDF91CF919D
:103C500008952091EE0B3091EF0B8217930739F7FF
:103C600080E090E05AE02091F01630E08217930750
:103C7000F4F6E091E816F091E916E80FF91F2081BB
:103C800042130BC0FE013196A1EFB6E1252F019042
:103C90000D922A95E1F71092F0160196E4CFB1CE7D
:103CA000F2C870E050E09B01240F351F2138310528
:103CB00034F46B5F7F4F0E94174780E0089580E1E6
:103CC0000895CF93C42F262F30E0F901E40FF11DA2
:103CD000E138F10534F067FD03C0C0E8C61B01C040
:103CE000C0E04C2F50E0B9016B5F7F4F0E94FA4655
:103CF0008C2FCF910895CF93C82F853000F584E0A5
:103D000090E0662359F00E940A4761E070E00C2EB3
:103D100001C0660F0A94EAF7682B0BC00E940A479D
:103D200061E070E00C2E01C0660F0A94EAF760951E
:103D3000682384E090E00E94264780E001C081E192
:103D4000CF910895CF93C82F853090F484E090E010
:103D50000E940A47282F30E041E050E002C0440FA3
:103D6000551FCA95E2F72423352381E0232B09F45C
:103D700080E08170CF91089580E090E00C9412472C
:103D8000AB01BC0180E090E00C943847CF93DF9307
:103D9000E0E2F2E026E132E0CCE0D2E062E072E084
:103DA0008FEF9FEF81939193D9018D939D939D0107
:103DB00089939993DB018D939D93BD01B2E0EA3223
:103DC000FB0781F780E0DF91CF910895EF92FF929A
:103DD0000F931F93CF93DF93FA010CE012E0A0E260
:103DE000B2E040E050E0E801E990F9908E01E81679
:103DF000F90669F4EA01CC0FDD1FCE0FDF1F119623
:103E0000FC901197F982FC90FA824F5F5F4F1296F7
:103E1000D2E006311D0739F7908381837283638373
:103E20004483440F551F4B5F5F4FF901518340831B
:103E300080E0DF91CF911F910F91FF90EF90089557
:103E4000E0E2F2E020E030E041915191481759075B
:103E5000D1F4220F331FF901E05EFD4F8FEF9FEF8A
:103E600091838083F901EA5EFD4F91838083F9019C
:103E7000E45FFD4F91838083F901EE5FFD4F9183F5
:103E8000808380E008952F5F3F4F25303105E1F6B4
:103E900086E10895ECE0F2E020E030E041915191BC
:103EA0004817590741F02F5F3F4F25303105B1F7D3
:103EB0008FEF9FEF0895C9010895CF92DF92EF929F
:103EC000FF920F931F93CF93DF938C017B016A01C5
:103ED000E1DFEC01CF3F8FEFD80771F4E0E2F2E0D1
:103EE000C0E0D0E081919191892B31F4C430D105AB
:103EF00009F441C02196F6CFCC0FDD1FFE01E05E34
:103F0000FD4F11830083A091F60BB091F70B15962E
:103F10004091F20B5091F30B80E090E084179507ED
:103F2000F9F08D010350110920E030E02BBFF801BA
:103F3000079116910E151F0581F48D0120E030E0E8
:103F40002BBFF801079116910C151D0531F4FE01E8
:103F5000EA5EFD4F9183808303C001961696DECF03
:103F6000FE01E45FFD4FD182C082CE5FDD4FF9825A
:103F7000E88280E001C085E1DF91CF911F910F9130
:103F8000FF90EF90DF90CF9008952F923F924F9245
:103F90005F926F927F928F929F92AF92BF92CF92D9
:103FA000DF92EF92FF920F931F93CF93DF934C0119
:103FB0008B017A0159016090F60B7090F70BA6E126
:103FC000B2E0C0E2D2E080E090E02FEF3FEF6D91F1
:103FD0007C911197E6E0E69FA001E79F500D112428
:103FE000460D571DBA016E5F7F4F1B01412C512CAE
:103FF0004BBEF101679176916E157F0551F54B5FD0
:104000005F4F60E070E06BBFFA01479156914A152F
:104010005B05F9F4F40140E050E04017510754F417
:10402000C190D19068817981C616D70691F04F5F13
:104030005F4FF3CF3983288311963C932E93FC0175
:10404000E45FFD4F31832083FC01EE5FFD4F318340
:1040500020831296029622968A30910509F0B7CFF6
:10406000E401C12CD12CC016D1065CF4A501B70126
:104070008991999122DF811106C08FEFC81AD80A61
:10408000F2CF80E001C085E1DF91CF911F910F91C8
:10409000FF90EF90DF90CF90BF90AF909F908F9068
:1040A0007F906F905F904F903F902F900895FC010C
:1040B000408150E0542F44278181480F511D2281B7
:1040C00030E0322F22278381280F311D648170E078
:1040D000CF0105965ACFECE0F2E0219131912817FB
:1040E000390731F022E0E631F207B9F780E00895B0
:1040F00081E008955F926F927F928F929F92AF922C
:10410000BF92CF92DF92EF92FF920F931F93CF93C4
:10411000DF93582E5B01C0E0D0E08091F00B9091CE
:10412000F10BC817D90708F062C03E01660C771C76
:1041300000E010E0812C912CC090F40BD090F50B96
:1041400096012E5F3F4F260D371DC901A0E0B0E05C
:10415000ABBFFC0127913691C9018C0D9D1DA0E0DC
:10416000B0E0ABBFFC01879190E0881699060CF097
:104170003CC083E0C80ED11CC00ED11EC20ED31E9F
:10418000E12CF12CEBBEF601C790D790E790F690AA
:1041900087DDC616D706E806F90609F52091F40B67
:1041A0003091F50BC9010296860D971DA0E0B0E095
:1041B000ABBFFC0187919691295F3F4F200F311FC4
:1041C000280F391FC901A0E0B0E0ABBFFC01879107
:1041D000851105C0F501D183C08381E009C0FFEFDF
:1041E0008F1A9F0A0B5F1F4FA7CF219696CF80E0B3
:1041F000DF91CF911F910F91FF90EF90DF90CF90C3
:10420000BF90AF909F908F907F906F905F90089538
:104210007F928F929F92AF92BF92CF92DF92EF9256
:10422000FF920F931F93CF93DF9300D0CDB7DEB7EC
:10423000762EBE016F5F7F4F5DDF812C912CA12C0C
:10424000B12C8091F20B9091F30BA816B90608F0EF
:104250007AC08091F60B9091F70B880D991DAC01F7
:10426000495F5F4F60E070E06BBFFA014791471113
:1042700063C0AC014B5F5F4F60E070E06BBFFA0161
:104280004791569129813A814217530709F054C04A
:104290008C010E5F1F4F20E030E02BBFF80107912B
:1042A00016919C012C5F3F4FC901A0E0B0E0ABBF6D
:1042B000FC012791C090F40BD090F50B000F111F5B
:1042C000C6010296800F911FA0E0B0E0ABBFFC01D9
:1042D0008791969133E0C30ED11CC80ED91EE12CF4
:1042E000F12CEBBEF601C790D790E790F6902B83A8
:1042F000D7DC2B81C616D706E806F906E9F08091CF
:10430000F40B9091F50BAC014E5F5F4F400F511FC6
:1043100060E070E06BBFFA01479156910796840FF9
:10432000951FAC0160E070E06BBFFA014791C701D7
:10433000B6010E94B73308C08FEFA81AB80A36E05A
:10434000830E911C7ECF8FEF0F900F900F90DF9117
:10435000CF911F910F91FF90EF90DF90CF90BF9082
:10436000AF909F908F907F9008952F923F924F92A1
:104370005F926F927F928F929F92AF92BF92CF92F5
:10438000DF92EF92FF920F931F93CF93DF93CDB7FE
:10439000DEB72F970FB6F894DEBF0FBECDBF6E8786
:1043A00058874F83FC0182818987BE016B5F7F4FF5
:1043B000A1DE882309F419C18D819E818CDE8111D3
:1043C00016C1BE016D5F7F4F89850E94242CEB8151
:1043D000FC810190F081E02D208031801D861C86BB
:1043E0001B861A86512CFE856F2E712C8091F20B44
:1043F0009091F30BEA85FB85E817F90708F0F3C005
:104400002091F60B3091F70B8C859D85280F391F75
:10441000C9010496A0E0B0E0ABBFFC0187919E8586
:104420008913D5C0C9010296A0E0B0E0ABBFFC0182
:10443000879196914D815E818417950709F0C7C0D9
:10444000C9010596A0E0B0E0ABBFFC018791969151
:10445000A901495F5F4F60E070E06BBFFA014790D0
:104460004091F40B5091F50B9A012E5F3F4F880F4E
:10447000991F820F931FA0E0B0E0ABBFFC018791B2
:1044800096918A010F5F1F4F080F191F20E030E03F
:104490002BBFF801079116916A01E3E0CE0ED11C03
:1044A000C80ED91EE12CF12CEBBEF6018790979037
:1044B000A790B690495F5F4F480F591F60E070E0CA
:1044C0006BBFFA0147914F87EBDB4F858616970646
:1044D000A806B90661F5BE016F5F7F4F842F0E9469
:1044E000242C811174C0EB81FC810190F081E02DBE
:1044F000E60DF71D438550E04F7389819A81EF8166
:10450000F8854130510531F4208141E0642D0E944D
:10451000922A5CC020813181452B21F441E0642D39
:10452000B6D754C041E0642D0E94DA2A4FC0EB8117
:10453000FC810190F081E02DE60DF71D838590E070
:104540008F7321E082169104A104B10419F5EF8163
:10455000F8858130910551F400812985A10161E040
:1045600070E080E090E00E946A3330C000811181E9
:104570002985A101892B39F461E070E080E090E0A9
:104580000E94433323C061E070E080E090E00E942D
:104590008F331CC0CD80DE80EF81F885813091059E
:1045A00039F4E080242DC501B4010E940A320EC006
:1045B000E080F180242D892B29F4C501B4010E94EB
:1045C000B63104C0C501B4010E946232582A2A855E
:1045D0003B852F5F3F4F3B872A878C859D850696BD
:1045E0009D878C8703CF852D03C080E001C087E1C4
:1045F0002F960FB6F894DEBF0FBECDBFDF91CF91DF
:104600001F910F91FF90EF90DF90CF90BF90AF90F0
:104610009F908F907F906F905F904F903F902F90E2
:104620000895FF920F931F93CF93DF9300D0CDB7E0
:10463000DEB7BE016D5F7F4FCE0101960E94D72D80
:10464000882301F16B8189819A810E94622E8C01FD
:10465000FC01208189819A8124FF06C0A8014F5F57
:104660005F4F6B8182DE04C06B81FC018281D0DDF3
:10467000F82EC801F11003C00E94682BDACF0E9407
:10468000482B8F2D0F900F900F90DF91CF911F919E
:104690000F91FF900895CF93DF93FC018091F00B71
:1046A0009091F10B8E179F0708F42EC02091F40B08
:1046B0003091F50BC9010296EE0FFF1F8E0F9F1F61
:1046C000A0E0B0E0ABBFFC01C791D691C901039651
:1046D0008C0F9D1FA0E0B0E0ABBFFC0187919791CC
:1046E000A791B691FB0180839183A283B383C90113
:1046F00007968C0F9D1FA0E0B0E0ABBFFC01879137
:10470000FA01808380E001C08FE0DF91CF910895AE
:104710000F931F930091F40B1091F50B98012E5FEE
:104720003F4F880F991F280F391FC901A0E0B0E043
:10473000ABBFFC01879196910D5F1F4F080F191FAA
:1047400020E030E02BBFF8010791179127913691B7
:1047500081E0041715072607370709F080E01F914D
:104760000F910895BF92CF92DF92EF92FF920F9335
:104770001F93CF93DF931F921F92CDB7DEB7B62E54
:10478000BE016F5F7F4FB6DCC980DA802091F60BE7
:104790003091F70B2B5F3F4FE090F20BF090F30B53
:1047A00000E010E040E050E04E155F0509F42EC037
:1047B000C9010296A0E0B0E0ABBFFC0187918B116C
:1047C0001EC0C901A0E0B0E0ABBFFC01879196918B
:1047D0008C159D05A1F464DAAB01BC018091F60B48
:1047E0009091F70B0296800F911FA0E0B0E0ABBF55
:1047F000FC01879196918CDF91E0982708C04F5F6C
:104800005F4F0A5F1F4F2A5F3F4FCECF90E0892F47
:104810000F900F90DF91CF911F910F91FF90EF902C
:10482000DF90CF90BF9008957F928F929F92AF922A
:10483000BF92CF92DF92EF92FF920F931F93CF938D
:10484000DF931F921F92CDB7DEB79093F50B809345
:10485000F40BA0E0B0E0ABBFFC0187919691909380
:10486000F10B8093F00B00E010E08091F00B909141
:10487000F10B0817190708F05FC05801AA0CBB1C00
:10488000712CC090F40BD090F50BC60102968A0DE6
:104890009B1DA0E0B0E0ABBFFC0127913691C901A0
:1048A0008C0D9D1DA0E0B0E0ABBFFC018791781698
:1048B00008F03FC085E0789E4001112483E0C80ED7
:1048C000D11CC80CD91CC20ED31EE12CF12CEBBE9E
:1048D000F601C790D790E790F690E2D9C616D706B2
:1048E000E806F90621F52091F40B3091F50BC9018A
:1048F00002968A0D9B1DA0E0B0E0ABBFFC01879142
:104900009691295F3F4F280D391D280F391FC90186
:10491000A0E0B0E0ABBFFC018791BE016F5F7F4FAD
:1049200093D7811104C089819A810E947A2E739451
:10493000A8CF0F5F1F4F99CF80E00F900F90DF91AE
:10494000CF911F910F91FF90EF90DF90CF90BF908C
:10495000AF909F908F907F9008959093F70B8093E6
:10496000F60BA0E0B0E0ABBFFC018791969190936D
:10497000F30B8093F20B80E008957F928F929F92C9
:10498000AF92BF92CF92DF92EF92FF920F931F935D
:10499000CF93DF9300D01F92CDB7DEB7A12CB12CFF
:1049A0008091F00B9091F10BA816B90608F0B2C0F7
:1049B0008501000F111F712CC090F40BD090F50BE6
:1049C000C6010296800F911FA0E0B0E0ABBFFC01D2
:1049D00027913691C9018C0D9D1DA0E0B0E0ABBFC1
:1049E000FC018791781608F091C085E0789E40011F
:1049F0001124E3E0CE0ED11CC80CD91CC20ED31E6C
:104A0000E12CF12CEBBEF601C790D790E790F69021
:104A100047D9C616D706E806F90609F075C02091F1
:104A2000F40B3091F50BC9010296800F911FA0E0A5
:104A3000B0E0ABBFFC01879196912F5F3F4F280FED
:104A4000391FC901A0E0B0E0ABBFFC01879196918E
:104A5000BE016D5F7F4F4BD681115DC0EB81FC8144
:104A600084819581892B09F44FC02091F40B3091FA
:104A7000F50BC9010296800F911FA0E0B0E0ABBF1B
:104A8000FC0187919691295F3F4F280D391D280F12
:104A9000391FC901A0E0B0E0ABBFFC018791BE01A6
:104AA0006F5F7F4FD1D6EB80FC80813049F0E98188
:104AB000FA81808191818E159F0531F186E02BC0AE
:104AC0002091F40B3091F50BC9010296800F911FD4
:104AD000A0E0B0E0ABBFFC0187919691295F3F4F0A
:104AE000280D391D280F391FC901A0E0B0E0ABBF68
:104AF000FC01679120E040E050E0F7018081918166
:104B00000E949F2E811107C0739456CFFFEFAF1AFA
:104B1000BF0A46CF80E00F900F900F900F90DF916B
:104B2000CF911F910F91FF90EF90DF90CF90BF90AA
:104B3000AF909F908F907F9008952F923F924F92C9
:104B40005F926F927F928F929F92AF92BF92CF921D
:104B5000DF92EF92FF920F931F93CF93DF93CDB726
:104B6000DEB72A970FB6F894DEBF0FBECDBFAC01FB
:104B700060E070E06BBFFA01279136913C832B8394
:104B80005C0132E0A30EB11CE12CF12CAB81BC81A5
:104B9000EA16FB0609F4B1C0850120E030E02BBF26
:104BA000F80107911691150182E0280E311CC10110
:104BB000A0E0B0E0ABBFFC012790A5014D5F5F4FC7
:104BC00060E070E06BBFFA0197919D83A4E0AA0EAC
:104BD000B11C000F111F312C222D30E03F832E839A
:104BE000C501A0E0B0E0ABBFFC0137913887ABBF97
:104BF000FC01C790D690C986DA864090F40B50909D
:104C0000F50BC2010296800F911FA0E0B0E0ABBF90
:104C1000FC0187919691AC01440D551D60E070E058
:104C20006BBFFA014791341608F060C0A5E03A9EC8
:104C300040011124B3E04B0E511C480C591C480E86
:104C4000591E612C712C6BBEF201479057906790F2
:104C5000769026D8461657066806790609F044C0AD
:104C60002091F40B3091F50BC9010296800F911F32
:104C7000A0E0B0E0ABBFFC0147915691C901079697
:104C8000880D991D840F951FA0E0B0E0ABBFFC011B
:104C90008791BE016F5F7F4FD7D581112FC089816A
:104CA0009A81DC01ED91FC912E813F81E20FF31F8F
:104CB00023852F73213071F040F02230A9F429852B
:104CC0003A8541E0622D76D40DC0960141E0622D17
:104CD000DED308C021E03885311101C020E041E079
:104CE000622D20D481110AC0339487CF8D81A80E04
:104CF000B11C9FEFE91AF90A49CF80E02A960FB656
:104D0000F894DEBF0FBECDBFDF91CF911F910F9101
:104D1000FF90EF90DF90CF90BF90AF909F908F90DB
:104D20007F906F905F904F903F902F9008952F92BB
:104D30003F924F925F926F927F928F929F92AF922B
:104D4000BF92CF92DF92EF92FF920F931F93CF9378
:104D5000DF931F921F92CDB7DEB78C01962EE12C08
:104D6000F12C80919C1690919D160E94280A90E04B
:104D7000E816F9069CF46E2D80919C1690919D1674
:104D80000E943A0A0197A0E0B0E0ABBFFC01879116
:104D9000843039F06FEFE61AF60AE3CFEE24EA9496
:104DA000FE2CBE016F5F7F4FF8018281A3D97E2C5C
:104DB0006E2D80919C1690919D160E943A0A9C013E
:104DC000A0E0B0E0ABBFFC0187919691A981BA81C8
:104DD00040E050E062E0E62EF12C6901F2E0CF0EF7
:104DE000D11C590163E0A60EB11C4817590709F4FC
:104DF00037C01701220E331E412C512C4BBEF1013E
:104E00006791769116012E0C3F1C412C512C4BBE04
:104E1000F101679015012E0C3F1C412C512C4BBE0B
:104E2000F1018790E4E0EE0EF11CA617B70799F4A4
:104E3000961011C0692DC80145D78C01B701872D87
:104E40000E944A2FB8016F5F7F4F882D0E94B72FB5
:104E50000E94243005C0E80CF11C4F5F5F4FC5CFA6
:104E60000F900F90DF91CF911F910F91FF90EF90D6
:104E7000DF90CF90BF90AF909F908F907F906F907A
:104E80005F904F903F902F9008954F925F926F9256
:104E90007F929F92AF92BF92CF92DF92EF92FF925A
:104EA0000F931F93CF93DF9300D01F921F92CDB724
:104EB000DEB75C01942E0D836B01E12CF12CC9014E
:104EC000A0E0B0E089839A83AB83BC8300E010E06C
:104ED00080919C1690919D160E94280A90E00817D8
:104EE000190794F4602F80919C1690919D160E9452
:104EF0003A0A0197A0E0B0E0ABBFFC018791833094
:104F000029F00F5F1F4FE4CF0FEF1FEFA091F40BBD
:104F1000B091F50BBD016E5F7F4F2501440C551C10
:104F2000460E571E612C712CCD010396AD01495FD1
:104F30005F4F20E030E06BBEF201A790B6902501F4
:104F40004A0E5B1E612C712C6BBEF2014790A42DA2
:104F5000B0E02A173B070CF044C02A01E4E04E1AE7
:104F600051084A0C5B1C612C712C6BBEF2014790FE
:104F70005790679076904C145D046E047F0461F541
:104F80002501440E551E612C712C6BBEF201479019
:104F9000491022C0D901AA0FBB1FAD01460F571FF0
:104FA00060E070E06BBFFA0167917691680F791F3E
:104FB0002A0F3B1F620F731F802F6CD7BE016F5FDC
:104FC0007F4F82E0D4D7BE016B5F7F4F81E0CFD7A8
:104FD0000E94243080E006C02F5F3F4F4B5F5F4F41
:104FE000B8CF8FE00F900F900F900F900F90DF9140
:104FF000CF911F910F91FF90EF90DF90CF90BF90D6
:10500000AF909F907F906F905F904F9008958F9298
:105010009F92AF92BF92CF92DF92EF92FF920F9347
:105020001F93CF93DF9300D000D0CDB7DEB78C01B4
:105030005B01E12CF12C80919C1690919D160E94B1
:10504000280A90E0E816F9069CF46E2D80919C16D3
:1050500090919D160E943A0A0197A0E0B0E0ABBF84
:10506000FC018791823039F08FEFE81AF80AE3CF1C
:10507000EE24EA94FE2CD5018C9190E0982F88279D
:1050800011962C911197820F911D9C838B831396FF
:105090008C91139790E0982F882714962C91149751
:1050A000820F911D9A83898312968C9112978E8319
:1050B00015968C918D834091F60B5091F70B9A01C8
:1050C0002E5F3F4FC090F20BD090F30B80E090E04A
:1050D000B901641B750B8C159D0509F467C0490166
:1050E000A12CB12CABBEF40187909690F801A08161
:1050F000EA2FF0E0FE2FEE27D8011196BC90EB0DC1
:10510000F11D8E169F0609F04DC04901B2E08B0ECD
:10511000911CA12CB12CABBEF4018790D801129642
:10512000EC918E123FC04901B3E08B0E911CA12C73
:10513000B12CABBEF40187909690D8011396EC91F8
:105140001397F0E0FE2FEE271496BC90EB0DF11DA7
:105150008E169F0639F54901B5E08B0E911CA12CE6
:10516000B12CABBEF4018790D8011596EC918E124C
:1051700019C08E2D8FD6BE016D5F7F4F82E0F7D6AE
:10518000BE016A5F7F4F81E0F2D6BE016F5F7F4F45
:1051900082E0EDD6BE016B5F7F4F81E0E8D654D749
:1051A00080E005C001962A5F3F4F92CF82E12696AC
:1051B0000FB6F894DEBF0FBECDBFDF91CF911F9128
:1051C0000F91FF90EF90DF90CF90BF90AF909F90A6
:1051D0008F900895AF92CF92DF92EF920F931F932B
:1051E000CF93DF93CDB7DEB72C970FB6F894DEBF21
:1051F0000FBECDBF99838A836B835C834D832E83DF
:105200001F830887E986DA86CB86AC86BE01695F94
:105210007F4FCE010196FBDE2C960FB6F894DEBFD1
:105220000FBECDBFDF91CF911F910F91EF90DF9017
:10523000CF90AF9008950E94501E2091F20B3091B4
:10524000F30B80E090E08217930711F00196FBCFFB
:1052500080E008959F92AF92BF92CF92DF92EF923B
:10526000FF920F931F93CF93DF938C010E94C61E72
:10527000B12CA12C912CC8010E94280AB816F8F470
:105280006B2DC8010E943A0AEC016C0181E0C81A3A
:10529000D108E12CF12CEBBEF6018791823021F48C
:1052A000CE015BDB99249394EBBEF60187918330AA
:1052B00021F4CE01B9DAAA24A394B394DCCF9920C7
:1052C00011F0A11011C06FE670E080E090E0DF9176
:1052D000CF911F910F91FF90EF90DF90CF90BF90F3
:1052E000AF909F900C946F0DDF91CF911F910F9114
:1052F000FF90EF90DF90CF90BF90AF909F90089578
:105300000F931F93CF93DF93EC0137DB882331F0AA
:105310006EE670E080E090E00E946F0D10E000E02B
:10532000CE010E94280A181790F4612FCE010E9426
:105330003A0AAC014150510960E070E06BBFFA01DC
:105340004791443011F4F9DB01E01F5FE9CF01110F
:105350000AC06FE670E080E090E0DF91CF911F918E
:105360000F910C946F0DDF91CF911F910F910895C4
:10537000CF93DF931F921F92CDB7DEB71A821982A7
:105380002FE088E190E00FB6F894A8958093600034
:105390000FBE20936000A89560E070E08091AE0B96
:1053A0009091AF0B0E945A0D80919B16813099F716
:1053B00038D9CE01019620D3882369F389819A8157
:1053C0000F900F90DF91CF910895CF93DF93EC0171
:1053D00041DFCE01DF91CF9193CFCF93DF93EC01EB
:1053E00039DFCE018DDFDF91CF91C2CFFB0120816C
:1053F0002F732061208341117DC208950F931F9365
:10540000DC01ED91FC9186816817B0F4E60FF11D87
:105410008385222349F0403819F487FF0FC004C068
:10542000403411F486FF0CC010E090E08F73081731
:10543000190741F089E007C082E005C085E003C09C
:1054400084E001C080E01F910F910895EF92FF92D8
:105450000F931F93CF93DF93EC01162F790100E098
:10546000242F40E8CBDF082F811109C0612FCE0126
:1054700029D4FC0121813281F70131832083802FDF
:10548000DF91CF911F910F91FF90EF900895DF92E0
:10549000EF92FF920F931F93CF93DF93EC01D62EE1
:1054A000142F790100E0242F40E4A8DF811113C0FC
:1054B0006D2DCE0107D4111106C0FC0161817281EE
:1054C0006E157F0539F0FC01F282E182412FBC01AB
:1054D000CE018CDF80E0DF91CF911F910F91FF9083
:1054E000EF90DF900895EF92FF920F931F93CF9369
:1054F000DF93EC01162F790101E0242F40E87EDFD5
:10550000082F811107C0612FCE01DCD3FC018181FE
:10551000F7018083802FDF91CF911F910F91FF9032
:10552000EF900895EF92FF920F931F93CF93DF9325
:10553000EC01E62E142FF22E01E0242F40E45EDF72
:10554000811110C06E2DCE01BDD3111104C0FC011C
:1055500021812F1531F0FC01F182412FBC01CE01D8
:1055600045DF80E0DF91CF911F910F91FF90EF9089
:105570000895EF92FF920F931F93CF93DF93EC0167
:10558000162F790102E0242F40E838DF082F81111F
:1055900009C0612FCE0196D3FC0121813281F70130
:1055A00031832083802FDF91CF911F910F91FF9046
:1055B000EF900895DF92EF92FF920F931F93CF9396
:1055C000DF93EC01162FD42E790102E0242F40E462
:1055D00015DF811116C0612FCE0174D38C01D1105B
:1055E00006C0FC01818192818E159F0549F0F8016A
:1055F000F282E182CE018FD14D2DB801CE01F6DECF
:1056000080E0DF91CF911F910F91FF90EF90DF909D
:105610000895CF93DF93EA0155D3009729F0FC0159
:105620008081888380E001C082E0DF91CF9108957E
:10563000DC01ED91FC912681621778F443D3FC01E3
:10564000009769F0808186FD02C087FF02C08062FA
:1056500001C080E3808380E0089582E008958FEFA9
:1056600008950F93082F807571F0802F8C7069F06A
:105670000E944D0AE02FE1700E700E9425442170B7
:1056800081E0E21719F080E001C081E00F910895F8
:105690000F93CF93DF93EC0128812E7030E0359586
:1056A0002795022F273011F001E0020F0E944D0ACA
:1056B000E02FEE0FF881F07FEF2B000F0E942544C2
:1056C0002F5F2170E22BE883DF91CF910F91089536
:1056D000FC01808184FF02C0807C02C0807B8068E6
:1056E00080830895FC012081206420830895DB01DC
:1056F0002091F80B3091F90B11963C932E93ED917C
:10570000FC911197309741F020813181281739079A
:1057100029F021853285F0CF83E0089580E0089557
:105720000F931F93CF93DF931F921F92CDB7DEB7D6
:105730008C01BE016F5F7F4FFC0180819181D7DFBB
:10574000882359F08091F80B9091F90BF80192871A
:1057500081871093F90B0093F80B0F900F90DF9156
:10576000CF911F910F910895FB012091F80B30917B
:10577000F90B31832083A081B181882341F03097D8
:1057800031F0815019962D913C911A97F2CFAB2BA5
:1057900011F080E0089583E00895E091F80BF09116
:1057A000F90B80E090E0309729F001960184F285B2
:1057B000E02DF9CF0895DC0116964C91169750E034
:1057C00020E030E080E0241735076CF4FD01E20FA3
:1057D000F31FE385F0E0EF73ED5CFB4F9081890FE1
:1057E0002F5F3F4FF0CF08950F931F93CF93DF9319
:1057F000C091FE0BD091FF0B209769F09A8198130E
:105800000AC08E859F859093FF0B8093FE0BCE017F
:105810000E94810A10C0209789F0EE85FF8530979D
:1058200061F092819813F9CF06851785CF010E9408
:10583000810A1F870E8780E002C0FFCF81E0DF91E1
:10584000CF911F910F910895DB012091FE0B3091B4
:10585000FF0B11963C932E93ED91FC91119730978D
:1058600031F09281981729F026853785F2CF81E0B3
:10587000089580E00895FB012091FE0B3091FF0B0D
:1058800031832083A081B181882341F0309731F0AA
:1058900081501E962D913C911F97F2CF81E0AB2B4A
:1058A00009F080E00895DB012091FE0B3091FF0BA1
:1058B00011963C932E93ED91FC911197309741F006
:1058C000238134812817390729F026853785F0CFC1
:1058D00081E0089580E00895E091FE0BF091FF0BC8
:1058E00080E090E0309729F001960684F785E02D5E
:1058F000F9CF0895DC0113962D913C911497232B39
:1059000031F4ED91FC910480F581E02D199421E0B2
:10591000FC01258708958F929F92AF92BF92CF92FC
:10592000DF92EF92FF920F931F93CF93DF931F921B
:105930001F92CDB7DEB74C01DC01ED91FC91868161
:1059400090E060E070E0681779070CF046C0DF0176
:10595000A60FB71F1B962C912F732230D9F59E01ED
:105960002F5F3F4F40E0C40104DE89819A81892B7B
:1059700051F4F40115821682178210861186128660
:10598000138614862AC00E944D0ABA80A9801B2D56
:10599000110F110BC12ED12EE12EF12E012F0E94DD
:1059A0004144D40115962C93159716963C9316975F
:1059B00017964C93179718965C93189719966C93B3
:1059C00019971A967C931A971B968C931B971C9683
:1059D0009C9303C06F5F7F4FB6CF0F900F90DF9106
:1059E000CF911F910F91FF90EF90DF90CF90BF90DC
:1059F000AF909F908F9008952F923F924F925F9219
:105A00006F927F928F929F92AF92BF92CF92DF92CE
:105A1000EF92FF920F931F93CF93DF931F921F92EA
:105A2000CDB7DEB73C018091FE0B9091FF0B892B27
:105A300011F480E0A7C0BE016F5F7F4F8091FC0B27
:105A40001ADF813051F48091FE0B9091FF0B9A8305
:105A500089831092FD0B1092FC0B8090FC0B9090B0
:105A6000FD0BE981FA81868597859A8389832FEFDB
:105A7000821A920A892B41F48091FE0B9091FF0BC0
:105A80009A838983812C912CE981FA81E580F680C3
:105A90000781108521843284438454849701A801AE
:105AA000B101C201A0E00E945C4431F4E981FA81B5
:105AB0008585811114C05DC00E944D0A59016A019B
:105AC000B62FA72FF82FE92F9701A801B101C20126
:105AD000EB2EFA2E0F2F1E2F0E94534438F7E98128
:105AE000FA811586E580F68007811085218432844D
:105AF000438454849701A801B101C201A0E00E942F
:105B00005C44B1F00E944D0A59016A01B62FA72FDB
:105B1000F82FE92F9701A801B101C201EB2EFA2E4F
:105B20000F2F1E2F0E94534418F489819A81F3DEAF
:105B3000E981FA8183819481892B91F4CE010196C8
:105B40000E94B10A89819A81DC01ED91FC91048067
:105B5000F581E02D1995CE0101960E94D90A09C060
:105B6000D301ED93FC939092FD0B8092FC0B81E0AE
:105B700009C08091FC0B9091FD0B8816990609F0E5
:105B800070CF57CF0F900F90DF91CF911F910F9152
:105B9000FF90EF90DF90CF90BF90AF909F908F904D
:105BA0007F906F905F904F903F902F9008957F92DD
:105BB0008F929F92AF92BF92CF92DF92EF92FF921D
:105BC0000F931F93CF93DF931F921F92CDB7DEB732
:105BD0006C015B018091FE0B9091FF0B892B11F4FE
:105BE00080E060C0BE016F5F7F4F8091FA0B43DEA3
:105BF000813051F48091FE0B9091FF0B9A83898341
:105C00001092FB0B1092FA0B0091FA0B1091FB0B08
:105C1000E981FA81868597859A8389830F5F1F4F73
:105C2000892B41F48091FE0B9091FF0B9A8389831D
:105C300000E010E0E981FA8180809180E12CF12C74
:105C4000712CF401868190E0E816F90614F5E981DB
:105C5000FA81E70DF11D808904DD882361F010933E
:105C6000FB0B0093FA0B29813A81F60131832083E3
:105C7000F501E08217C0F401EE0DFF1DE385F0E0B1
:105C8000EF73ED5CFB4F8081780EFFEFEF1AFF0A98
:105C9000D8CF8091FA0B9091FB0B0817190709F0E8
:105CA000B7CF9ECF0F900F90DF91CF911F910F91A3
:105CB000FF90EF90DF90CF90BF90AF909F908F902C
:105CC0007F900895FC014081518120E0662361F0BE
:105CD0006150FA01E60FF11DE385F0E0EF73ED5C32
:105CE000FB4F3081230FF2CF30E0205F3F4F820F18
:105CF000931F0895FF920F931F93CF93DF938C010F
:105D0000DC011296FC90C0E0D0E0D801ED91FC914E
:105D1000268130E0C217D30764F46C2F8F2D0E94C8
:105D2000B223882321F06C2FC801CCDFDBDC219665
:105D3000ECCFDF91CF911F910F91FF900895EF92DB
:105D4000FF920F931F93CF93DF9300D000D0CDB776
:105D5000DEB78C01E62E5E834D83F22EBE016D5FB1
:105D60007F4F8E2D71DD813009F071C0BE016F5FF4
:105D70007F4FC801BCDC811173C009811A81F80111
:105D8000808580FD03C0FF2009F463C0F801848191
:105D90009581892B61F42D813E81232B09F45BC011
:105DA000C80109DD082F10E0005F1F4F09C0C801BE
:105DB00002DDF801078110E0005F1F4F080F111D81
:105DC000CE0105960E94B10ACE0101960E94B10A49
:105DD00069E070E0C8010E94740C9C838B83CE0143
:105DE00005960E94D90ACE0101960E94D90A8B819C
:105DF0009C81009791F1A80160E070E00E949144BD
:105E0000EB81FC8129813A8131832083E2828D817B
:105E10009E819483838315868091FE0B9091FF0B66
:105E200097878687F093FF0BE093FE0BCF0162DF2D
:105E3000E981FA8184819581892B89F0F1100FC065
:105E40000280F381E02D8B819C81199508C086E04A
:105E500007C084E105C08BE003C088E001C080E09A
:105E600026960FB6F894DEBF0FBECDBFDF91CF915F
:105E70001F910F91FF90EF900895CF93DF93EC0166
:105E80008881998198DC90E040968C0F9D1FDF916E
:105E9000CF910895FF920F931F93CF93DF93F82E26
:105EA000EB01682F80919C1690919D160E943A0AF2
:105EB0008C0180919C1690919D160E94280AF816DC
:105EC000E0F4A8014350510960E070E06BBFFA01B3
:105ED00047915691C417D50780F480919C169091F4
:105EE0009D169E01281B390BC901800F911FDF9160
:105EF000CF911F910F91FF900AC080E0DF91CF9169
:105F00001F910F91FF90089580E091E00895392F3F
:105F100020E040E053E060E070E0420F531F611D5D
:105F2000711D4093020C5093030C6093040C70930A
:105F3000050C99279093010C8093000CABEFB6E110
:105F40008550994EA817B90749F06BBFFA01279100
:105F50002D934F5F5F4F6F4F7F4FF4CF81E00895D8
:105F600080E18093600088E080936000FFCFCF9253
:105F7000DF92EF92FF920F931F93CF93DF93D82E70
:105F80007B014091020C5091030C6091040C7091C4
:105F9000050C452B462B472B09F44DC0DD2009F499
:105FA0004AC00091000C1091010CC8018D0D911D8B
:105FB0008130914018F0C02EC19401C0CD2CCC2D61
:105FC000D0E0AE01B701C8018550994E0E947744D8
:105FD0000C0F1D1F01151140F9F46091020C709116
:105FE000030C8091040C9091050C4BEF56E10F943B
:105FF00000F80091020C1091030C2091040C3091D8
:10600000050C1F5F2F4F3F4F0093020C1093030CA2
:106010002093040C3093050C2091000C3091010C5E
:106020002C0F3D1F33273093010C2093000CDC18FC
:10603000EC0EFD1EB3CFDF91CF911F910F91FF901A
:10604000EF90DF90CF9008958F929F92AF92BF9282
:10605000CF92DF92EF92FF920F931F936091020C09
:106060007091030C8091040C9091050C61157105E1
:1060700081059105B9F14091000C5091010C411539
:10608000510541F100E010E098016A01EE24D7FCCF
:10609000E094FE2CC60ED71EE81EF91E4F3F510598
:1060A00009F0A4F446015701800E911EA21EB31EF2
:1060B000ABBEF4018790FA01E550F94E80824F5F44
:1060C0005F4F0F5F1F4F2F4F3F4FE8CF4BEF56E112
:1060D0000F9400F81092020C1092030C1092040C12
:1060E0001092050C1F910F91FF90EF90DF90CF90D1
:1060F000BF90AF909F908F90089503D003D068D643
:1061000039C608958FE49EE19093ED168093EC16C6
:106110006CEE76E18EEA9BE00E94180D0C94D11C87
:106120008F929F92AF92CF92DF92EF92FF920F9356
:10613000CF93DF9300D01F92CDB7DEB751E0540F5D
:1061400059835FEA5A83FE0133964F0152E0A52E30
:10615000FE0131966F01E8EEEE2EE3E0FE2E0E9486
:10616000691D81110AC0EB81FC8186818F3A49F457
:106170000780F085E02D808107C0843021F48DE018
:1061800003C080E001C08CE00F900F900F900F9043
:10619000DF91CF910F91FF90EF90DF90CF90AF9074
:1061A0009F908F9008954F925F926F927F928F92FF
:1061B0009F92AF92BF92CF92DF92EF92FF920F9396
:1061C0001F93CF93DF93562E672E782E192F442ED0
:1061D000E90110929A161092991680E5E82E86E051
:1061E000F82E2091991630919A168091970E9091E1
:1061F000980E2817390784F4FF92EF920E94FE0947
:106200008091991690919A16019690939A16809380
:1062100099160F900F90E5CF1F937F926F925F9228
:1062200089E69AE09F938F930E94FE090F900F904A
:106230000F900F900F900F907E01802E912CA0E573
:10624000CA2EA6E0DA2EB3E9AB2EBAE0BB2EC70108
:106250008C1B9D0B10929A16109299168815990511
:106260004CF58091991690919A162091970E309145
:10627000980E8217930784F4DF92CF920E94FE0952
:106280008091991690919A16019690939A16809300
:1062900099160F900F90E5CFF70181917F011F9222
:1062A0008F93BF92AF920E94FE090F900F900F90B4
:1062B0000F90CDCFF0E5EF2EF6E0FF2E209199164E
:1062C00030919A168091970E9091980E2817390761
:1062D00084F4FF92EF920E94FE09809199169091AA
:1062E0009A16019690939A16809399160F900F9094
:1062F000E5CF8CE997E09F938F930E94FE099E0162
:10630000442D652D762D872D912F0E94411D0F90D4
:106310000F90DF91CF911F910F91FF90EF90DF9041
:10632000CF90BF90AF909F908F907F906F905F9035
:106330004F9008950F93CF93DF9300D000D0CDB747
:10634000DEB720E2298321E02A830B8323E0AE011C
:106350004F5F5F4F0E94031D26960FB6F894DEBF75
:106360000FBECDBFDF91CF910F9108958F929F9275
:10637000AF92BF92CF92DF92EF92FF920F931F9353
:10638000CF93DF93CDB7DEB76A970FB6F894DEBF31
:106390000FBECDBF4B015C01842FA8018701803463
:1063A00020F0C501B401C6DF22C089835A834B8324
:1063B0002C831D821E83EF821A8E198EBE01695EA8
:1063C0007F4F0E947A206F89788D9E01275E3F4F14
:1063D000AE01485F5F4FC6010E94E61E098D095F4E
:1063E0009E012F5F3F4F46E9C501B40199DE6A96D1
:1063F0000FB6F894DEBF0FBECDBFDF91CF911F91D6
:106400000F91FF90EF90DF90CF90BF90AF909F9053
:106410008F9008958F929F92AF92BF92CF92DF920A
:10642000EF920F931F93CF93DF93CDB7DEB76997AA
:106430000FB6F894DEBF0FBECDBF4B015C01842FB9
:10644000A801803458F0EE2019F00FEF10E002C0E0
:1064500000E010E0C501B4016DDF22C089835A83DA
:106460000B832C8391E09D83EE821F8A1E8ABE01DE
:10647000685E7F4F0E947A20688D798D9E012A5E2A
:106480003F4FAE01495F5F4FC6010E94E61E0E8975
:106490000A5F9E012F5F3F4F46E9C501B40140DE10
:1064A00069960FB6F894DEBF0FBECDBFDF91CF91D6
:1064B0001F910F91EF90DF90CF90BF90AF909F9082
:1064C0008F9008958F929F92AF92BF92CF92DF925A
:1064D000EF92FF920F931F93CF93DF93CDB7DEB769
:1064E0006A970FB6F894DEBF0FBECDBF4B015C01BB
:1064F000842F403420F549831A830B832C8392E048
:106500009D83FE82EF82188E1F8ABE01675E7F4FD9
:106510000E947A20698D7A8D9E01295E3F4FAE01DF
:10652000485F5F4FC6010E94E61E0F89095F9E010A
:106530002F5F3F4F46E9C501B401F2DD01C08FEA8C
:106540006A960FB6F894DEBF0FBECDBFDF91CF9134
:106550001F910F91FF90EF90DF90CF90BF90AF9081
:106560009F908F9008954F925F926F927F928F923B
:106570009F92AF92CF92DF92EF920F931F93CF93A0
:10658000DF93CDB7DEB76D970FB6F894DEBF0FBEC1
:10659000CDBF2B013C01CA01B90128A939A9198332
:1065A0000A83EB82DC82CD82AE829F8288864FA5F1
:1065B00049873A872B872AA92C871D8E1C8E9E011E
:1065C000245E3F4FAE01435F5F4F0E94E61E0C8D7D
:1065D000045F9E012F5F3F4F44EAC301B201A0DD7B
:1065E0006D960FB6F894DEBF0FBECDBFDF91CF9191
:1065F0001F910F91EF90DF90CF90AF909F908F9071
:106600007F906F905F904F9008958F929F92AF927E
:10661000CF92DF92EF920F931F93CF93DF93CDB77B
:10662000DEB76B970FB6F894DEBF0FBECDBFEAA5FD
:10663000FBA519830A83EB82DC82CD82AE829F8226
:106640008886A9A5A987FA87EB87ECA5EC875D87E3
:106650004E873F87288B198A01E19E012F5F3F4FAC
:1066600044EA5EDD6B960FB6F894DEBF0FBECDBF79
:10667000DF91CF911F910F91EF90DF90CF90AF906E
:106680009F908F9008950F931F93CF93DF9300D027
:1066900000D0CDB7DEB7603471058105910570F487
:1066A00059834A832B831C821D830E8306E09E013F
:1066B0002F5F3F4F45EB77DD80E001C08FEA2696E4
:1066C0000FB6F894DEBF0FBECDBFDF91CF911F9103
:1066D0000F9108950F93CF93DF9300D01F921F92D5
:1066E000CDB7DEB7603471058105910570F459832B
:1066F0004A832B8321E02C830D8305E09E012F5FCD
:106700003F4F45EB50DD80E001C08FEA0F900F90C6
:106710000F900F900F90DF91CF910F9108950F93ED
:106720001F93CF93DF9300D000D0CDB7DEB7603496
:1067300071058105910578F459834A832B8322E002
:106740002C831D830E8306E09E012F5F3F4F45EB98
:106750002ADD80E001C08FEA26960FB6F894DEBFEE
:106760000FBECDBFDF91CF911F910F9108950F9371
:10677000CF93DF931F921F92CDB7DEB749832A8351
:1067800002E09E012F5F3F4F48E9CADC0F900F9057
:10679000DF91CF910F9108956F927F928F929F9288
:1067A000AF92CF92DF92EF92FF920F931F93CF930E
:1067B000DF9300D000D0CDB7DEB73C01DC011796E7
:1067C0008D909C90189780919B16823009F4BDC2E1
:1067D00016968C9190E0FC01E059F109E531F10544
:1067E00008F0B3C2E357FF4F0C940F444EE1F4019D
:1067F0006081C4010E94611E282F6BE99EC2D401F2
:1068000011964C9111976C91C40102960E94511EF1
:10681000811102C06DE901C06FEAF40180838CC26E
:106820000E94CD2B99E3899F912D11249695282FB5
:10683000F9E09F9F2019112421119F5FD401CC9072
:1068400029E0C29EC02C112411969C931197129698
:106850008C93982F9C199A3008F099E084010B5F73
:106860001F4FD12CD91671F1BE016F5F7F4F8D2D57
:106870008C0D9E830E94B42BE981FA818181F801FD
:1068800032978083E981FA818081F8013197808392
:10689000E981FA818085248135819E8180FF08C04D
:1068A000232B11F483E001C082E0F801808306C04D
:1068B00081E0232B09F080E0D8018C93D3940D5F05
:1068C0001F4FD0CF4D2D50E04F5F5F4F242F220F31
:1068D000240F61E932C200D8282F66E00E949E434F
:1068E00091118F5FF4019081D92EDD0CD90EDD0C52
:1068F00081832283922F9D19973008F096E08401BE
:106900000A5F1F4FC12CC91691F1BE016F5F7F4F07
:106910008C2D8D0D9E830E943B2CE981FA81828112
:10692000F80133978083E981FA810190F081E02DAD
:106930008181F80132978083E981FA810190F081A9
:10694000E02D8081F80131978083E981FA810190FF
:10695000F081E02D81E0448155819E81452B09F035
:1069600080E0D8018C93C3940C5F1F4FCCCF2C2DAB
:10697000220F220F2D5F63E9E0C1F401D380BE0135
:106980006D5F7F4F80810E94242C882321F0D401E9
:1069900012968C93CCC1AE014B5F5F4F6D2D8B81F6
:1069A0009C810E94092B8B819C810D2D10E0DC01C4
